{
  "_format": "hh-sol-artifact-1",
  "contractName": "VotingFactory",
  "sourceName": "contracts/VotingFactory.sol",
  "abi": [
    {
      "inputs": [
        {
          "internalType": "address",
          "name": "_publicElectionImpl",
          "type": "address"
        },
        {
          "internalType": "address",
          "name": "_privateElectionImpl",
          "type": "address"
        }
      ],
      "stateMutability": "nonpayable",
      "type": "constructor"
    },
    {
      "inputs": [],
      "name": "ECDSAInvalidSignature",
      "type": "error"
    },
    {
      "inputs": [
        {
          "internalType": "uint256",
          "name": "length",
          "type": "uint256"
        }
      ],
      "name": "ECDSAInvalidSignatureLength",
      "type": "error"
    },
    {
      "inputs": [
        {
          "internalType": "bytes32",
          "name": "s",
          "type": "bytes32"
        }
      ],
      "name": "ECDSAInvalidSignatureS",
      "type": "error"
    },
    {
      "inputs": [],
      "name": "FailedDeployment",
      "type": "error"
    },
    {
      "inputs": [
        {
          "internalType": "uint256",
          "name": "balance",
          "type": "uint256"
        },
        {
          "internalType": "uint256",
          "name": "needed",
          "type": "uint256"
        }
      ],
      "name": "InsufficientBalance",
      "type": "error"
    },
    {
      "inputs": [],
      "name": "InvalidShortString",
      "type": "error"
    },
    {
      "inputs": [
        {
          "internalType": "string",
          "name": "str",
          "type": "string"
        }
      ],
      "name": "StringTooLong",
      "type": "error"
    },
    {
      "anonymous": false,
      "inputs": [],
      "name": "EIP712DomainChanged",
      "type": "event"
    },
    {
      "anonymous": false,
      "inputs": [
        {
          "indexed": true,
          "internalType": "uint256",
          "name": "id",
          "type": "uint256"
        },
        {
          "indexed": false,
          "internalType": "enum VotingFactory.ElectionType",
          "name": "electionType",
          "type": "uint8"
        },
        {
          "indexed": false,
          "internalType": "string",
          "name": "name",
          "type": "string"
        },
        {
          "indexed": false,
          "internalType": "address",
          "name": "contractAddress",
          "type": "address"
        },
        {
          "indexed": false,
          "internalType": "address",
          "name": "creator",
          "type": "address"
        }
      ],
      "name": "ElectionCreated",
      "type": "event"
    },
    {
      "inputs": [],
      "name": "PRIVATE_ELECTION_TYPEHASH",
      "outputs": [
        {
          "internalType": "bytes32",
          "name": "",
          "type": "bytes32"
        }
      ],
      "stateMutability": "view",
      "type": "function"
    },
    {
      "inputs": [],
      "name": "PUBLIC_ELECTION_TYPEHASH",
      "outputs": [
        {
          "internalType": "bytes32",
          "name": "",
          "type": "bytes32"
        }
      ],
      "stateMutability": "view",
      "type": "function"
    },
    {
      "inputs": [],
      "name": "admin",
      "outputs": [
        {
          "internalType": "address",
          "name": "",
          "type": "address"
        }
      ],
      "stateMutability": "view",
      "type": "function"
    },
    {
      "inputs": [
        {
          "internalType": "string",
          "name": "name",
          "type": "string"
        },
        {
          "internalType": "string[]",
          "name": "candidateNames",
          "type": "string[]"
        },
        {
          "internalType": "uint256",
          "name": "_voterLimit",
          "type": "uint256"
        },
        {
          "internalType": "bool",
          "name": "_startImmediately",
          "type": "bool"
        }
      ],
      "name": "createPrivateElection",
      "outputs": [
        {
          "internalType": "address",
          "name": "",
          "type": "address"
        }
      ],
      "stateMutability": "nonpayable",
      "type": "function"
    },
    {
      "inputs": [
        {
          "internalType": "string",
          "name": "name",
          "type": "string"
        },
        {
          "internalType": "bool",
          "name": "_startImmediately",
          "type": "bool"
        },
        {
          "internalType": "uint256",
          "name": "_voterLimit",
          "type": "uint256"
        },
        {
          "internalType": "address",
          "name": "_creator",
          "type": "address"
        },
        {
          "internalType": "string[]",
          "name": "candidateNames",
          "type": "string[]"
        },
        {
          "internalType": "bytes",
          "name": "signature",
          "type": "bytes"
        }
      ],
      "name": "createPrivateElectionWithSignature",
      "outputs": [
        {
          "internalType": "address",
          "name": "",
          "type": "address"
        }
      ],
      "stateMutability": "nonpayable",
      "type": "function"
    },
    {
      "inputs": [
        {
          "internalType": "string",
          "name": "name",
          "type": "string"
        },
        {
          "internalType": "string[]",
          "name": "candidateNames",
          "type": "string[]"
        },
        {
          "internalType": "uint256",
          "name": "_voterLimit",
          "type": "uint256"
        },
        {
          "internalType": "bool",
          "name": "_startImmediately",
          "type": "bool"
        }
      ],
      "name": "createPublicElection",
      "outputs": [
        {
          "internalType": "address",
          "name": "",
          "type": "address"
        }
      ],
      "stateMutability": "nonpayable",
      "type": "function"
    },
    {
      "inputs": [
        {
          "internalType": "string",
          "name": "name",
          "type": "string"
        },
        {
          "internalType": "bool",
          "name": "_startImmediately",
          "type": "bool"
        },
        {
          "internalType": "uint256",
          "name": "_voterLimit",
          "type": "uint256"
        },
        {
          "internalType": "address",
          "name": "_creator",
          "type": "address"
        },
        {
          "internalType": "string[]",
          "name": "candidateNames",
          "type": "string[]"
        },
        {
          "internalType": "bytes",
          "name": "signature",
          "type": "bytes"
        }
      ],
      "name": "createPublicElectionWithSignature",
      "outputs": [
        {
          "internalType": "address",
          "name": "",
          "type": "address"
        }
      ],
      "stateMutability": "nonpayable",
      "type": "function"
    },
    {
      "inputs": [],
      "name": "eip712Domain",
      "outputs": [
        {
          "internalType": "bytes1",
          "name": "fields",
          "type": "bytes1"
        },
        {
          "internalType": "string",
          "name": "name",
          "type": "string"
        },
        {
          "internalType": "string",
          "name": "version",
          "type": "string"
        },
        {
          "internalType": "uint256",
          "name": "chainId",
          "type": "uint256"
        },
        {
          "internalType": "address",
          "name": "verifyingContract",
          "type": "address"
        },
        {
          "internalType": "bytes32",
          "name": "salt",
          "type": "bytes32"
        },
        {
          "internalType": "uint256[]",
          "name": "extensions",
          "type": "uint256[]"
        }
      ],
      "stateMutability": "view",
      "type": "function"
    },
    {
      "inputs": [],
      "name": "electionCounter",
      "outputs": [
        {
          "internalType": "uint256",
          "name": "",
          "type": "uint256"
        }
      ],
      "stateMutability": "view",
      "type": "function"
    },
    {
      "inputs": [
        {
          "internalType": "uint256",
          "name": "",
          "type": "uint256"
        }
      ],
      "name": "elections",
      "outputs": [
        {
          "internalType": "address",
          "name": "contractAddress",
          "type": "address"
        },
        {
          "internalType": "enum VotingFactory.ElectionType",
          "name": "electionType",
          "type": "uint8"
        },
        {
          "internalType": "string",
          "name": "name",
          "type": "string"
        },
        {
          "internalType": "address",
          "name": "creator",
          "type": "address"
        }
      ],
      "stateMutability": "view",
      "type": "function"
    },
    {
      "inputs": [],
      "name": "getActiveElections",
      "outputs": [
        {
          "components": [
            {
              "components": [
                {
                  "internalType": "uint256",
                  "name": "id",
                  "type": "uint256"
                },
                {
                  "internalType": "string",
                  "name": "name",
                  "type": "string"
                },
                {
                  "internalType": "uint256",
                  "name": "startTime",
                  "type": "uint256"
                },
                {
                  "internalType": "uint256",
                  "name": "endTime",
                  "type": "uint256"
                },
                {
                  "internalType": "address",
                  "name": "creator",
                  "type": "address"
                },
                {
                  "internalType": "bool",
                  "name": "isActive",
                  "type": "bool"
                },
                {
                  "internalType": "bool",
                  "name": "startedManually",
                  "type": "bool"
                },
                {
                  "internalType": "bool",
                  "name": "endedManually",
                  "type": "bool"
                },
                {
                  "internalType": "uint256",
                  "name": "candidateCount",
                  "type": "uint256"
                },
                {
                  "internalType": "uint256",
                  "name": "voterLimit",
                  "type": "uint256"
                },
                {
                  "components": [
                    {
                      "internalType": "uint256",
                      "name": "id",
                      "type": "uint256"
                    },
                    {
                      "internalType": "string",
                      "name": "name",
                      "type": "string"
                    },
                    {
                      "internalType": "uint256",
                      "name": "voteCount",
                      "type": "uint256"
                    }
                  ],
                  "internalType": "struct ElectionMetadata.CandidateView[]",
                  "name": "candidates",
                  "type": "tuple[]"
                }
              ],
              "internalType": "struct ElectionMetadata.ElectionWithCandidates",
              "name": "coreData",
              "type": "tuple"
            },
            {
              "internalType": "enum VotingFactory.ElectionType",
              "name": "electionType",
              "type": "uint8"
            },
            {
              "internalType": "address",
              "name": "contractAddress",
              "type": "address"
            }
          ],
          "internalType": "struct VotingFactory.FullElectionInfo[]",
          "name": "",
          "type": "tuple[]"
        }
      ],
      "stateMutability": "view",
      "type": "function"
    },
    {
      "inputs": [],
      "name": "getAllElections",
      "outputs": [
        {
          "components": [
            {
              "components": [
                {
                  "internalType": "uint256",
                  "name": "id",
                  "type": "uint256"
                },
                {
                  "internalType": "string",
                  "name": "name",
                  "type": "string"
                },
                {
                  "internalType": "uint256",
                  "name": "startTime",
                  "type": "uint256"
                },
                {
                  "internalType": "uint256",
                  "name": "endTime",
                  "type": "uint256"
                },
                {
                  "internalType": "address",
                  "name": "creator",
                  "type": "address"
                },
                {
                  "internalType": "bool",
                  "name": "isActive",
                  "type": "bool"
                },
                {
                  "internalType": "bool",
                  "name": "startedManually",
                  "type": "bool"
                },
                {
                  "internalType": "bool",
                  "name": "endedManually",
                  "type": "bool"
                },
                {
                  "internalType": "uint256",
                  "name": "candidateCount",
                  "type": "uint256"
                },
                {
                  "internalType": "uint256",
                  "name": "voterLimit",
                  "type": "uint256"
                },
                {
                  "components": [
                    {
                      "internalType": "uint256",
                      "name": "id",
                      "type": "uint256"
                    },
                    {
                      "internalType": "string",
                      "name": "name",
                      "type": "string"
                    },
                    {
                      "internalType": "uint256",
                      "name": "voteCount",
                      "type": "uint256"
                    }
                  ],
                  "internalType": "struct ElectionMetadata.CandidateView[]",
                  "name": "candidates",
                  "type": "tuple[]"
                }
              ],
              "internalType": "struct ElectionMetadata.ElectionWithCandidates",
              "name": "coreData",
              "type": "tuple"
            },
            {
              "internalType": "enum VotingFactory.ElectionType",
              "name": "electionType",
              "type": "uint8"
            },
            {
              "internalType": "address",
              "name": "contractAddress",
              "type": "address"
            }
          ],
          "internalType": "struct VotingFactory.FullElectionInfo[]",
          "name": "",
          "type": "tuple[]"
        }
      ],
      "stateMutability": "view",
      "type": "function"
    },
    {
      "inputs": [
        {
          "internalType": "uint256",
          "name": "id",
          "type": "uint256"
        }
      ],
      "name": "getElection",
      "outputs": [
        {
          "components": [
            {
              "components": [
                {
                  "internalType": "uint256",
                  "name": "id",
                  "type": "uint256"
                },
                {
                  "internalType": "string",
                  "name": "name",
                  "type": "string"
                },
                {
                  "internalType": "uint256",
                  "name": "startTime",
                  "type": "uint256"
                },
                {
                  "internalType": "uint256",
                  "name": "endTime",
                  "type": "uint256"
                },
                {
                  "internalType": "address",
                  "name": "creator",
                  "type": "address"
                },
                {
                  "internalType": "bool",
                  "name": "isActive",
                  "type": "bool"
                },
                {
                  "internalType": "bool",
                  "name": "startedManually",
                  "type": "bool"
                },
                {
                  "internalType": "bool",
                  "name": "endedManually",
                  "type": "bool"
                },
                {
                  "internalType": "uint256",
                  "name": "candidateCount",
                  "type": "uint256"
                },
                {
                  "internalType": "uint256",
                  "name": "voterLimit",
                  "type": "uint256"
                },
                {
                  "components": [
                    {
                      "internalType": "uint256",
                      "name": "id",
                      "type": "uint256"
                    },
                    {
                      "internalType": "string",
                      "name": "name",
                      "type": "string"
                    },
                    {
                      "internalType": "uint256",
                      "name": "voteCount",
                      "type": "uint256"
                    }
                  ],
                  "internalType": "struct ElectionMetadata.CandidateView[]",
                  "name": "candidates",
                  "type": "tuple[]"
                }
              ],
              "internalType": "struct ElectionMetadata.ElectionWithCandidates",
              "name": "coreData",
              "type": "tuple"
            },
            {
              "internalType": "enum VotingFactory.ElectionType",
              "name": "electionType",
              "type": "uint8"
            },
            {
              "internalType": "address",
              "name": "contractAddress",
              "type": "address"
            }
          ],
          "internalType": "struct VotingFactory.FullElectionInfo",
          "name": "",
          "type": "tuple"
        }
      ],
      "stateMutability": "view",
      "type": "function"
    },
    {
      "inputs": [
        {
          "internalType": "uint256[]",
          "name": "ids",
          "type": "uint256[]"
        }
      ],
      "name": "getElectionsByIds",
      "outputs": [
        {
          "components": [
            {
              "components": [
                {
                  "internalType": "uint256",
                  "name": "id",
                  "type": "uint256"
                },
                {
                  "internalType": "string",
                  "name": "name",
                  "type": "string"
                },
                {
                  "internalType": "uint256",
                  "name": "startTime",
                  "type": "uint256"
                },
                {
                  "internalType": "uint256",
                  "name": "endTime",
                  "type": "uint256"
                },
                {
                  "internalType": "address",
                  "name": "creator",
                  "type": "address"
                },
                {
                  "internalType": "bool",
                  "name": "isActive",
                  "type": "bool"
                },
                {
                  "internalType": "bool",
                  "name": "startedManually",
                  "type": "bool"
                },
                {
                  "internalType": "bool",
                  "name": "endedManually",
                  "type": "bool"
                },
                {
                  "internalType": "uint256",
                  "name": "candidateCount",
                  "type": "uint256"
                },
                {
                  "internalType": "uint256",
                  "name": "voterLimit",
                  "type": "uint256"
                },
                {
                  "components": [
                    {
                      "internalType": "uint256",
                      "name": "id",
                      "type": "uint256"
                    },
                    {
                      "internalType": "string",
                      "name": "name",
                      "type": "string"
                    },
                    {
                      "internalType": "uint256",
                      "name": "voteCount",
                      "type": "uint256"
                    }
                  ],
                  "internalType": "struct ElectionMetadata.CandidateView[]",
                  "name": "candidates",
                  "type": "tuple[]"
                }
              ],
              "internalType": "struct ElectionMetadata.ElectionWithCandidates",
              "name": "coreData",
              "type": "tuple"
            },
            {
              "internalType": "enum VotingFactory.ElectionType",
              "name": "electionType",
              "type": "uint8"
            },
            {
              "internalType": "address",
              "name": "contractAddress",
              "type": "address"
            }
          ],
          "internalType": "struct VotingFactory.FullElectionInfo[]",
          "name": "",
          "type": "tuple[]"
        }
      ],
      "stateMutability": "view",
      "type": "function"
    },
    {
      "inputs": [],
      "name": "getMyElections",
      "outputs": [
        {
          "components": [
            {
              "components": [
                {
                  "internalType": "uint256",
                  "name": "id",
                  "type": "uint256"
                },
                {
                  "internalType": "string",
                  "name": "name",
                  "type": "string"
                },
                {
                  "internalType": "uint256",
                  "name": "startTime",
                  "type": "uint256"
                },
                {
                  "internalType": "uint256",
                  "name": "endTime",
                  "type": "uint256"
                },
                {
                  "internalType": "address",
                  "name": "creator",
                  "type": "address"
                },
                {
                  "internalType": "bool",
                  "name": "isActive",
                  "type": "bool"
                },
                {
                  "internalType": "bool",
                  "name": "startedManually",
                  "type": "bool"
                },
                {
                  "internalType": "bool",
                  "name": "endedManually",
                  "type": "bool"
                },
                {
                  "internalType": "uint256",
                  "name": "candidateCount",
                  "type": "uint256"
                },
                {
                  "internalType": "uint256",
                  "name": "voterLimit",
                  "type": "uint256"
                },
                {
                  "components": [
                    {
                      "internalType": "uint256",
                      "name": "id",
                      "type": "uint256"
                    },
                    {
                      "internalType": "string",
                      "name": "name",
                      "type": "string"
                    },
                    {
                      "internalType": "uint256",
                      "name": "voteCount",
                      "type": "uint256"
                    }
                  ],
                  "internalType": "struct ElectionMetadata.CandidateView[]",
                  "name": "candidates",
                  "type": "tuple[]"
                }
              ],
              "internalType": "struct ElectionMetadata.ElectionWithCandidates",
              "name": "coreData",
              "type": "tuple"
            },
            {
              "internalType": "enum VotingFactory.ElectionType",
              "name": "electionType",
              "type": "uint8"
            },
            {
              "internalType": "address",
              "name": "contractAddress",
              "type": "address"
            }
          ],
          "internalType": "struct VotingFactory.FullElectionInfo[]",
          "name": "",
          "type": "tuple[]"
        }
      ],
      "stateMutability": "view",
      "type": "function"
    },
    {
      "inputs": [],
      "name": "privateElectionImpl",
      "outputs": [
        {
          "internalType": "address",
          "name": "",
          "type": "address"
        }
      ],
      "stateMutability": "view",
      "type": "function"
    },
    {
      "inputs": [],
      "name": "publicElectionImpl",
      "outputs": [
        {
          "internalType": "address",
          "name": "",
          "type": "address"
        }
      ],
      "stateMutability": "view",
      "type": "function"
    }
  ],
  "bytecode": "0x61016060405234801561001157600080fd5b506040516124fb3803806124fb833981016040819052610030916101ef565b604080518082018252600d81526c566f74696e67466163746f727960981b602080830191909152825180840190935260018352603160f81b9083015290610078826000610159565b61012052610087816001610159565b61014052815160208084019190912060e052815190820120610100524660a05261011460e05161010051604080517f8b73c3c69bb8fe3d512ecc4cf759cc79239f7b179b0ffacaa9a75d522b39400f60208201529081019290925260608201524660808201523060a082015260009060c00160405160208183030381529060405280519060200120905090565b60805250503060c052600280546001600160a01b03199081163317909155600380546001600160a01b03948516908316179055600480549290931691161790556103f1565b60006020835110156101755761016e8361018c565b9050610186565b8161018084826102c1565b5060ff90505b92915050565b600080829050601f815111156101c0578260405163305a27a960e01b81526004016101b7919061037f565b60405180910390fd5b80516101cb826103cd565b179392505050565b80516001600160a01b03811681146101ea57600080fd5b919050565b6000806040838503121561020257600080fd5b61020b836101d3565b9150610219602084016101d3565b90509250929050565b634e487b7160e01b600052604160045260246000fd5b600181811c9082168061024c57607f821691505b60208210810361026c57634e487b7160e01b600052602260045260246000fd5b50919050565b601f8211156102bc57806000526020600020601f840160051c810160208510156102995750805b601f840160051c820191505b818110156102b957600081556001016102a5565b50505b505050565b81516001600160401b038111156102da576102da610222565b6102ee816102e88454610238565b84610272565b6020601f821160018114610322576000831561030a5750848201515b600019600385901b1c1916600184901b1784556102b9565b600084815260208120601f198516915b828110156103525787850151825560209485019460019092019101610332565b50848210156103705786840151600019600387901b60f8161c191681555b50505050600190811b01905550565b602081526000825180602084015260005b818110156103ad5760208186018101516040868401015201610390565b506000604082850101526040601f19601f83011684010191505092915050565b8051602080830151919081101561026c5760001960209190910360031b1b16919050565b60805160a05160c05160e0516101005161012051610140516120b061044b6000396000610e5401526000610e22015260006110630152600061103b01526000610f9601526000610fc001526000610fea01526120b06000f3fe608060405234801561001057600080fd5b50600436106100eb5760003560e01c806384b0196e1161009257806384b0196e146101b65780638a3b63b0146101d15780639d710777146101d9578063c17682ed146101f9578063c4315c0f1461020c578063cd13088f14610139578063e6c7d0851461021f578063f851a44014610232578063fc4912cb1461024557600080fd5b806301786e7f146100f0578063079a0d871461010e57806318df3a8514610139578063282931011461015c5780635e6fef011461016f578063600bb84c1461019257806361e37417146101a55780637fd5f268146101ae575b600080fd5b6100f8610258565b60405161010591906115ec565b60405180910390f35b61012161011c36600461182e565b6103c9565b6040516001600160a01b039091168152602001610105565b61014e60008051602061205b83398151915281565b604051908152602001610105565b600454610121906001600160a01b031681565b61018261017d3660046118b1565b6103e3565b60405161010594939291906118ca565b6100f86101a0366004611912565b6104ad565b61014e60055481565b6100f8610623565b6101be6106be565b60405161010597969594939291906119a7565b6100f8610704565b6101ec6101e73660046118b1565b6108da565b6040516101059190611a3f565b600354610121906001600160a01b031681565b61012161021a366004611a67565b61093d565b61012161022d366004611a67565b6109ef565b600254610121906001600160a01b031681565b61012161025336600461182e565b610a93565b606060006005546001600160401b0381111561027657610276611651565b6040519080825280602002602001820160405280156102af57816020015b61029c611380565b8152602001906001900390816102945790505b5090506000805b60055481101561032057600081815260066020526040902060020154336001600160a01b0390911603610318576102ec81610aa4565b8383815181106102fe576102fe611b3a565b6020026020010181905250818061031490611b50565b9250505b6001016102b6565b506000816001600160401b0381111561033b5761033b611651565b60405190808252806020026020018201604052801561037457816020015b610361611380565b8152602001906001900390816103595790505b50905060005b828110156103c15783818151811061039457610394611b3a565b60200260200101518282815181106103ae576103ae611b3a565b602090810291909101015260010161037a565b509392505050565b60006103da85858585336001610b86565b95945050505050565b600660205260009081526040902080546001820180546001600160a01b03831693600160a01b90930460ff1692919061041b90611b77565b80601f016020809104026020016040519081016040528092919081815260200182805461044790611b77565b80156104945780601f1061046957610100808354040283529160200191610494565b820191906000526020600020905b81548152906001019060200180831161047757829003601f168201915b505050600290930154919250506001600160a01b031684565b6060600082516001600160401b038111156104ca576104ca611651565b60405190808252806020026020018201604052801561050357816020015b6104f0611380565b8152602001906001900390816104e85790505b5090506000805b845181101561057957600085828151811061052757610527611b3a565b602002602001015190506005548110156105705761054481610aa4565b84848151811061055657610556611b3a565b6020026020010181905250828061056c90611b50565b9350505b5060010161050a565b506000816001600160401b0381111561059457610594611651565b6040519080825280602002602001820160405280156105cd57816020015b6105ba611380565b8152602001906001900390816105b25790505b50905060005b8281101561061a578381815181106105ed576105ed611b3a565b602002602001015182828151811061060757610607611b3a565b60209081029190910101526001016105d3565b50949350505050565b606060006005546001600160401b0381111561064157610641611651565b60405190808252806020026020018201604052801561067a57816020015b610667611380565b81526020019060019003908161065f5790505b50905060005b6005548110156106b85761069381610aa4565b8282815181106106a5576106a5611b3a565b6020908102919091010152600101610680565b50919050565b6000606080600080600060606106d2610e1b565b6106da610e4d565b60408051600080825260208201909252600f60f81b9b939a50919850469750309650945092509050565b60606000805b6005548110156107ab57600081815260066020526040808220548151633c17662160e21b815291516001600160a01b039091169263f05d988492600480820193918290030181865afa158015610764573d6000803e3d6000fd5b505050506040513d6000823e601f3d908101601f1916820160405261078c9190810190611ce6565b60a00151156107a3578161079f81611b50565b9250505b60010161070a565b506000816001600160401b038111156107c6576107c6611651565b6040519080825280602002602001820160405280156107ff57816020015b6107ec611380565b8152602001906001900390816107e45790505b5090506000805b6005548110156108d157600081815260066020526040808220548151633c17662160e21b815291516001600160a01b0390911692839263f05d988492600480830193928290030181865afa158015610862573d6000803e3d6000fd5b505050506040513d6000823e601f3d908101601f1916820160405261088a9190810190611ce6565b60a00151156108c85761089c82610aa4565b8484815181106108ae576108ae611b3a565b602002602001018190525082806108c490611b50565b9350505b50600101610806565b50909392505050565b6108e2611380565b600554821061092e5760405162461bcd60e51b8152602060048201526013602482015272125b9d985b1a5908195b1958dd1a5bdb881251606a1b60448201526064015b60405180910390fd5b61093782610aa4565b92915050565b60008060008051602061205b833981519152888051906020012088888860405160200161096e959493929190611dfb565b604051602081830303815290604052805190602001209050600061099182610e7a565b9050600061099f8286610ea7565b9050866001600160a01b0316816001600160a01b0316146109d25760405162461bcd60e51b815260040161092590611e27565b6109e18a878a8c8b6000610b86565b9a9950505050505050505050565b60008060008051602061205b8339815191528880519060200120888888604051602001610a20959493929190611dfb565b6040516020818303038152906040528051906020012090506000610a4382610e7a565b90506000610a518286610ea7565b9050866001600160a01b0316816001600160a01b031614610a845760405162461bcd60e51b815260040161092590611e27565b6109e18a878a8c8b6001610b86565b60006103da85858585336000610b86565b610aac611380565b600082815260066020526040808220548151633c17662160e21b815291516001600160a01b039091169291839163f05d98849160048082019286929091908290030181865afa158015610b03573d6000803e3d6000fd5b505050506040513d6000823e601f3d908101601f19168201604052610b2b9190810190611ce6565b60408051606081018252828152600087815260066020908152929020549293509190820190600160a01b900460ff166001811115610b6b57610b6b6114c5565b8152602001836001600160a01b031681525092505050919050565b6000808080846001811115610b9d57610b9d6114c5565b03610c3557600354610bb7906001600160a01b0316610ed1565b600254600554604051637d474ea960e01b81529294506001600160a01b0380861693637d474ea993610bfa938f938f938d9390911691908f908f90600401611e52565b600060405180830381600087803b158015610c1457600080fd5b505af1158015610c28573d6000803e3d6000fd5b5050505060009050610cdd565b6001846001811115610c4957610c496114c5565b03610cdd57600454610c63906001600160a01b0316610ed1565b600254600554604051637d474ea960e01b81529294506001600160a01b0380861693637d474ea993610ca6938f938f938d9390911691908f908f90600401611e52565b600060405180830381600087803b158015610cc057600080fd5b505af1158015610cd4573d6000803e3d6000fd5b50505050600190505b6040518060800160405280836001600160a01b03168152602001826001811115610d0957610d096114c5565b815260208082018c90526001600160a01b03808916604093840152600554600090815260068352929092208351815493166001600160a01b0319841681178255918401519092909183916001600160a81b03191617600160a01b836001811115610d7557610d756114c5565b021790555060408201516001820190610d8e9082611f5b565b5060609190910151600290910180546001600160a01b0319166001600160a01b039092169190911790556005546040517f71d2a462ef2d8f45fe68435493f11b32507e6468b8aa28c3589fc7a57299f6d990610df19084908d9087908b90612019565b60405180910390a260058054906000610e0983611b50565b90915550919998505050505050505050565b6060610e487f00000000000000000000000000000000000000000000000000000000000000006000610ede565b905090565b6060610e487f00000000000000000000000000000000000000000000000000000000000000006001610ede565b6000610937610e87610f89565b8360405161190160f01b8152600281019290925260228201526042902090565b600080600080610eb786866110b4565b925092509250610ec78282611101565b5090949350505050565b60006109378260006111be565b606060ff8314610ef857610ef183611254565b9050610937565b818054610f0490611b77565b80601f0160208091040260200160405190810160405280929190818152602001828054610f3090611b77565b8015610f7d5780601f10610f5257610100808354040283529160200191610f7d565b820191906000526020600020905b815481529060010190602001808311610f6057829003601f168201915b50505050509050610937565b6000306001600160a01b037f000000000000000000000000000000000000000000000000000000000000000016148015610fe257507f000000000000000000000000000000000000000000000000000000000000000046145b1561100c57507f000000000000000000000000000000000000000000000000000000000000000090565b610e48604080517f8b73c3c69bb8fe3d512ecc4cf759cc79239f7b179b0ffacaa9a75d522b39400f60208201527f0000000000000000000000000000000000000000000000000000000000000000918101919091527f000000000000000000000000000000000000000000000000000000000000000060608201524660808201523060a082015260009060c00160405160208183030381529060405280519060200120905090565b600080600083516041036110ee5760208401516040850151606086015160001a6110e088828585611293565b9550955095505050506110fa565b50508151600091506002905b9250925092565b6000826003811115611115576111156114c5565b0361111e575050565b6001826003811115611132576111326114c5565b036111505760405163f645eedf60e01b815260040160405180910390fd5b6002826003811115611164576111646114c5565b036111855760405163fce698f760e01b815260048101829052602401610925565b6003826003811115611199576111996114c5565b036111ba576040516335e2f38360e21b815260048101829052602401610925565b5050565b6000814710156111ea5760405163cf47918160e01b815247600482015260248101839052604401610925565b763d602d80600a3d3981f3363d3d373d3d3d363d730000008360601b60e81c176000526e5af43d82803e903d91602b57fd5bf38360781b176020526037600983f090506001600160a01b0381166109375760405163b06ebf3d60e01b815260040160405180910390fd5b6060600061126183611358565b604080516020808252818301909252919250600091906020820181803683375050509182525060208101929092525090565b600080806fa2a8918ca85bafe22016d0b997e4df60600160ff1b038411156112c4575060009150600390508261134e565b604080516000808252602082018084528a905260ff891692820192909252606081018790526080810186905260019060a0016020604051602081039080840390855afa158015611318573d6000803e3d6000fd5b5050604051601f1901519150506001600160a01b0381166113445750600092506001915082905061134e565b9250600091508190505b9450945094915050565b600060ff8216601f81111561093757604051632cd44ac360e21b815260040160405180910390fd5b604080516101c08101909152600060608083018281526080840182905260a0840183905260c0840183905260e0840183905261010084018390526101208401839052610140840183905261016084018390526101808401929092526101a08301528190815260200160008152600060209091015290565b60005b838110156114125781810151838201526020016113fa565b50506000910152565b600081518084526114338160208601602086016113f7565b601f01601f19169290920160200192915050565b600082825180855260208501945060208160051b8301016020850160005b838110156114b957601f19858403018852815180518452602081015160606020860152611495606086018261141b565b60409283015195909201949094526020988901989093509190910190600101611465565b50909695505050505050565b634e487b7160e01b600052602160045260246000fd5b600281106114f957634e487b7160e01b600052602160045260246000fd5b9052565b600081516060845280516060850152602081015161016060808601526115276101c086018261141b565b9050604082015160a0860152606082015160c0860152608082015161155760e08701826001600160a01b03169052565b5060a08201518015156101008701525060c08201518015156101208701525060e08201518015156101408701525061010082015161016086015261012082015161018086015261014090910151848203605f19016101a0860152906115bc8183611447565b91505060208301516115d160208601826114db565b5060408301516103c160408601826001600160a01b03169052565b6000602082016020835280845180835260408501915060408160051b86010192506020860160005b8281101561164557603f198786030184526116308583516114fd565b94506020938401939190910190600101611614565b50929695505050505050565b634e487b7160e01b600052604160045260246000fd5b604051606081016001600160401b038111828210171561168957611689611651565b60405290565b60405161016081016001600160401b038111828210171561168957611689611651565b604051601f8201601f191681016001600160401b03811182821017156116da576116da611651565b604052919050565b60006001600160401b038211156116fb576116fb611651565b50601f01601f191660200190565b600061171c611717846116e2565b6116b2565b905082815283838301111561173057600080fd5b828260208301376000602084830101529392505050565b600082601f83011261175857600080fd5b61176783833560208501611709565b9392505050565b60006001600160401b0382111561178757611787611651565b5060051b60200190565b600082601f8301126117a257600080fd5b81356117b06117178261176e565b8082825260208201915060208360051b8601019250858311156117d257600080fd5b602085015b838110156118135780356001600160401b038111156117f557600080fd5b611804886020838a0101611747565b845250602092830192016117d7565b5095945050505050565b801515811461182b57600080fd5b50565b6000806000806080858703121561184457600080fd5b84356001600160401b0381111561185a57600080fd5b61186687828801611747565b94505060208501356001600160401b0381111561188257600080fd5b61188e87828801611791565b9350506040850135915060608501356118a68161181d565b939692955090935050565b6000602082840312156118c357600080fd5b5035919050565b6001600160a01b03851681526118e360208201856114db565b6080604082015260006118f9608083018561141b565b905060018060a01b038316606083015295945050505050565b60006020828403121561192457600080fd5b81356001600160401b0381111561193a57600080fd5b8201601f8101841361194b57600080fd5b80356119596117178261176e565b8082825260208201915060208360051b85010192508683111561197b57600080fd5b6020840193505b8284101561199d578335825260209384019390910190611982565b9695505050505050565b60ff60f81b8816815260e0602082015260006119c660e083018961141b565b82810360408401526119d8818961141b565b606084018890526001600160a01b038716608085015260a0840186905283810360c08501528451808252602080870193509091019060005b81811015611a2e578351835260209384019390920191600101611a10565b50909b9a5050505050505050505050565b60208152600061176760208301846114fd565b6001600160a01b038116811461182b57600080fd5b60008060008060008060c08789031215611a8057600080fd5b86356001600160401b03811115611a9657600080fd5b611aa289828a01611747565b9650506020870135611ab38161181d565b9450604087013593506060870135611aca81611a52565b925060808701356001600160401b03811115611ae557600080fd5b611af189828a01611791565b92505060a08701356001600160401b03811115611b0d57600080fd5b8701601f81018913611b1e57600080fd5b611b2d89823560208401611709565b9150509295509295509295565b634e487b7160e01b600052603260045260246000fd5b600060018201611b7057634e487b7160e01b600052601160045260246000fd5b5060010190565b600181811c90821680611b8b57607f821691505b6020821081036106b857634e487b7160e01b600052602260045260246000fd5b600082601f830112611bbc57600080fd5b8151611bca611717826116e2565b818152846020838601011115611bdf57600080fd5b611bf08260208301602087016113f7565b949350505050565b8051611c0381611a52565b919050565b8051611c038161181d565b600082601f830112611c2457600080fd5b8151611c326117178261176e565b8082825260208201915060208360051b860101925085831115611c5457600080fd5b602085015b838110156118135780516001600160401b03811115611c7757600080fd5b86016060818903601f19011215611c8d57600080fd5b611c95611667565b6020820151815260408201516001600160401b03811115611cb557600080fd5b611cc48a602083860101611bab565b6020838101919091526060939093015160408301525084529283019201611c59565b600060208284031215611cf857600080fd5b81516001600160401b03811115611d0e57600080fd5b82016101608185031215611d2157600080fd5b611d2961168f565b8151815260208201516001600160401b03811115611d4657600080fd5b611d5286828501611bab565b6020830152506040828101519082015260608083015190820152611d7860808301611bf8565b6080820152611d8960a08301611c08565b60a0820152611d9a60c08301611c08565b60c0820152611dab60e08301611c08565b60e0820152610100828101519082015261012080830151908201526101408201516001600160401b03811115611de057600080fd5b611dec86828501611c13565b61014083015250949350505050565b9485526020850193909352901515604084015260608301526001600160a01b0316608082015260a00190565b602080825260119082015270496e76616c6964207369676e617475726560781b604082015260600190565b60e081526000611e6560e083018a61141b565b828103602084015280895180835260208301915060208160051b84010160208c0160005b83811015611ebb57601f19868403018552611ea583835161141b565b6020958601959093509190910190600101611e89565b50506001600160a01b038b1660408701529350611ed792505050565b6001600160a01b03861660608301528460808301528360a0830152611f0060c083018415159052565b98975050505050505050565b601f821115611f5657806000526020600020601f840160051c81016020851015611f335750805b601f840160051c820191505b81811015611f535760008155600101611f3f565b50505b505050565b81516001600160401b03811115611f7457611f74611651565b611f8881611f828454611b77565b84611f0c565b6020601f821160018114611fbc5760008315611fa45750848201515b600019600385901b1c1916600184901b178455611f53565b600084815260208120601f198516915b82811015611fec5787850151825560209485019460019092019101611fcc565b508482101561200a5786840151600019600387901b60f8161c191681555b50505050600190811b01905550565b61202381866114db565b608060208201526000612039608083018661141b565b6001600160a01b03948516604084015292909316606090910152939250505056fec01c9b1d6a80d8bb2e7cf5ca4b339fda2ea6d9ea14e961bc26ad4e24b8215784a2646970667358221220ca0b7565e265f785a7b643b86f3a86dfe135cbf3fdb6f12590434e646dc08b7564736f6c634300081c0033",
  "linkReferences": {},
  "deployedLinkReferences": {}
}