{
  "_format": "hh-sol-artifact-1",
  "contractName": "VotingFactory",
  "sourceName": "contracts/VotingFactory.sol",
  "abi": [
    {
      "inputs": [
        {
          "internalType": "address",
          "name": "_publicElectionImpl",
          "type": "address"
        },
        {
          "internalType": "address",
          "name": "_privateElectionImpl",
          "type": "address"
        }
      ],
      "stateMutability": "nonpayable",
      "type": "constructor"
    },
    {
      "inputs": [],
      "name": "ECDSAInvalidSignature",
      "type": "error"
    },
    {
      "inputs": [
        {
          "internalType": "uint256",
          "name": "length",
          "type": "uint256"
        }
      ],
      "name": "ECDSAInvalidSignatureLength",
      "type": "error"
    },
    {
      "inputs": [
        {
          "internalType": "bytes32",
          "name": "s",
          "type": "bytes32"
        }
      ],
      "name": "ECDSAInvalidSignatureS",
      "type": "error"
    },
    {
      "inputs": [],
      "name": "FailedDeployment",
      "type": "error"
    },
    {
      "inputs": [
        {
          "internalType": "uint256",
          "name": "balance",
          "type": "uint256"
        },
        {
          "internalType": "uint256",
          "name": "needed",
          "type": "uint256"
        }
      ],
      "name": "InsufficientBalance",
      "type": "error"
    },
    {
      "inputs": [],
      "name": "InvalidShortString",
      "type": "error"
    },
    {
      "inputs": [
        {
          "internalType": "string",
          "name": "str",
          "type": "string"
        }
      ],
      "name": "StringTooLong",
      "type": "error"
    },
    {
      "anonymous": false,
      "inputs": [],
      "name": "EIP712DomainChanged",
      "type": "event"
    },
    {
      "anonymous": false,
      "inputs": [
        {
          "indexed": true,
          "internalType": "uint256",
          "name": "id",
          "type": "uint256"
        },
        {
          "indexed": false,
          "internalType": "enum VotingFactory.ElectionType",
          "name": "electionType",
          "type": "uint8"
        },
        {
          "indexed": false,
          "internalType": "string",
          "name": "name",
          "type": "string"
        },
        {
          "indexed": false,
          "internalType": "address",
          "name": "contractAddress",
          "type": "address"
        },
        {
          "indexed": false,
          "internalType": "address",
          "name": "creator",
          "type": "address"
        }
      ],
      "name": "ElectionCreated",
      "type": "event"
    },
    {
      "inputs": [],
      "name": "PRIVATE_ELECTION_TYPEHASH",
      "outputs": [
        {
          "internalType": "bytes32",
          "name": "",
          "type": "bytes32"
        }
      ],
      "stateMutability": "view",
      "type": "function"
    },
    {
      "inputs": [],
      "name": "PUBLIC_ELECTION_TYPEHASH",
      "outputs": [
        {
          "internalType": "bytes32",
          "name": "",
          "type": "bytes32"
        }
      ],
      "stateMutability": "view",
      "type": "function"
    },
    {
      "inputs": [],
      "name": "admin",
      "outputs": [
        {
          "internalType": "address",
          "name": "",
          "type": "address"
        }
      ],
      "stateMutability": "view",
      "type": "function"
    },
    {
      "inputs": [
        {
          "internalType": "string",
          "name": "name",
          "type": "string"
        },
        {
          "internalType": "string[]",
          "name": "candidateNames",
          "type": "string[]"
        },
        {
          "internalType": "uint256",
          "name": "_voterLimit",
          "type": "uint256"
        },
        {
          "internalType": "bool",
          "name": "_startImmediately",
          "type": "bool"
        }
      ],
      "name": "createPrivateElection",
      "outputs": [
        {
          "internalType": "address",
          "name": "",
          "type": "address"
        }
      ],
      "stateMutability": "nonpayable",
      "type": "function"
    },
    {
      "inputs": [
        {
          "internalType": "string",
          "name": "name",
          "type": "string"
        },
        {
          "internalType": "bool",
          "name": "_startImmediately",
          "type": "bool"
        },
        {
          "internalType": "uint256",
          "name": "_voterLimit",
          "type": "uint256"
        },
        {
          "internalType": "address",
          "name": "_creator",
          "type": "address"
        },
        {
          "internalType": "string[]",
          "name": "candidateNames",
          "type": "string[]"
        },
        {
          "internalType": "bytes",
          "name": "signature",
          "type": "bytes"
        }
      ],
      "name": "createPrivateElectionWithSignature",
      "outputs": [
        {
          "internalType": "address",
          "name": "",
          "type": "address"
        }
      ],
      "stateMutability": "nonpayable",
      "type": "function"
    },
    {
      "inputs": [
        {
          "internalType": "string",
          "name": "name",
          "type": "string"
        },
        {
          "internalType": "string[]",
          "name": "candidateNames",
          "type": "string[]"
        },
        {
          "internalType": "uint256",
          "name": "_voterLimit",
          "type": "uint256"
        },
        {
          "internalType": "bool",
          "name": "_startImmediately",
          "type": "bool"
        }
      ],
      "name": "createPublicElection",
      "outputs": [
        {
          "internalType": "address",
          "name": "",
          "type": "address"
        }
      ],
      "stateMutability": "nonpayable",
      "type": "function"
    },
    {
      "inputs": [
        {
          "internalType": "string",
          "name": "name",
          "type": "string"
        },
        {
          "internalType": "bool",
          "name": "_startImmediately",
          "type": "bool"
        },
        {
          "internalType": "uint256",
          "name": "_voterLimit",
          "type": "uint256"
        },
        {
          "internalType": "address",
          "name": "_creator",
          "type": "address"
        },
        {
          "internalType": "string[]",
          "name": "candidateNames",
          "type": "string[]"
        },
        {
          "internalType": "bytes",
          "name": "signature",
          "type": "bytes"
        }
      ],
      "name": "createPublicElectionWithSignature",
      "outputs": [
        {
          "internalType": "address",
          "name": "",
          "type": "address"
        }
      ],
      "stateMutability": "nonpayable",
      "type": "function"
    },
    {
      "inputs": [],
      "name": "eip712Domain",
      "outputs": [
        {
          "internalType": "bytes1",
          "name": "fields",
          "type": "bytes1"
        },
        {
          "internalType": "string",
          "name": "name",
          "type": "string"
        },
        {
          "internalType": "string",
          "name": "version",
          "type": "string"
        },
        {
          "internalType": "uint256",
          "name": "chainId",
          "type": "uint256"
        },
        {
          "internalType": "address",
          "name": "verifyingContract",
          "type": "address"
        },
        {
          "internalType": "bytes32",
          "name": "salt",
          "type": "bytes32"
        },
        {
          "internalType": "uint256[]",
          "name": "extensions",
          "type": "uint256[]"
        }
      ],
      "stateMutability": "view",
      "type": "function"
    },
    {
      "inputs": [],
      "name": "electionCounter",
      "outputs": [
        {
          "internalType": "uint256",
          "name": "",
          "type": "uint256"
        }
      ],
      "stateMutability": "view",
      "type": "function"
    },
    {
      "inputs": [
        {
          "internalType": "uint256",
          "name": "",
          "type": "uint256"
        }
      ],
      "name": "elections",
      "outputs": [
        {
          "internalType": "address",
          "name": "contractAddress",
          "type": "address"
        },
        {
          "internalType": "enum VotingFactory.ElectionType",
          "name": "electionType",
          "type": "uint8"
        },
        {
          "internalType": "string",
          "name": "name",
          "type": "string"
        },
        {
          "internalType": "address",
          "name": "creator",
          "type": "address"
        }
      ],
      "stateMutability": "view",
      "type": "function"
    },
    {
      "inputs": [],
      "name": "getActiveElections",
      "outputs": [
        {
          "components": [
            {
              "components": [
                {
                  "internalType": "uint256",
                  "name": "id",
                  "type": "uint256"
                },
                {
                  "internalType": "string",
                  "name": "name",
                  "type": "string"
                },
                {
                  "internalType": "uint256",
                  "name": "startTime",
                  "type": "uint256"
                },
                {
                  "internalType": "uint256",
                  "name": "endTime",
                  "type": "uint256"
                },
                {
                  "internalType": "address",
                  "name": "creator",
                  "type": "address"
                },
                {
                  "internalType": "bool",
                  "name": "isActive",
                  "type": "bool"
                },
                {
                  "internalType": "bool",
                  "name": "startedManually",
                  "type": "bool"
                },
                {
                  "internalType": "bool",
                  "name": "endedManually",
                  "type": "bool"
                },
                {
                  "internalType": "uint256",
                  "name": "candidateCount",
                  "type": "uint256"
                },
                {
                  "internalType": "uint256",
                  "name": "voterLimit",
                  "type": "uint256"
                },
                {
                  "components": [
                    {
                      "internalType": "uint256",
                      "name": "id",
                      "type": "uint256"
                    },
                    {
                      "internalType": "string",
                      "name": "name",
                      "type": "string"
                    },
                    {
                      "internalType": "uint256",
                      "name": "voteCount",
                      "type": "uint256"
                    }
                  ],
                  "internalType": "struct ElectionMetadata.CandidateView[]",
                  "name": "candidates",
                  "type": "tuple[]"
                }
              ],
              "internalType": "struct ElectionMetadata.ElectionWithCandidates",
              "name": "coreData",
              "type": "tuple"
            },
            {
              "internalType": "enum VotingFactory.ElectionType",
              "name": "electionType",
              "type": "uint8"
            },
            {
              "internalType": "address",
              "name": "contractAddress",
              "type": "address"
            }
          ],
          "internalType": "struct VotingFactory.FullElectionInfo[]",
          "name": "",
          "type": "tuple[]"
        }
      ],
      "stateMutability": "view",
      "type": "function"
    },
    {
      "inputs": [],
      "name": "getAllElections",
      "outputs": [
        {
          "components": [
            {
              "components": [
                {
                  "internalType": "uint256",
                  "name": "id",
                  "type": "uint256"
                },
                {
                  "internalType": "string",
                  "name": "name",
                  "type": "string"
                },
                {
                  "internalType": "uint256",
                  "name": "startTime",
                  "type": "uint256"
                },
                {
                  "internalType": "uint256",
                  "name": "endTime",
                  "type": "uint256"
                },
                {
                  "internalType": "address",
                  "name": "creator",
                  "type": "address"
                },
                {
                  "internalType": "bool",
                  "name": "isActive",
                  "type": "bool"
                },
                {
                  "internalType": "bool",
                  "name": "startedManually",
                  "type": "bool"
                },
                {
                  "internalType": "bool",
                  "name": "endedManually",
                  "type": "bool"
                },
                {
                  "internalType": "uint256",
                  "name": "candidateCount",
                  "type": "uint256"
                },
                {
                  "internalType": "uint256",
                  "name": "voterLimit",
                  "type": "uint256"
                },
                {
                  "components": [
                    {
                      "internalType": "uint256",
                      "name": "id",
                      "type": "uint256"
                    },
                    {
                      "internalType": "string",
                      "name": "name",
                      "type": "string"
                    },
                    {
                      "internalType": "uint256",
                      "name": "voteCount",
                      "type": "uint256"
                    }
                  ],
                  "internalType": "struct ElectionMetadata.CandidateView[]",
                  "name": "candidates",
                  "type": "tuple[]"
                }
              ],
              "internalType": "struct ElectionMetadata.ElectionWithCandidates",
              "name": "coreData",
              "type": "tuple"
            },
            {
              "internalType": "enum VotingFactory.ElectionType",
              "name": "electionType",
              "type": "uint8"
            },
            {
              "internalType": "address",
              "name": "contractAddress",
              "type": "address"
            }
          ],
          "internalType": "struct VotingFactory.FullElectionInfo[]",
          "name": "",
          "type": "tuple[]"
        }
      ],
      "stateMutability": "view",
      "type": "function"
    },
    {
      "inputs": [
        {
          "internalType": "uint256",
          "name": "id",
          "type": "uint256"
        }
      ],
      "name": "getElection",
      "outputs": [
        {
          "components": [
            {
              "components": [
                {
                  "internalType": "uint256",
                  "name": "id",
                  "type": "uint256"
                },
                {
                  "internalType": "string",
                  "name": "name",
                  "type": "string"
                },
                {
                  "internalType": "uint256",
                  "name": "startTime",
                  "type": "uint256"
                },
                {
                  "internalType": "uint256",
                  "name": "endTime",
                  "type": "uint256"
                },
                {
                  "internalType": "address",
                  "name": "creator",
                  "type": "address"
                },
                {
                  "internalType": "bool",
                  "name": "isActive",
                  "type": "bool"
                },
                {
                  "internalType": "bool",
                  "name": "startedManually",
                  "type": "bool"
                },
                {
                  "internalType": "bool",
                  "name": "endedManually",
                  "type": "bool"
                },
                {
                  "internalType": "uint256",
                  "name": "candidateCount",
                  "type": "uint256"
                },
                {
                  "internalType": "uint256",
                  "name": "voterLimit",
                  "type": "uint256"
                },
                {
                  "components": [
                    {
                      "internalType": "uint256",
                      "name": "id",
                      "type": "uint256"
                    },
                    {
                      "internalType": "string",
                      "name": "name",
                      "type": "string"
                    },
                    {
                      "internalType": "uint256",
                      "name": "voteCount",
                      "type": "uint256"
                    }
                  ],
                  "internalType": "struct ElectionMetadata.CandidateView[]",
                  "name": "candidates",
                  "type": "tuple[]"
                }
              ],
              "internalType": "struct ElectionMetadata.ElectionWithCandidates",
              "name": "coreData",
              "type": "tuple"
            },
            {
              "internalType": "enum VotingFactory.ElectionType",
              "name": "electionType",
              "type": "uint8"
            },
            {
              "internalType": "address",
              "name": "contractAddress",
              "type": "address"
            }
          ],
          "internalType": "struct VotingFactory.FullElectionInfo",
          "name": "",
          "type": "tuple"
        }
      ],
      "stateMutability": "view",
      "type": "function"
    },
    {
      "inputs": [
        {
          "internalType": "address",
          "name": "addr",
          "type": "address"
        }
      ],
      "name": "getElectionByAddress",
      "outputs": [
        {
          "components": [
            {
              "components": [
                {
                  "internalType": "uint256",
                  "name": "id",
                  "type": "uint256"
                },
                {
                  "internalType": "string",
                  "name": "name",
                  "type": "string"
                },
                {
                  "internalType": "uint256",
                  "name": "startTime",
                  "type": "uint256"
                },
                {
                  "internalType": "uint256",
                  "name": "endTime",
                  "type": "uint256"
                },
                {
                  "internalType": "address",
                  "name": "creator",
                  "type": "address"
                },
                {
                  "internalType": "bool",
                  "name": "isActive",
                  "type": "bool"
                },
                {
                  "internalType": "bool",
                  "name": "startedManually",
                  "type": "bool"
                },
                {
                  "internalType": "bool",
                  "name": "endedManually",
                  "type": "bool"
                },
                {
                  "internalType": "uint256",
                  "name": "candidateCount",
                  "type": "uint256"
                },
                {
                  "internalType": "uint256",
                  "name": "voterLimit",
                  "type": "uint256"
                },
                {
                  "components": [
                    {
                      "internalType": "uint256",
                      "name": "id",
                      "type": "uint256"
                    },
                    {
                      "internalType": "string",
                      "name": "name",
                      "type": "string"
                    },
                    {
                      "internalType": "uint256",
                      "name": "voteCount",
                      "type": "uint256"
                    }
                  ],
                  "internalType": "struct ElectionMetadata.CandidateView[]",
                  "name": "candidates",
                  "type": "tuple[]"
                }
              ],
              "internalType": "struct ElectionMetadata.ElectionWithCandidates",
              "name": "coreData",
              "type": "tuple"
            },
            {
              "internalType": "enum VotingFactory.ElectionType",
              "name": "electionType",
              "type": "uint8"
            },
            {
              "internalType": "address",
              "name": "contractAddress",
              "type": "address"
            }
          ],
          "internalType": "struct VotingFactory.FullElectionInfo",
          "name": "",
          "type": "tuple"
        }
      ],
      "stateMutability": "view",
      "type": "function"
    },
    {
      "inputs": [
        {
          "internalType": "uint256[]",
          "name": "ids",
          "type": "uint256[]"
        }
      ],
      "name": "getElectionsByIds",
      "outputs": [
        {
          "components": [
            {
              "components": [
                {
                  "internalType": "uint256",
                  "name": "id",
                  "type": "uint256"
                },
                {
                  "internalType": "string",
                  "name": "name",
                  "type": "string"
                },
                {
                  "internalType": "uint256",
                  "name": "startTime",
                  "type": "uint256"
                },
                {
                  "internalType": "uint256",
                  "name": "endTime",
                  "type": "uint256"
                },
                {
                  "internalType": "address",
                  "name": "creator",
                  "type": "address"
                },
                {
                  "internalType": "bool",
                  "name": "isActive",
                  "type": "bool"
                },
                {
                  "internalType": "bool",
                  "name": "startedManually",
                  "type": "bool"
                },
                {
                  "internalType": "bool",
                  "name": "endedManually",
                  "type": "bool"
                },
                {
                  "internalType": "uint256",
                  "name": "candidateCount",
                  "type": "uint256"
                },
                {
                  "internalType": "uint256",
                  "name": "voterLimit",
                  "type": "uint256"
                },
                {
                  "components": [
                    {
                      "internalType": "uint256",
                      "name": "id",
                      "type": "uint256"
                    },
                    {
                      "internalType": "string",
                      "name": "name",
                      "type": "string"
                    },
                    {
                      "internalType": "uint256",
                      "name": "voteCount",
                      "type": "uint256"
                    }
                  ],
                  "internalType": "struct ElectionMetadata.CandidateView[]",
                  "name": "candidates",
                  "type": "tuple[]"
                }
              ],
              "internalType": "struct ElectionMetadata.ElectionWithCandidates",
              "name": "coreData",
              "type": "tuple"
            },
            {
              "internalType": "enum VotingFactory.ElectionType",
              "name": "electionType",
              "type": "uint8"
            },
            {
              "internalType": "address",
              "name": "contractAddress",
              "type": "address"
            }
          ],
          "internalType": "struct VotingFactory.FullElectionInfo[]",
          "name": "",
          "type": "tuple[]"
        }
      ],
      "stateMutability": "view",
      "type": "function"
    },
    {
      "inputs": [],
      "name": "getMyElections",
      "outputs": [
        {
          "components": [
            {
              "components": [
                {
                  "internalType": "uint256",
                  "name": "id",
                  "type": "uint256"
                },
                {
                  "internalType": "string",
                  "name": "name",
                  "type": "string"
                },
                {
                  "internalType": "uint256",
                  "name": "startTime",
                  "type": "uint256"
                },
                {
                  "internalType": "uint256",
                  "name": "endTime",
                  "type": "uint256"
                },
                {
                  "internalType": "address",
                  "name": "creator",
                  "type": "address"
                },
                {
                  "internalType": "bool",
                  "name": "isActive",
                  "type": "bool"
                },
                {
                  "internalType": "bool",
                  "name": "startedManually",
                  "type": "bool"
                },
                {
                  "internalType": "bool",
                  "name": "endedManually",
                  "type": "bool"
                },
                {
                  "internalType": "uint256",
                  "name": "candidateCount",
                  "type": "uint256"
                },
                {
                  "internalType": "uint256",
                  "name": "voterLimit",
                  "type": "uint256"
                },
                {
                  "components": [
                    {
                      "internalType": "uint256",
                      "name": "id",
                      "type": "uint256"
                    },
                    {
                      "internalType": "string",
                      "name": "name",
                      "type": "string"
                    },
                    {
                      "internalType": "uint256",
                      "name": "voteCount",
                      "type": "uint256"
                    }
                  ],
                  "internalType": "struct ElectionMetadata.CandidateView[]",
                  "name": "candidates",
                  "type": "tuple[]"
                }
              ],
              "internalType": "struct ElectionMetadata.ElectionWithCandidates",
              "name": "coreData",
              "type": "tuple"
            },
            {
              "internalType": "enum VotingFactory.ElectionType",
              "name": "electionType",
              "type": "uint8"
            },
            {
              "internalType": "address",
              "name": "contractAddress",
              "type": "address"
            }
          ],
          "internalType": "struct VotingFactory.FullElectionInfo[]",
          "name": "",
          "type": "tuple[]"
        }
      ],
      "stateMutability": "view",
      "type": "function"
    },
    {
      "inputs": [],
      "name": "privateElectionImpl",
      "outputs": [
        {
          "internalType": "address",
          "name": "",
          "type": "address"
        }
      ],
      "stateMutability": "view",
      "type": "function"
    },
    {
      "inputs": [],
      "name": "publicElectionImpl",
      "outputs": [
        {
          "internalType": "address",
          "name": "",
          "type": "address"
        }
      ],
      "stateMutability": "view",
      "type": "function"
    }
  ],
  "bytecode": "0x61016060405234801561001157600080fd5b506040516125c43803806125c4833981016040819052610030916101ef565b604080518082018252600d81526c566f74696e67466163746f727960981b602080830191909152825180840190935260018352603160f81b9083015290610078826000610159565b61012052610087816001610159565b61014052815160208084019190912060e052815190820120610100524660a05261011460e05161010051604080517f8b73c3c69bb8fe3d512ecc4cf759cc79239f7b179b0ffacaa9a75d522b39400f60208201529081019290925260608201524660808201523060a082015260009060c00160405160208183030381529060405280519060200120905090565b60805250503060c052600280546001600160a01b03199081163317909155600380546001600160a01b03948516908316179055600480549290931691161790556103f1565b60006020835110156101755761016e8361018c565b9050610186565b8161018084826102c1565b5060ff90505b92915050565b600080829050601f815111156101c0578260405163305a27a960e01b81526004016101b7919061037f565b60405180910390fd5b80516101cb826103cd565b179392505050565b80516001600160a01b03811681146101ea57600080fd5b919050565b6000806040838503121561020257600080fd5b61020b836101d3565b9150610219602084016101d3565b90509250929050565b634e487b7160e01b600052604160045260246000fd5b600181811c9082168061024c57607f821691505b60208210810361026c57634e487b7160e01b600052602260045260246000fd5b50919050565b601f8211156102bc57806000526020600020601f840160051c810160208510156102995750805b601f840160051c820191505b818110156102b957600081556001016102a5565b50505b505050565b81516001600160401b038111156102da576102da610222565b6102ee816102e88454610238565b84610272565b6020601f821160018114610322576000831561030a5750848201515b600019600385901b1c1916600184901b1784556102b9565b600084815260208120601f198516915b828110156103525787850151825560209485019460019092019101610332565b50848210156103705786840151600019600387901b60f8161c191681555b50505050600190811b01905550565b602081526000825180602084015260005b818110156103ad5760208186018101516040868401015201610390565b506000604082850101526040601f19601f83011684010191505092915050565b8051602080830151919081101561026c5760001960209190910360031b1b16919050565b60805160a05160c05160e05161010051610120516101405161217961044b6000396000610f0701526000610ed501526000611116015260006110ee01526000611049015260006110730152600061109d01526121796000f3fe608060405234801561001057600080fd5b50600436106100f65760003560e01c806384b0196e1161009257806384b0196e146101e15780638a3b63b0146101fc5780639d71077714610204578063c17682ed14610217578063c4315c0f1461022a578063cd13088f14610144578063e6c7d0851461023d578063f851a44014610250578063fc4912cb1461026357600080fd5b806301786e7f146100fb578063079a0d871461011957806318df3a851461014457806328293101146101675780635e6fef011461017a578063600bb84c1461019d57806361e37417146101b0578063666255c7146101b95780637fd5f268146101d9575b600080fd5b610103610276565b604051610110919061169f565b60405180910390f35b61012c6101273660046118da565b6103e7565b6040516001600160a01b039091168152602001610110565b61015960008051602061212483398151915281565b604051908152602001610110565b60045461012c906001600160a01b031681565b61018d61018836600461195d565b610401565b6040516101109493929190611976565b6101036101ab3660046119be565b6104cb565b61015960055481565b6101cc6101c7366004611a68565b610641565b6040516101109190611a85565b6101036106d2565b6101e961076d565b6040516101109796959493929190611a98565b6101036107b3565b6101cc61021236600461195d565b610989565b60035461012c906001600160a01b031681565b61012c610238366004611b30565b6109f0565b61012c61024b366004611b30565b610aa2565b60025461012c906001600160a01b031681565b61012c6102713660046118da565b610b46565b606060006005546001600160401b0381111561029457610294611704565b6040519080825280602002602001820160405280156102cd57816020015b6102ba611433565b8152602001906001900390816102b25790505b5090506000805b60055481101561033e57600081815260066020526040902060020154336001600160a01b03909116036103365761030a81610b57565b83838151811061031c5761031c611c03565b6020026020010181905250818061033290611c19565b9250505b6001016102d4565b506000816001600160401b0381111561035957610359611704565b60405190808252806020026020018201604052801561039257816020015b61037f611433565b8152602001906001900390816103775790505b50905060005b828110156103df578381815181106103b2576103b2611c03565b60200260200101518282815181106103cc576103cc611c03565b6020908102919091010152600101610398565b509392505050565b60006103f885858585336001610c39565b95945050505050565b600660205260009081526040902080546001820180546001600160a01b03831693600160a01b90930460ff1692919061043990611c40565b80601f016020809104026020016040519081016040528092919081815260200182805461046590611c40565b80156104b25780601f10610487576101008083540402835291602001916104b2565b820191906000526020600020905b81548152906001019060200180831161049557829003601f168201915b505050600290930154919250506001600160a01b031684565b6060600082516001600160401b038111156104e8576104e8611704565b60405190808252806020026020018201604052801561052157816020015b61050e611433565b8152602001906001900390816105065790505b5090506000805b845181101561059757600085828151811061054557610545611c03565b6020026020010151905060055481101561058e5761056281610b57565b84848151811061057457610574611c03565b6020026020010181905250828061058a90611c19565b9350505b50600101610528565b506000816001600160401b038111156105b2576105b2611704565b6040519080825280602002602001820160405280156105eb57816020015b6105d8611433565b8152602001906001900390816105d05790505b50905060005b828110156106385783818151811061060b5761060b611c03565b602002602001015182828151811061062557610625611c03565b60209081029190910101526001016105f1565b50949350505050565b610649611433565b60005b60055481101561068f576000818152600660205260409020546001600160a01b038085169116036106875761068081610b57565b9392505050565b60010161064c565b5060405162461bcd60e51b8152602060048201526012602482015271115b1958dd1a5bdb881b9bdd08199bdd5b9960721b60448201526064015b60405180910390fd5b606060006005546001600160401b038111156106f0576106f0611704565b60405190808252806020026020018201604052801561072957816020015b610716611433565b81526020019060019003908161070e5790505b50905060005b6005548110156107675761074281610b57565b82828151811061075457610754611c03565b602090810291909101015260010161072f565b50919050565b600060608060008060006060610781610ece565b610789610f00565b60408051600080825260208201909252600f60f81b9b939a50919850469750309650945092509050565b60606000805b60055481101561085a57600081815260066020526040808220548151633c17662160e21b815291516001600160a01b039091169263f05d988492600480820193918290030181865afa158015610813573d6000803e3d6000fd5b505050506040513d6000823e601f3d908101601f1916820160405261083b9190810190611daf565b60a0015115610852578161084e81611c19565b9250505b6001016107b9565b506000816001600160401b0381111561087557610875611704565b6040519080825280602002602001820160405280156108ae57816020015b61089b611433565b8152602001906001900390816108935790505b5090506000805b60055481101561098057600081815260066020526040808220548151633c17662160e21b815291516001600160a01b0390911692839263f05d988492600480830193928290030181865afa158015610911573d6000803e3d6000fd5b505050506040513d6000823e601f3d908101601f191682016040526109399190810190611daf565b60a00151156109775761094b82610b57565b84848151811061095d5761095d611c03565b6020026020010181905250828061097390611c19565b9350505b506001016108b5565b50909392505050565b610991611433565b60055482108061099f575060015b6109e15760405162461bcd60e51b8152602060048201526013602482015272125b9d985b1a5908195b1958dd1a5bdb881251606a1b60448201526064016106c9565b6109ea82610b57565b92915050565b6000806000805160206121248339815191528880519060200120888888604051602001610a21959493929190611ec4565b6040516020818303038152906040528051906020012090506000610a4482610f2d565b90506000610a528286610f5a565b9050866001600160a01b0316816001600160a01b031614610a855760405162461bcd60e51b81526004016106c990611ef0565b610a948a878a8c8b6000610c39565b9a9950505050505050505050565b6000806000805160206121248339815191528880519060200120888888604051602001610ad3959493929190611ec4565b6040516020818303038152906040528051906020012090506000610af682610f2d565b90506000610b048286610f5a565b9050866001600160a01b0316816001600160a01b031614610b375760405162461bcd60e51b81526004016106c990611ef0565b610a948a878a8c8b6001610c39565b60006103f885858585336000610c39565b610b5f611433565b600082815260066020526040808220548151633c17662160e21b815291516001600160a01b039091169291839163f05d98849160048082019286929091908290030181865afa158015610bb6573d6000803e3d6000fd5b505050506040513d6000823e601f3d908101601f19168201604052610bde9190810190611daf565b60408051606081018252828152600087815260066020908152929020549293509190820190600160a01b900460ff166001811115610c1e57610c1e611578565b8152602001836001600160a01b031681525092505050919050565b6000808080846001811115610c5057610c50611578565b03610ce857600354610c6a906001600160a01b0316610f84565b600254600554604051637d474ea960e01b81529294506001600160a01b0380861693637d474ea993610cad938f938f938d9390911691908f908f90600401611f1b565b600060405180830381600087803b158015610cc757600080fd5b505af1158015610cdb573d6000803e3d6000fd5b5050505060009050610d90565b6001846001811115610cfc57610cfc611578565b03610d9057600454610d16906001600160a01b0316610f84565b600254600554604051637d474ea960e01b81529294506001600160a01b0380861693637d474ea993610d59938f938f938d9390911691908f908f90600401611f1b565b600060405180830381600087803b158015610d7357600080fd5b505af1158015610d87573d6000803e3d6000fd5b50505050600190505b6040518060800160405280836001600160a01b03168152602001826001811115610dbc57610dbc611578565b815260208082018c90526001600160a01b03808916604093840152600554600090815260068352929092208351815493166001600160a01b0319841681178255918401519092909183916001600160a81b03191617600160a01b836001811115610e2857610e28611578565b021790555060408201516001820190610e419082612024565b5060609190910151600290910180546001600160a01b0319166001600160a01b039092169190911790556005546040517f71d2a462ef2d8f45fe68435493f11b32507e6468b8aa28c3589fc7a57299f6d990610ea49084908d9087908b906120e2565b60405180910390a260058054906000610ebc83611c19565b90915550919998505050505050505050565b6060610efb7f00000000000000000000000000000000000000000000000000000000000000006000610f91565b905090565b6060610efb7f00000000000000000000000000000000000000000000000000000000000000006001610f91565b60006109ea610f3a61103c565b8360405161190160f01b8152600281019290925260228201526042902090565b600080600080610f6a8686611167565b925092509250610f7a82826111b4565b5090949350505050565b60006109ea826000611271565b606060ff8314610fab57610fa483611307565b90506109ea565b818054610fb790611c40565b80601f0160208091040260200160405190810160405280929190818152602001828054610fe390611c40565b80156110305780601f1061100557610100808354040283529160200191611030565b820191906000526020600020905b81548152906001019060200180831161101357829003601f168201915b505050505090506109ea565b6000306001600160a01b037f00000000000000000000000000000000000000000000000000000000000000001614801561109557507f000000000000000000000000000000000000000000000000000000000000000046145b156110bf57507f000000000000000000000000000000000000000000000000000000000000000090565b610efb604080517f8b73c3c69bb8fe3d512ecc4cf759cc79239f7b179b0ffacaa9a75d522b39400f60208201527f0000000000000000000000000000000000000000000000000000000000000000918101919091527f000000000000000000000000000000000000000000000000000000000000000060608201524660808201523060a082015260009060c00160405160208183030381529060405280519060200120905090565b600080600083516041036111a15760208401516040850151606086015160001a61119388828585611346565b9550955095505050506111ad565b50508151600091506002905b9250925092565b60008260038111156111c8576111c8611578565b036111d1575050565b60018260038111156111e5576111e5611578565b036112035760405163f645eedf60e01b815260040160405180910390fd5b600282600381111561121757611217611578565b036112385760405163fce698f760e01b8152600481018290526024016106c9565b600382600381111561124c5761124c611578565b0361126d576040516335e2f38360e21b8152600481018290526024016106c9565b5050565b60008147101561129d5760405163cf47918160e01b8152476004820152602481018390526044016106c9565b763d602d80600a3d3981f3363d3d373d3d3d363d730000008360601b60e81c176000526e5af43d82803e903d91602b57fd5bf38360781b176020526037600983f090506001600160a01b0381166109ea5760405163b06ebf3d60e01b815260040160405180910390fd5b606060006113148361140b565b604080516020808252818301909252919250600091906020820181803683375050509182525060208101929092525090565b600080806fa2a8918ca85bafe22016d0b997e4df60600160ff1b038411156113775750600091506003905082611401565b604080516000808252602082018084528a905260ff891692820192909252606081018790526080810186905260019060a0016020604051602081039080840390855afa1580156113cb573d6000803e3d6000fd5b5050604051601f1901519150506001600160a01b0381166113f757506000925060019150829050611401565b9250600091508190505b9450945094915050565b600060ff8216601f8111156109ea57604051632cd44ac360e21b815260040160405180910390fd5b604080516101c08101909152600060608083018281526080840182905260a0840183905260c0840183905260e0840183905261010084018390526101208401839052610140840183905261016084018390526101808401929092526101a08301528190815260200160008152600060209091015290565b60005b838110156114c55781810151838201526020016114ad565b50506000910152565b600081518084526114e68160208601602086016114aa565b601f01601f19169290920160200192915050565b600082825180855260208501945060208160051b8301016020850160005b8381101561156c57601f1985840301885281518051845260208101516060602086015261154860608601826114ce565b60409283015195909201949094526020988901989093509190910190600101611518565b50909695505050505050565b634e487b7160e01b600052602160045260246000fd5b600281106115ac57634e487b7160e01b600052602160045260246000fd5b9052565b600081516060845280516060850152602081015161016060808601526115da6101c08601826114ce565b9050604082015160a0860152606082015160c0860152608082015161160a60e08701826001600160a01b03169052565b5060a08201518015156101008701525060c08201518015156101208701525060e08201518015156101408701525061010082015161016086015261012082015161018086015261014090910151848203605f19016101a08601529061166f81836114fa565b9150506020830151611684602086018261158e565b5060408301516103df60408601826001600160a01b03169052565b6000602082016020835280845180835260408501915060408160051b86010192506020860160005b828110156116f857603f198786030184526116e38583516115b0565b945060209384019391909101906001016116c7565b50929695505050505050565b634e487b7160e01b600052604160045260246000fd5b604051606081016001600160401b038111828210171561173c5761173c611704565b60405290565b60405161016081016001600160401b038111828210171561173c5761173c611704565b604051601f8201601f191681016001600160401b038111828210171561178d5761178d611704565b604052919050565b60006001600160401b038211156117ae576117ae611704565b50601f01601f191660200190565b60006117cf6117ca84611795565b611765565b90508281528383830111156117e357600080fd5b828260208301376000602084830101529392505050565b600082601f83011261180b57600080fd5b610680838335602085016117bc565b60006001600160401b0382111561183357611833611704565b5060051b60200190565b600082601f83011261184e57600080fd5b813561185c6117ca8261181a565b8082825260208201915060208360051b86010192508583111561187e57600080fd5b602085015b838110156118bf5780356001600160401b038111156118a157600080fd5b6118b0886020838a01016117fa565b84525060209283019201611883565b5095945050505050565b80151581146118d757600080fd5b50565b600080600080608085870312156118f057600080fd5b84356001600160401b0381111561190657600080fd5b611912878288016117fa565b94505060208501356001600160401b0381111561192e57600080fd5b61193a8782880161183d565b935050604085013591506060850135611952816118c9565b939692955090935050565b60006020828403121561196f57600080fd5b5035919050565b6001600160a01b038516815261198f602082018561158e565b6080604082015260006119a560808301856114ce565b905060018060a01b038316606083015295945050505050565b6000602082840312156119d057600080fd5b81356001600160401b038111156119e657600080fd5b8201601f810184136119f757600080fd5b8035611a056117ca8261181a565b8082825260208201915060208360051b850101925086831115611a2757600080fd5b6020840193505b82841015611a49578335825260209384019390910190611a2e565b9695505050505050565b6001600160a01b03811681146118d757600080fd5b600060208284031215611a7a57600080fd5b813561068081611a53565b60208152600061068060208301846115b0565b60ff60f81b8816815260e060208201526000611ab760e08301896114ce565b8281036040840152611ac981896114ce565b606084018890526001600160a01b038716608085015260a0840186905283810360c08501528451808252602080870193509091019060005b81811015611b1f578351835260209384019390920191600101611b01565b50909b9a5050505050505050505050565b60008060008060008060c08789031215611b4957600080fd5b86356001600160401b03811115611b5f57600080fd5b611b6b89828a016117fa565b9650506020870135611b7c816118c9565b9450604087013593506060870135611b9381611a53565b925060808701356001600160401b03811115611bae57600080fd5b611bba89828a0161183d565b92505060a08701356001600160401b03811115611bd657600080fd5b8701601f81018913611be757600080fd5b611bf6898235602084016117bc565b9150509295509295509295565b634e487b7160e01b600052603260045260246000fd5b600060018201611c3957634e487b7160e01b600052601160045260246000fd5b5060010190565b600181811c90821680611c5457607f821691505b60208210810361076757634e487b7160e01b600052602260045260246000fd5b600082601f830112611c8557600080fd5b8151611c936117ca82611795565b818152846020838601011115611ca857600080fd5b611cb98260208301602087016114aa565b949350505050565b8051611ccc81611a53565b919050565b8051611ccc816118c9565b600082601f830112611ced57600080fd5b8151611cfb6117ca8261181a565b8082825260208201915060208360051b860101925085831115611d1d57600080fd5b602085015b838110156118bf5780516001600160401b03811115611d4057600080fd5b86016060818903601f19011215611d5657600080fd5b611d5e61171a565b6020820151815260408201516001600160401b03811115611d7e57600080fd5b611d8d8a602083860101611c74565b6020838101919091526060939093015160408301525084529283019201611d22565b600060208284031215611dc157600080fd5b81516001600160401b03811115611dd757600080fd5b82016101608185031215611dea57600080fd5b611df2611742565b8151815260208201516001600160401b03811115611e0f57600080fd5b611e1b86828501611c74565b6020830152506040828101519082015260608083015190820152611e4160808301611cc1565b6080820152611e5260a08301611cd1565b60a0820152611e6360c08301611cd1565b60c0820152611e7460e08301611cd1565b60e0820152610100828101519082015261012080830151908201526101408201516001600160401b03811115611ea957600080fd5b611eb586828501611cdc565b61014083015250949350505050565b9485526020850193909352901515604084015260608301526001600160a01b0316608082015260a00190565b602080825260119082015270496e76616c6964207369676e617475726560781b604082015260600190565b60e081526000611f2e60e083018a6114ce565b828103602084015280895180835260208301915060208160051b84010160208c0160005b83811015611f8457601f19868403018552611f6e8383516114ce565b6020958601959093509190910190600101611f52565b50506001600160a01b038b1660408701529350611fa092505050565b6001600160a01b03861660608301528460808301528360a0830152611fc960c083018415159052565b98975050505050505050565b601f82111561201f57806000526020600020601f840160051c81016020851015611ffc5750805b601f840160051c820191505b8181101561201c5760008155600101612008565b50505b505050565b81516001600160401b0381111561203d5761203d611704565b6120518161204b8454611c40565b84611fd5565b6020601f821160018114612085576000831561206d5750848201515b600019600385901b1c1916600184901b17845561201c565b600084815260208120601f198516915b828110156120b55787850151825560209485019460019092019101612095565b50848210156120d35786840151600019600387901b60f8161c191681555b50505050600190811b01905550565b6120ec818661158e565b60806020820152600061210260808301866114ce565b6001600160a01b03948516604084015292909316606090910152939250505056fec01c9b1d6a80d8bb2e7cf5ca4b339fda2ea6d9ea14e961bc26ad4e24b8215784a264697066735822122044dcbf396146415c32e4d56280644855cf38c193f1191b171e552a2b0c1a790364736f6c634300081c0033",
  "linkReferences": {},
  "deployedLinkReferences": {}
}