{
  "_format": "hh-sol-artifact-1",
  "contractName": "VotingFactory",
  "sourceName": "contracts/VotingFactory.sol",
  "abi": [
    {
      "inputs": [
        {
          "internalType": "address",
          "name": "_publicElectionImpl",
          "type": "address"
        },
        {
          "internalType": "address",
          "name": "_privateElectionImpl",
          "type": "address"
        }
      ],
      "stateMutability": "nonpayable",
      "type": "constructor"
    },
    {
      "inputs": [],
      "name": "ECDSAInvalidSignature",
      "type": "error"
    },
    {
      "inputs": [
        {
          "internalType": "uint256",
          "name": "length",
          "type": "uint256"
        }
      ],
      "name": "ECDSAInvalidSignatureLength",
      "type": "error"
    },
    {
      "inputs": [
        {
          "internalType": "bytes32",
          "name": "s",
          "type": "bytes32"
        }
      ],
      "name": "ECDSAInvalidSignatureS",
      "type": "error"
    },
    {
      "inputs": [],
      "name": "FailedDeployment",
      "type": "error"
    },
    {
      "inputs": [
        {
          "internalType": "uint256",
          "name": "balance",
          "type": "uint256"
        },
        {
          "internalType": "uint256",
          "name": "needed",
          "type": "uint256"
        }
      ],
      "name": "InsufficientBalance",
      "type": "error"
    },
    {
      "inputs": [],
      "name": "InvalidShortString",
      "type": "error"
    },
    {
      "inputs": [
        {
          "internalType": "string",
          "name": "str",
          "type": "string"
        }
      ],
      "name": "StringTooLong",
      "type": "error"
    },
    {
      "anonymous": false,
      "inputs": [],
      "name": "EIP712DomainChanged",
      "type": "event"
    },
    {
      "anonymous": false,
      "inputs": [
        {
          "indexed": true,
          "internalType": "uint256",
          "name": "id",
          "type": "uint256"
        },
        {
          "indexed": false,
          "internalType": "enum VotingFactory.ElectionType",
          "name": "electionType",
          "type": "uint8"
        },
        {
          "indexed": false,
          "internalType": "string",
          "name": "name",
          "type": "string"
        },
        {
          "indexed": false,
          "internalType": "address",
          "name": "contractAddress",
          "type": "address"
        },
        {
          "indexed": false,
          "internalType": "address",
          "name": "creator",
          "type": "address"
        }
      ],
      "name": "ElectionCreated",
      "type": "event"
    },
    {
      "inputs": [],
      "name": "PRIVATE_ELECTION_TYPEHASH",
      "outputs": [
        {
          "internalType": "bytes32",
          "name": "",
          "type": "bytes32"
        }
      ],
      "stateMutability": "view",
      "type": "function"
    },
    {
      "inputs": [],
      "name": "PUBLIC_ELECTION_TYPEHASH",
      "outputs": [
        {
          "internalType": "bytes32",
          "name": "",
          "type": "bytes32"
        }
      ],
      "stateMutability": "view",
      "type": "function"
    },
    {
      "inputs": [],
      "name": "admin",
      "outputs": [
        {
          "internalType": "address",
          "name": "",
          "type": "address"
        }
      ],
      "stateMutability": "view",
      "type": "function"
    },
    {
      "inputs": [
        {
          "internalType": "string",
          "name": "name",
          "type": "string"
        },
        {
          "internalType": "string[]",
          "name": "candidateNames",
          "type": "string[]"
        },
        {
          "internalType": "uint256",
          "name": "_voterLimit",
          "type": "uint256"
        },
        {
          "internalType": "bool",
          "name": "_startImmediately",
          "type": "bool"
        }
      ],
      "name": "createPrivateElection",
      "outputs": [
        {
          "internalType": "address",
          "name": "",
          "type": "address"
        }
      ],
      "stateMutability": "nonpayable",
      "type": "function"
    },
    {
      "inputs": [
        {
          "internalType": "string",
          "name": "name",
          "type": "string"
        },
        {
          "internalType": "bool",
          "name": "_startImmediately",
          "type": "bool"
        },
        {
          "internalType": "uint256",
          "name": "_voterLimit",
          "type": "uint256"
        },
        {
          "internalType": "address",
          "name": "_creator",
          "type": "address"
        },
        {
          "internalType": "string[]",
          "name": "candidateNames",
          "type": "string[]"
        },
        {
          "internalType": "bytes",
          "name": "signature",
          "type": "bytes"
        }
      ],
      "name": "createPrivateElectionWithSignature",
      "outputs": [
        {
          "internalType": "address",
          "name": "",
          "type": "address"
        }
      ],
      "stateMutability": "nonpayable",
      "type": "function"
    },
    {
      "inputs": [
        {
          "internalType": "string",
          "name": "name",
          "type": "string"
        },
        {
          "internalType": "string[]",
          "name": "candidateNames",
          "type": "string[]"
        },
        {
          "internalType": "uint256",
          "name": "_voterLimit",
          "type": "uint256"
        },
        {
          "internalType": "bool",
          "name": "_startImmediately",
          "type": "bool"
        }
      ],
      "name": "createPublicElection",
      "outputs": [
        {
          "internalType": "address",
          "name": "",
          "type": "address"
        }
      ],
      "stateMutability": "nonpayable",
      "type": "function"
    },
    {
      "inputs": [
        {
          "internalType": "string",
          "name": "name",
          "type": "string"
        },
        {
          "internalType": "bool",
          "name": "_startImmediately",
          "type": "bool"
        },
        {
          "internalType": "uint256",
          "name": "_voterLimit",
          "type": "uint256"
        },
        {
          "internalType": "address",
          "name": "_creator",
          "type": "address"
        },
        {
          "internalType": "string[]",
          "name": "candidateNames",
          "type": "string[]"
        },
        {
          "internalType": "bytes",
          "name": "signature",
          "type": "bytes"
        }
      ],
      "name": "createPublicElectionWithSignature",
      "outputs": [
        {
          "internalType": "address",
          "name": "",
          "type": "address"
        }
      ],
      "stateMutability": "nonpayable",
      "type": "function"
    },
    {
      "inputs": [],
      "name": "eip712Domain",
      "outputs": [
        {
          "internalType": "bytes1",
          "name": "fields",
          "type": "bytes1"
        },
        {
          "internalType": "string",
          "name": "name",
          "type": "string"
        },
        {
          "internalType": "string",
          "name": "version",
          "type": "string"
        },
        {
          "internalType": "uint256",
          "name": "chainId",
          "type": "uint256"
        },
        {
          "internalType": "address",
          "name": "verifyingContract",
          "type": "address"
        },
        {
          "internalType": "bytes32",
          "name": "salt",
          "type": "bytes32"
        },
        {
          "internalType": "uint256[]",
          "name": "extensions",
          "type": "uint256[]"
        }
      ],
      "stateMutability": "view",
      "type": "function"
    },
    {
      "inputs": [],
      "name": "electionCounter",
      "outputs": [
        {
          "internalType": "uint256",
          "name": "",
          "type": "uint256"
        }
      ],
      "stateMutability": "view",
      "type": "function"
    },
    {
      "inputs": [
        {
          "internalType": "uint256",
          "name": "",
          "type": "uint256"
        }
      ],
      "name": "elections",
      "outputs": [
        {
          "internalType": "address",
          "name": "contractAddress",
          "type": "address"
        },
        {
          "internalType": "enum VotingFactory.ElectionType",
          "name": "electionType",
          "type": "uint8"
        },
        {
          "internalType": "string",
          "name": "name",
          "type": "string"
        },
        {
          "internalType": "address",
          "name": "creator",
          "type": "address"
        }
      ],
      "stateMutability": "view",
      "type": "function"
    },
    {
      "inputs": [],
      "name": "getActiveElections",
      "outputs": [
        {
          "components": [
            {
              "components": [
                {
                  "internalType": "uint256",
                  "name": "id",
                  "type": "uint256"
                },
                {
                  "internalType": "string",
                  "name": "name",
                  "type": "string"
                },
                {
                  "internalType": "uint256",
                  "name": "startTime",
                  "type": "uint256"
                },
                {
                  "internalType": "uint256",
                  "name": "endTime",
                  "type": "uint256"
                },
                {
                  "internalType": "address",
                  "name": "creator",
                  "type": "address"
                },
                {
                  "internalType": "bool",
                  "name": "isActive",
                  "type": "bool"
                },
                {
                  "internalType": "bool",
                  "name": "startedManually",
                  "type": "bool"
                },
                {
                  "internalType": "bool",
                  "name": "endedManually",
                  "type": "bool"
                },
                {
                  "internalType": "uint256",
                  "name": "candidateCount",
                  "type": "uint256"
                },
                {
                  "internalType": "uint256",
                  "name": "voterLimit",
                  "type": "uint256"
                },
                {
                  "components": [
                    {
                      "internalType": "uint256",
                      "name": "id",
                      "type": "uint256"
                    },
                    {
                      "internalType": "string",
                      "name": "name",
                      "type": "string"
                    },
                    {
                      "internalType": "uint256",
                      "name": "voteCount",
                      "type": "uint256"
                    }
                  ],
                  "internalType": "struct ElectionMetadata.CandidateView[]",
                  "name": "candidates",
                  "type": "tuple[]"
                }
              ],
              "internalType": "struct ElectionMetadata.ElectionWithCandidates",
              "name": "coreData",
              "type": "tuple"
            },
            {
              "internalType": "enum VotingFactory.ElectionType",
              "name": "electionType",
              "type": "uint8"
            },
            {
              "internalType": "address",
              "name": "contractAddress",
              "type": "address"
            }
          ],
          "internalType": "struct VotingFactory.FullElectionInfo[]",
          "name": "",
          "type": "tuple[]"
        }
      ],
      "stateMutability": "view",
      "type": "function"
    },
    {
      "inputs": [],
      "name": "getAllElections",
      "outputs": [
        {
          "components": [
            {
              "components": [
                {
                  "internalType": "uint256",
                  "name": "id",
                  "type": "uint256"
                },
                {
                  "internalType": "string",
                  "name": "name",
                  "type": "string"
                },
                {
                  "internalType": "uint256",
                  "name": "startTime",
                  "type": "uint256"
                },
                {
                  "internalType": "uint256",
                  "name": "endTime",
                  "type": "uint256"
                },
                {
                  "internalType": "address",
                  "name": "creator",
                  "type": "address"
                },
                {
                  "internalType": "bool",
                  "name": "isActive",
                  "type": "bool"
                },
                {
                  "internalType": "bool",
                  "name": "startedManually",
                  "type": "bool"
                },
                {
                  "internalType": "bool",
                  "name": "endedManually",
                  "type": "bool"
                },
                {
                  "internalType": "uint256",
                  "name": "candidateCount",
                  "type": "uint256"
                },
                {
                  "internalType": "uint256",
                  "name": "voterLimit",
                  "type": "uint256"
                },
                {
                  "components": [
                    {
                      "internalType": "uint256",
                      "name": "id",
                      "type": "uint256"
                    },
                    {
                      "internalType": "string",
                      "name": "name",
                      "type": "string"
                    },
                    {
                      "internalType": "uint256",
                      "name": "voteCount",
                      "type": "uint256"
                    }
                  ],
                  "internalType": "struct ElectionMetadata.CandidateView[]",
                  "name": "candidates",
                  "type": "tuple[]"
                }
              ],
              "internalType": "struct ElectionMetadata.ElectionWithCandidates",
              "name": "coreData",
              "type": "tuple"
            },
            {
              "internalType": "enum VotingFactory.ElectionType",
              "name": "electionType",
              "type": "uint8"
            },
            {
              "internalType": "address",
              "name": "contractAddress",
              "type": "address"
            }
          ],
          "internalType": "struct VotingFactory.FullElectionInfo[]",
          "name": "",
          "type": "tuple[]"
        }
      ],
      "stateMutability": "view",
      "type": "function"
    },
    {
      "inputs": [
        {
          "internalType": "uint256",
          "name": "id",
          "type": "uint256"
        }
      ],
      "name": "getElection",
      "outputs": [
        {
          "components": [
            {
              "components": [
                {
                  "internalType": "uint256",
                  "name": "id",
                  "type": "uint256"
                },
                {
                  "internalType": "string",
                  "name": "name",
                  "type": "string"
                },
                {
                  "internalType": "uint256",
                  "name": "startTime",
                  "type": "uint256"
                },
                {
                  "internalType": "uint256",
                  "name": "endTime",
                  "type": "uint256"
                },
                {
                  "internalType": "address",
                  "name": "creator",
                  "type": "address"
                },
                {
                  "internalType": "bool",
                  "name": "isActive",
                  "type": "bool"
                },
                {
                  "internalType": "bool",
                  "name": "startedManually",
                  "type": "bool"
                },
                {
                  "internalType": "bool",
                  "name": "endedManually",
                  "type": "bool"
                },
                {
                  "internalType": "uint256",
                  "name": "candidateCount",
                  "type": "uint256"
                },
                {
                  "internalType": "uint256",
                  "name": "voterLimit",
                  "type": "uint256"
                },
                {
                  "components": [
                    {
                      "internalType": "uint256",
                      "name": "id",
                      "type": "uint256"
                    },
                    {
                      "internalType": "string",
                      "name": "name",
                      "type": "string"
                    },
                    {
                      "internalType": "uint256",
                      "name": "voteCount",
                      "type": "uint256"
                    }
                  ],
                  "internalType": "struct ElectionMetadata.CandidateView[]",
                  "name": "candidates",
                  "type": "tuple[]"
                }
              ],
              "internalType": "struct ElectionMetadata.ElectionWithCandidates",
              "name": "coreData",
              "type": "tuple"
            },
            {
              "internalType": "enum VotingFactory.ElectionType",
              "name": "electionType",
              "type": "uint8"
            },
            {
              "internalType": "address",
              "name": "contractAddress",
              "type": "address"
            }
          ],
          "internalType": "struct VotingFactory.FullElectionInfo",
          "name": "",
          "type": "tuple"
        }
      ],
      "stateMutability": "view",
      "type": "function"
    },
    {
      "inputs": [
        {
          "internalType": "address",
          "name": "addr",
          "type": "address"
        }
      ],
      "name": "getElectionByAddress",
      "outputs": [
        {
          "components": [
            {
              "components": [
                {
                  "components": [
                    {
                      "internalType": "uint256",
                      "name": "id",
                      "type": "uint256"
                    },
                    {
                      "internalType": "string",
                      "name": "name",
                      "type": "string"
                    },
                    {
                      "internalType": "uint256",
                      "name": "startTime",
                      "type": "uint256"
                    },
                    {
                      "internalType": "uint256",
                      "name": "endTime",
                      "type": "uint256"
                    },
                    {
                      "internalType": "address",
                      "name": "creator",
                      "type": "address"
                    },
                    {
                      "internalType": "bool",
                      "name": "isActive",
                      "type": "bool"
                    },
                    {
                      "internalType": "bool",
                      "name": "startedManually",
                      "type": "bool"
                    },
                    {
                      "internalType": "bool",
                      "name": "endedManually",
                      "type": "bool"
                    },
                    {
                      "internalType": "uint256",
                      "name": "candidateCount",
                      "type": "uint256"
                    },
                    {
                      "internalType": "uint256",
                      "name": "voterLimit",
                      "type": "uint256"
                    },
                    {
                      "components": [
                        {
                          "internalType": "uint256",
                          "name": "id",
                          "type": "uint256"
                        },
                        {
                          "internalType": "string",
                          "name": "name",
                          "type": "string"
                        },
                        {
                          "internalType": "uint256",
                          "name": "voteCount",
                          "type": "uint256"
                        }
                      ],
                      "internalType": "struct ElectionMetadata.CandidateView[]",
                      "name": "candidates",
                      "type": "tuple[]"
                    }
                  ],
                  "internalType": "struct ElectionMetadata.ElectionWithCandidates",
                  "name": "coreData",
                  "type": "tuple"
                },
                {
                  "internalType": "enum VotingFactory.ElectionType",
                  "name": "electionType",
                  "type": "uint8"
                },
                {
                  "internalType": "address",
                  "name": "contractAddress",
                  "type": "address"
                }
              ],
              "internalType": "struct VotingFactory.FullElectionInfo",
              "name": "fullInfo",
              "type": "tuple"
            },
            {
              "internalType": "bool",
              "name": "isCreator",
              "type": "bool"
            },
            {
              "internalType": "bool",
              "name": "hasVoted",
              "type": "bool"
            },
            {
              "internalType": "uint256[]",
              "name": "votedCandidateIds",
              "type": "uint256[]"
            }
          ],
          "internalType": "struct VotingFactory.UserElectionInfo",
          "name": "info",
          "type": "tuple"
        }
      ],
      "stateMutability": "view",
      "type": "function"
    },
    {
      "inputs": [
        {
          "internalType": "uint256[]",
          "name": "ids",
          "type": "uint256[]"
        }
      ],
      "name": "getElectionsByIds",
      "outputs": [
        {
          "components": [
            {
              "components": [
                {
                  "internalType": "uint256",
                  "name": "id",
                  "type": "uint256"
                },
                {
                  "internalType": "string",
                  "name": "name",
                  "type": "string"
                },
                {
                  "internalType": "uint256",
                  "name": "startTime",
                  "type": "uint256"
                },
                {
                  "internalType": "uint256",
                  "name": "endTime",
                  "type": "uint256"
                },
                {
                  "internalType": "address",
                  "name": "creator",
                  "type": "address"
                },
                {
                  "internalType": "bool",
                  "name": "isActive",
                  "type": "bool"
                },
                {
                  "internalType": "bool",
                  "name": "startedManually",
                  "type": "bool"
                },
                {
                  "internalType": "bool",
                  "name": "endedManually",
                  "type": "bool"
                },
                {
                  "internalType": "uint256",
                  "name": "candidateCount",
                  "type": "uint256"
                },
                {
                  "internalType": "uint256",
                  "name": "voterLimit",
                  "type": "uint256"
                },
                {
                  "components": [
                    {
                      "internalType": "uint256",
                      "name": "id",
                      "type": "uint256"
                    },
                    {
                      "internalType": "string",
                      "name": "name",
                      "type": "string"
                    },
                    {
                      "internalType": "uint256",
                      "name": "voteCount",
                      "type": "uint256"
                    }
                  ],
                  "internalType": "struct ElectionMetadata.CandidateView[]",
                  "name": "candidates",
                  "type": "tuple[]"
                }
              ],
              "internalType": "struct ElectionMetadata.ElectionWithCandidates",
              "name": "coreData",
              "type": "tuple"
            },
            {
              "internalType": "enum VotingFactory.ElectionType",
              "name": "electionType",
              "type": "uint8"
            },
            {
              "internalType": "address",
              "name": "contractAddress",
              "type": "address"
            }
          ],
          "internalType": "struct VotingFactory.FullElectionInfo[]",
          "name": "",
          "type": "tuple[]"
        }
      ],
      "stateMutability": "view",
      "type": "function"
    },
    {
      "inputs": [],
      "name": "getMyElections",
      "outputs": [
        {
          "components": [
            {
              "components": [
                {
                  "internalType": "uint256",
                  "name": "id",
                  "type": "uint256"
                },
                {
                  "internalType": "string",
                  "name": "name",
                  "type": "string"
                },
                {
                  "internalType": "uint256",
                  "name": "startTime",
                  "type": "uint256"
                },
                {
                  "internalType": "uint256",
                  "name": "endTime",
                  "type": "uint256"
                },
                {
                  "internalType": "address",
                  "name": "creator",
                  "type": "address"
                },
                {
                  "internalType": "bool",
                  "name": "isActive",
                  "type": "bool"
                },
                {
                  "internalType": "bool",
                  "name": "startedManually",
                  "type": "bool"
                },
                {
                  "internalType": "bool",
                  "name": "endedManually",
                  "type": "bool"
                },
                {
                  "internalType": "uint256",
                  "name": "candidateCount",
                  "type": "uint256"
                },
                {
                  "internalType": "uint256",
                  "name": "voterLimit",
                  "type": "uint256"
                },
                {
                  "components": [
                    {
                      "internalType": "uint256",
                      "name": "id",
                      "type": "uint256"
                    },
                    {
                      "internalType": "string",
                      "name": "name",
                      "type": "string"
                    },
                    {
                      "internalType": "uint256",
                      "name": "voteCount",
                      "type": "uint256"
                    }
                  ],
                  "internalType": "struct ElectionMetadata.CandidateView[]",
                  "name": "candidates",
                  "type": "tuple[]"
                }
              ],
              "internalType": "struct ElectionMetadata.ElectionWithCandidates",
              "name": "coreData",
              "type": "tuple"
            },
            {
              "internalType": "enum VotingFactory.ElectionType",
              "name": "electionType",
              "type": "uint8"
            },
            {
              "internalType": "address",
              "name": "contractAddress",
              "type": "address"
            }
          ],
          "internalType": "struct VotingFactory.FullElectionInfo[]",
          "name": "",
          "type": "tuple[]"
        }
      ],
      "stateMutability": "view",
      "type": "function"
    },
    {
      "inputs": [],
      "name": "privateElectionImpl",
      "outputs": [
        {
          "internalType": "address",
          "name": "",
          "type": "address"
        }
      ],
      "stateMutability": "view",
      "type": "function"
    },
    {
      "inputs": [],
      "name": "publicElectionImpl",
      "outputs": [
        {
          "internalType": "address",
          "name": "",
          "type": "address"
        }
      ],
      "stateMutability": "view",
      "type": "function"
    }
  ],
  "bytecode": "0x61016060405234801561001157600080fd5b506040516127b03803806127b0833981016040819052610030916101ef565b604080518082018252600d81526c566f74696e67466163746f727960981b602080830191909152825180840190935260018352603160f81b9083015290610078826000610159565b61012052610087816001610159565b61014052815160208084019190912060e052815190820120610100524660a05261011460e05161010051604080517f8b73c3c69bb8fe3d512ecc4cf759cc79239f7b179b0ffacaa9a75d522b39400f60208201529081019290925260608201524660808201523060a082015260009060c00160405160208183030381529060405280519060200120905090565b60805250503060c052600280546001600160a01b03199081163317909155600380546001600160a01b03948516908316179055600480549290931691161790556103f1565b60006020835110156101755761016e8361018c565b9050610186565b8161018084826102c1565b5060ff90505b92915050565b600080829050601f815111156101c0578260405163305a27a960e01b81526004016101b7919061037f565b60405180910390fd5b80516101cb826103cd565b179392505050565b80516001600160a01b03811681146101ea57600080fd5b919050565b6000806040838503121561020257600080fd5b61020b836101d3565b9150610219602084016101d3565b90509250929050565b634e487b7160e01b600052604160045260246000fd5b600181811c9082168061024c57607f821691505b60208210810361026c57634e487b7160e01b600052602260045260246000fd5b50919050565b601f8211156102bc57806000526020600020601f840160051c810160208510156102995750805b601f840160051c820191505b818110156102b957600081556001016102a5565b50505b505050565b81516001600160401b038111156102da576102da610222565b6102ee816102e88454610238565b84610272565b6020601f821160018114610322576000831561030a5750848201515b600019600385901b1c1916600184901b1784556102b9565b600084815260208120601f198516915b828110156103525787850151825560209485019460019092019101610332565b50848210156103705786840151600019600387901b60f8161c191681555b50505050600190811b01905550565b602081526000825180602084015260005b818110156103ad5760208186018101516040868401015201610390565b506000604082850101526040601f19601f83011684010191505092915050565b8051602080830151919081101561026c5760001960209190910360031b1b16919050565b60805160a05160c05160e05161010051610120516101405161236561044b6000396000610fde01526000610fac015260006111ed015260006111c5015260006111200152600061114a0152600061117401526123656000f3fe608060405234801561001057600080fd5b50600436106100f65760003560e01c806384b0196e1161009257806384b0196e146101e15780638a3b63b0146101fc5780639d71077714610204578063c17682ed14610224578063c4315c0f14610237578063cd13088f14610144578063e6c7d0851461024a578063f851a4401461025d578063fc4912cb1461027057600080fd5b806301786e7f146100fb578063079a0d871461011957806318df3a851461014457806328293101146101675780635e6fef011461017a578063600bb84c1461019d57806361e37417146101b0578063666255c7146101b95780637fd5f268146101d9575b600080fd5b610103610283565b60405161011091906117a2565b60405180910390f35b61012c6101273660046119e4565b6103f4565b6040516001600160a01b039091168152602001610110565b61015960008051602061231083398151915281565b604051908152602001610110565b60045461012c906001600160a01b031681565b61018d610188366004611a67565b61040e565b6040516101109493929190611a80565b6101036101ab366004611ac8565b6104d8565b61015960055481565b6101cc6101c7366004611b72565b61064e565b6040516101109190611bcb565b6101036107a9565b6101e9610844565b6040516101109796959493929190611c1c565b61010361088a565b610217610212366004611a67565b610a60565b6040516101109190611c7e565b60035461012c906001600160a01b031681565b61012c610245366004611c91565b610ac7565b61012c610258366004611c91565b610b79565b60025461012c906001600160a01b031681565b61012c61027e3660046119e4565b610c1d565b606060006005546001600160401b038111156102a1576102a1611807565b6040519080825280602002602001820160405280156102da57816020015b6102c761150a565b8152602001906001900390816102bf5790505b5090506000805b60055481101561034b57600081815260066020526040902060020154336001600160a01b03909116036103435761031781610c2e565b83838151811061032957610329611d64565b6020026020010181905250818061033f90611d7a565b9250505b6001016102e1565b506000816001600160401b0381111561036657610366611807565b60405190808252806020026020018201604052801561039f57816020015b61038c61150a565b8152602001906001900390816103845790505b50905060005b828110156103ec578381815181106103bf576103bf611d64565b60200260200101518282815181106103d9576103d9611d64565b60209081029190910101526001016103a5565b509392505050565b600061040585858585336001610d10565b95945050505050565b600660205260009081526040902080546001820180546001600160a01b03831693600160a01b90930460ff1692919061044690611da1565b80601f016020809104026020016040519081016040528092919081815260200182805461047290611da1565b80156104bf5780601f10610494576101008083540402835291602001916104bf565b820191906000526020600020905b8154815290600101906020018083116104a257829003601f168201915b505050600290930154919250506001600160a01b031684565b6060600082516001600160401b038111156104f5576104f5611807565b60405190808252806020026020018201604052801561052e57816020015b61051b61150a565b8152602001906001900390816105135790505b5090506000805b84518110156105a457600085828151811061055257610552611d64565b6020026020010151905060055481101561059b5761056f81610c2e565b84848151811061058157610581611d64565b6020026020010181905250828061059790611d7a565b9350505b50600101610535565b506000816001600160401b038111156105bf576105bf611807565b6040519080825280602002602001820160405280156105f857816020015b6105e561150a565b8152602001906001900390816105dd5790505b50905060005b828110156106455783818151811061061857610618611d64565b602002602001015182828151811061063257610632611d64565b60209081029190910101526001016105fe565b50949350505050565b610656611581565b60001960005b600554811015610697576000818152600660205260409020546001600160a01b0380861691160361068f57809150610697565b60010161065c565b5060001981036106e35760405162461bcd60e51b8152602060048201526012602482015271115b1958dd1a5bdb881b9bdd08199bdd5b9960721b60448201526064015b60405180910390fd5b60006106ee82610c2e565b600083815260066020526040808220600201548382015191516367248f1560e01b815233600482018190529495506001600160a01b03918216909414939116906367248f1590602401600060405180830381865afa158015610754573d6000803e3d6000fd5b505050506040513d6000823e601f3d908101601f1916820160405261077c9190810190611dd5565b60408051608081018252948552921515602085015280511515928401929092525060608201529392505050565b606060006005546001600160401b038111156107c7576107c7611807565b60405190808252806020026020018201604052801561080057816020015b6107ed61150a565b8152602001906001900390816107e55790505b50905060005b60055481101561083e5761081981610c2e565b82828151811061082b5761082b611d64565b6020908102919091010152600101610806565b50919050565b600060608060008060006060610858610fa5565b610860610fd7565b60408051600080825260208201909252600f60f81b9b939a50919850469750309650945092509050565b60606000805b60055481101561093157600081815260066020526040808220548151633c17662160e21b815291516001600160a01b039091169263f05d988492600480820193918290030181865afa1580156108ea573d6000803e3d6000fd5b505050506040513d6000823e601f3d908101601f191682016040526109129190810190611f9b565b60a0015115610929578161092581611d7a565b9250505b600101610890565b506000816001600160401b0381111561094c5761094c611807565b60405190808252806020026020018201604052801561098557816020015b61097261150a565b81526020019060019003908161096a5790505b5090506000805b600554811015610a5757600081815260066020526040808220548151633c17662160e21b815291516001600160a01b0390911692839263f05d988492600480830193928290030181865afa1580156109e8573d6000803e3d6000fd5b505050506040513d6000823e601f3d908101601f19168201604052610a109190810190611f9b565b60a0015115610a4e57610a2282610c2e565b848481518110610a3457610a34611d64565b60200260200101819052508280610a4a90611d7a565b9350505b5060010161098c565b50909392505050565b610a6861150a565b600554821080610a76575060015b610ab85760405162461bcd60e51b8152602060048201526013602482015272125b9d985b1a5908195b1958dd1a5bdb881251606a1b60448201526064016106da565b610ac182610c2e565b92915050565b6000806000805160206123108339815191528880519060200120888888604051602001610af89594939291906120b0565b6040516020818303038152906040528051906020012090506000610b1b82611004565b90506000610b298286611031565b9050866001600160a01b0316816001600160a01b031614610b5c5760405162461bcd60e51b81526004016106da906120dc565b610b6b8a878a8c8b6000610d10565b9a9950505050505050505050565b6000806000805160206123108339815191528880519060200120888888604051602001610baa9594939291906120b0565b6040516020818303038152906040528051906020012090506000610bcd82611004565b90506000610bdb8286611031565b9050866001600160a01b0316816001600160a01b031614610c0e5760405162461bcd60e51b81526004016106da906120dc565b610b6b8a878a8c8b6001610d10565b600061040585858585336000610d10565b610c3661150a565b600082815260066020526040808220548151633c17662160e21b815291516001600160a01b039091169291839163f05d98849160048082019286929091908290030181865afa158015610c8d573d6000803e3d6000fd5b505050506040513d6000823e601f3d908101601f19168201604052610cb59190810190611f9b565b60408051606081018252828152600087815260066020908152929020549293509190820190600160a01b900460ff166001811115610cf557610cf561167b565b8152602001836001600160a01b031681525092505050919050565b6000808080846001811115610d2757610d2761167b565b03610dbf57600354610d41906001600160a01b031661105b565b600254600554604051637d474ea960e01b81529294506001600160a01b0380861693637d474ea993610d84938f938f938d9390911691908f908f90600401612107565b600060405180830381600087803b158015610d9e57600080fd5b505af1158015610db2573d6000803e3d6000fd5b5050505060009050610e67565b6001846001811115610dd357610dd361167b565b03610e6757600454610ded906001600160a01b031661105b565b600254600554604051637d474ea960e01b81529294506001600160a01b0380861693637d474ea993610e30938f938f938d9390911691908f908f90600401612107565b600060405180830381600087803b158015610e4a57600080fd5b505af1158015610e5e573d6000803e3d6000fd5b50505050600190505b6040518060800160405280836001600160a01b03168152602001826001811115610e9357610e9361167b565b815260208082018c90526001600160a01b03808916604093840152600554600090815260068352929092208351815493166001600160a01b0319841681178255918401519092909183916001600160a81b03191617600160a01b836001811115610eff57610eff61167b565b021790555060408201516001820190610f189082612210565b5060609190910151600290910180546001600160a01b0319166001600160a01b039092169190911790556005546040517f71d2a462ef2d8f45fe68435493f11b32507e6468b8aa28c3589fc7a57299f6d990610f7b9084908d9087908b906122ce565b60405180910390a260058054906000610f9383611d7a565b90915550919998505050505050505050565b6060610fd27f00000000000000000000000000000000000000000000000000000000000000006000611068565b905090565b6060610fd27f00000000000000000000000000000000000000000000000000000000000000006001611068565b6000610ac1611011611113565b8360405161190160f01b8152600281019290925260228201526042902090565b600080600080611041868661123e565b925092509250611051828261128b565b5090949350505050565b6000610ac1826000611348565b606060ff83146110825761107b836113de565b9050610ac1565b81805461108e90611da1565b80601f01602080910402602001604051908101604052809291908181526020018280546110ba90611da1565b80156111075780601f106110dc57610100808354040283529160200191611107565b820191906000526020600020905b8154815290600101906020018083116110ea57829003601f168201915b50505050509050610ac1565b6000306001600160a01b037f00000000000000000000000000000000000000000000000000000000000000001614801561116c57507f000000000000000000000000000000000000000000000000000000000000000046145b1561119657507f000000000000000000000000000000000000000000000000000000000000000090565b610fd2604080517f8b73c3c69bb8fe3d512ecc4cf759cc79239f7b179b0ffacaa9a75d522b39400f60208201527f0000000000000000000000000000000000000000000000000000000000000000918101919091527f000000000000000000000000000000000000000000000000000000000000000060608201524660808201523060a082015260009060c00160405160208183030381529060405280519060200120905090565b600080600083516041036112785760208401516040850151606086015160001a61126a8882858561141d565b955095509550505050611284565b50508151600091506002905b9250925092565b600082600381111561129f5761129f61167b565b036112a8575050565b60018260038111156112bc576112bc61167b565b036112da5760405163f645eedf60e01b815260040160405180910390fd5b60028260038111156112ee576112ee61167b565b0361130f5760405163fce698f760e01b8152600481018290526024016106da565b60038260038111156113235761132361167b565b03611344576040516335e2f38360e21b8152600481018290526024016106da565b5050565b6000814710156113745760405163cf47918160e01b8152476004820152602481018390526044016106da565b763d602d80600a3d3981f3363d3d373d3d3d363d730000008360601b60e81c176000526e5af43d82803e903d91602b57fd5bf38360781b176020526037600983f090506001600160a01b038116610ac15760405163b06ebf3d60e01b815260040160405180910390fd5b606060006113eb836114e2565b604080516020808252818301909252919250600091906020820181803683375050509182525060208101929092525090565b600080806fa2a8918ca85bafe22016d0b997e4df60600160ff1b0384111561144e57506000915060039050826114d8565b604080516000808252602082018084528a905260ff891692820192909252606081018790526080810186905260019060a0016020604051602081039080840390855afa1580156114a2573d6000803e3d6000fd5b5050604051601f1901519150506001600160a01b0381166114ce575060009250600191508290506114d8565b9250600091508190505b9450945094915050565b600060ff8216601f811115610ac157604051632cd44ac360e21b815260040160405180910390fd5b604080516101c08101909152600060608083018281526080840182905260a0840183905260c0840183905260e0840183905261010084018390526101208401839052610140840183905261016084018390526101808401929092526101a08301528190815260200160008152600060209091015290565b604051806080016040528061159461150a565b8152600060208201819052604082015260609081015290565b60005b838110156115c85781810151838201526020016115b0565b50506000910152565b600081518084526115e98160208601602086016115ad565b601f01601f19169290920160200192915050565b600082825180855260208501945060208160051b8301016020850160005b8381101561166f57601f1985840301885281518051845260208101516060602086015261164b60608601826115d1565b6040928301519590920194909452602098890198909350919091019060010161161b565b50909695505050505050565b634e487b7160e01b600052602160045260246000fd5b600281106116af57634e487b7160e01b600052602160045260246000fd5b9052565b600081516060845280516060850152602081015161016060808601526116dd6101c08601826115d1565b9050604082015160a0860152606082015160c0860152608082015161170d60e08701826001600160a01b03169052565b5060a08201518015156101008701525060c08201518015156101208701525060e08201518015156101408701525061010082015161016086015261012082015161018086015261014090910151848203605f19016101a08601529061177281836115fd565b91505060208301516117876020860182611691565b5060408301516103ec60408601826001600160a01b03169052565b6000602082016020835280845180835260408501915060408160051b86010192506020860160005b828110156117fb57603f198786030184526117e68583516116b3565b945060209384019391909101906001016117ca565b50929695505050505050565b634e487b7160e01b600052604160045260246000fd5b604051606081016001600160401b038111828210171561183f5761183f611807565b60405290565b60405161016081016001600160401b038111828210171561183f5761183f611807565b604051601f8201601f191681016001600160401b038111828210171561189057611890611807565b604052919050565b60006001600160401b038211156118b1576118b1611807565b50601f01601f191660200190565b60006118d26118cd84611898565b611868565b90508281528383830111156118e657600080fd5b828260208301376000602084830101529392505050565b600082601f83011261190e57600080fd5b61191d838335602085016118bf565b9392505050565b60006001600160401b0382111561193d5761193d611807565b5060051b60200190565b600082601f83011261195857600080fd5b81356119666118cd82611924565b8082825260208201915060208360051b86010192508583111561198857600080fd5b602085015b838110156119c95780356001600160401b038111156119ab57600080fd5b6119ba886020838a01016118fd565b8452506020928301920161198d565b5095945050505050565b80151581146119e157600080fd5b50565b600080600080608085870312156119fa57600080fd5b84356001600160401b03811115611a1057600080fd5b611a1c878288016118fd565b94505060208501356001600160401b03811115611a3857600080fd5b611a4487828801611947565b935050604085013591506060850135611a5c816119d3565b939692955090935050565b600060208284031215611a7957600080fd5b5035919050565b6001600160a01b0385168152611a996020820185611691565b608060408201526000611aaf60808301856115d1565b905060018060a01b038316606083015295945050505050565b600060208284031215611ada57600080fd5b81356001600160401b03811115611af057600080fd5b8201601f81018413611b0157600080fd5b8035611b0f6118cd82611924565b8082825260208201915060208360051b850101925086831115611b3157600080fd5b6020840193505b82841015611b53578335825260209384019390910190611b38565b9695505050505050565b6001600160a01b03811681146119e157600080fd5b600060208284031215611b8457600080fd5b813561191d81611b5d565b600081518084526020840193506020830160005b82811015611bc1578151865260209586019590910190600101611ba3565b5093949350505050565b602081526000825160806020840152611be760a08401826116b3565b90506020840151151560408401526040840151151560608401526060840151601f198483030160808501526104058282611b8f565b60ff60f81b8816815260e060208201526000611c3b60e08301896115d1565b8281036040840152611c4d81896115d1565b606084018890526001600160a01b038716608085015260a0840186905283810360c08501529050610b6b8185611b8f565b60208152600061191d60208301846116b3565b60008060008060008060c08789031215611caa57600080fd5b86356001600160401b03811115611cc057600080fd5b611ccc89828a016118fd565b9650506020870135611cdd816119d3565b9450604087013593506060870135611cf481611b5d565b925060808701356001600160401b03811115611d0f57600080fd5b611d1b89828a01611947565b92505060a08701356001600160401b03811115611d3757600080fd5b8701601f81018913611d4857600080fd5b611d57898235602084016118bf565b9150509295509295509295565b634e487b7160e01b600052603260045260246000fd5b600060018201611d9a57634e487b7160e01b600052601160045260246000fd5b5060010190565b600181811c90821680611db557607f821691505b60208210810361083e57634e487b7160e01b600052602260045260246000fd5b600060208284031215611de757600080fd5b81516001600160401b03811115611dfd57600080fd5b8201601f81018413611e0e57600080fd5b8051611e1c6118cd82611924565b8082825260208201915060208360051b850101925086831115611e3e57600080fd5b6020840193505b82841015611b53578351825260209384019390910190611e45565b600082601f830112611e7157600080fd5b8151611e7f6118cd82611898565b818152846020838601011115611e9457600080fd5b611ea58260208301602087016115ad565b949350505050565b8051611eb881611b5d565b919050565b8051611eb8816119d3565b600082601f830112611ed957600080fd5b8151611ee76118cd82611924565b8082825260208201915060208360051b860101925085831115611f0957600080fd5b602085015b838110156119c95780516001600160401b03811115611f2c57600080fd5b86016060818903601f19011215611f4257600080fd5b611f4a61181d565b6020820151815260408201516001600160401b03811115611f6a57600080fd5b611f798a602083860101611e60565b6020838101919091526060939093015160408301525084529283019201611f0e565b600060208284031215611fad57600080fd5b81516001600160401b03811115611fc357600080fd5b82016101608185031215611fd657600080fd5b611fde611845565b8151815260208201516001600160401b03811115611ffb57600080fd5b61200786828501611e60565b602083015250604082810151908201526060808301519082015261202d60808301611ead565b608082015261203e60a08301611ebd565b60a082015261204f60c08301611ebd565b60c082015261206060e08301611ebd565b60e0820152610100828101519082015261012080830151908201526101408201516001600160401b0381111561209557600080fd5b6120a186828501611ec8565b61014083015250949350505050565b9485526020850193909352901515604084015260608301526001600160a01b0316608082015260a00190565b602080825260119082015270496e76616c6964207369676e617475726560781b604082015260600190565b60e08152600061211a60e083018a6115d1565b828103602084015280895180835260208301915060208160051b84010160208c0160005b8381101561217057601f1986840301855261215a8383516115d1565b602095860195909350919091019060010161213e565b50506001600160a01b038b166040870152935061218c92505050565b6001600160a01b03861660608301528460808301528360a08301526121b560c083018415159052565b98975050505050505050565b601f82111561220b57806000526020600020601f840160051c810160208510156121e85750805b601f840160051c820191505b8181101561220857600081556001016121f4565b50505b505050565b81516001600160401b0381111561222957612229611807565b61223d816122378454611da1565b846121c1565b6020601f82116001811461227157600083156122595750848201515b600019600385901b1c1916600184901b178455612208565b600084815260208120601f198516915b828110156122a15787850151825560209485019460019092019101612281565b50848210156122bf5786840151600019600387901b60f8161c191681555b50505050600190811b01905550565b6122d88186611691565b6080602082015260006122ee60808301866115d1565b6001600160a01b03948516604084015292909316606090910152939250505056fec01c9b1d6a80d8bb2e7cf5ca4b339fda2ea6d9ea14e961bc26ad4e24b8215784a2646970667358221220e59dc2b0825fe3041c0225fdf7a0bea1ad96d706c7fd9a7dbe4713a902ef263764736f6c634300081c0033",
  "linkReferences": {},
  "deployedLinkReferences": {}
}