{
  "_format": "hh-sol-artifact-1",
  "contractName": "VotingFactory",
  "sourceName": "contracts/VotingFactory.sol",
  "abi": [
    {
      "inputs": [
        {
          "internalType": "address",
          "name": "_publicElectionImpl",
          "type": "address"
        },
        {
          "internalType": "address",
          "name": "_privateElectionImpl",
          "type": "address"
        }
      ],
      "stateMutability": "nonpayable",
      "type": "constructor"
    },
    {
      "inputs": [],
      "name": "ECDSAInvalidSignature",
      "type": "error"
    },
    {
      "inputs": [
        {
          "internalType": "uint256",
          "name": "length",
          "type": "uint256"
        }
      ],
      "name": "ECDSAInvalidSignatureLength",
      "type": "error"
    },
    {
      "inputs": [
        {
          "internalType": "bytes32",
          "name": "s",
          "type": "bytes32"
        }
      ],
      "name": "ECDSAInvalidSignatureS",
      "type": "error"
    },
    {
      "inputs": [],
      "name": "FailedDeployment",
      "type": "error"
    },
    {
      "inputs": [
        {
          "internalType": "uint256",
          "name": "balance",
          "type": "uint256"
        },
        {
          "internalType": "uint256",
          "name": "needed",
          "type": "uint256"
        }
      ],
      "name": "InsufficientBalance",
      "type": "error"
    },
    {
      "inputs": [],
      "name": "InvalidShortString",
      "type": "error"
    },
    {
      "inputs": [
        {
          "internalType": "string",
          "name": "str",
          "type": "string"
        }
      ],
      "name": "StringTooLong",
      "type": "error"
    },
    {
      "anonymous": false,
      "inputs": [],
      "name": "EIP712DomainChanged",
      "type": "event"
    },
    {
      "anonymous": false,
      "inputs": [
        {
          "indexed": true,
          "internalType": "uint256",
          "name": "id",
          "type": "uint256"
        },
        {
          "indexed": false,
          "internalType": "enum VotingFactory.ElectionType",
          "name": "electionType",
          "type": "uint8"
        },
        {
          "indexed": false,
          "internalType": "string",
          "name": "name",
          "type": "string"
        },
        {
          "indexed": false,
          "internalType": "address",
          "name": "contractAddress",
          "type": "address"
        },
        {
          "indexed": false,
          "internalType": "address",
          "name": "creator",
          "type": "address"
        }
      ],
      "name": "ElectionCreated",
      "type": "event"
    },
    {
      "inputs": [],
      "name": "PRIVATE_ELECTION_TYPEHASH",
      "outputs": [
        {
          "internalType": "bytes32",
          "name": "",
          "type": "bytes32"
        }
      ],
      "stateMutability": "view",
      "type": "function"
    },
    {
      "inputs": [],
      "name": "PUBLIC_ELECTION_TYPEHASH",
      "outputs": [
        {
          "internalType": "bytes32",
          "name": "",
          "type": "bytes32"
        }
      ],
      "stateMutability": "view",
      "type": "function"
    },
    {
      "inputs": [],
      "name": "admin",
      "outputs": [
        {
          "internalType": "address",
          "name": "",
          "type": "address"
        }
      ],
      "stateMutability": "view",
      "type": "function"
    },
    {
      "inputs": [
        {
          "internalType": "string",
          "name": "name",
          "type": "string"
        },
        {
          "internalType": "string[]",
          "name": "candidateNames",
          "type": "string[]"
        },
        {
          "internalType": "uint256",
          "name": "_voterLimit",
          "type": "uint256"
        },
        {
          "internalType": "bool",
          "name": "_startImmediately",
          "type": "bool"
        }
      ],
      "name": "createPrivateElection",
      "outputs": [
        {
          "internalType": "address",
          "name": "",
          "type": "address"
        }
      ],
      "stateMutability": "nonpayable",
      "type": "function"
    },
    {
      "inputs": [
        {
          "internalType": "string",
          "name": "name",
          "type": "string"
        },
        {
          "internalType": "bool",
          "name": "_startImmediately",
          "type": "bool"
        },
        {
          "internalType": "uint256",
          "name": "_voterLimit",
          "type": "uint256"
        },
        {
          "internalType": "address",
          "name": "_creator",
          "type": "address"
        },
        {
          "internalType": "string[]",
          "name": "candidateNames",
          "type": "string[]"
        },
        {
          "internalType": "bytes",
          "name": "signature",
          "type": "bytes"
        }
      ],
      "name": "createPrivateElectionWithSignature",
      "outputs": [
        {
          "internalType": "address",
          "name": "",
          "type": "address"
        }
      ],
      "stateMutability": "nonpayable",
      "type": "function"
    },
    {
      "inputs": [
        {
          "internalType": "string",
          "name": "name",
          "type": "string"
        },
        {
          "internalType": "string[]",
          "name": "candidateNames",
          "type": "string[]"
        },
        {
          "internalType": "uint256",
          "name": "_voterLimit",
          "type": "uint256"
        },
        {
          "internalType": "bool",
          "name": "_startImmediately",
          "type": "bool"
        }
      ],
      "name": "createPublicElection",
      "outputs": [
        {
          "internalType": "address",
          "name": "",
          "type": "address"
        }
      ],
      "stateMutability": "nonpayable",
      "type": "function"
    },
    {
      "inputs": [
        {
          "internalType": "string",
          "name": "name",
          "type": "string"
        },
        {
          "internalType": "bool",
          "name": "_startImmediately",
          "type": "bool"
        },
        {
          "internalType": "uint256",
          "name": "_voterLimit",
          "type": "uint256"
        },
        {
          "internalType": "address",
          "name": "_creator",
          "type": "address"
        },
        {
          "internalType": "string[]",
          "name": "candidateNames",
          "type": "string[]"
        },
        {
          "internalType": "bytes",
          "name": "signature",
          "type": "bytes"
        }
      ],
      "name": "createPublicElectionWithSignature",
      "outputs": [
        {
          "internalType": "address",
          "name": "",
          "type": "address"
        }
      ],
      "stateMutability": "nonpayable",
      "type": "function"
    },
    {
      "inputs": [],
      "name": "eip712Domain",
      "outputs": [
        {
          "internalType": "bytes1",
          "name": "fields",
          "type": "bytes1"
        },
        {
          "internalType": "string",
          "name": "name",
          "type": "string"
        },
        {
          "internalType": "string",
          "name": "version",
          "type": "string"
        },
        {
          "internalType": "uint256",
          "name": "chainId",
          "type": "uint256"
        },
        {
          "internalType": "address",
          "name": "verifyingContract",
          "type": "address"
        },
        {
          "internalType": "bytes32",
          "name": "salt",
          "type": "bytes32"
        },
        {
          "internalType": "uint256[]",
          "name": "extensions",
          "type": "uint256[]"
        }
      ],
      "stateMutability": "view",
      "type": "function"
    },
    {
      "inputs": [],
      "name": "electionCounter",
      "outputs": [
        {
          "internalType": "uint256",
          "name": "",
          "type": "uint256"
        }
      ],
      "stateMutability": "view",
      "type": "function"
    },
    {
      "inputs": [
        {
          "internalType": "uint256",
          "name": "",
          "type": "uint256"
        }
      ],
      "name": "elections",
      "outputs": [
        {
          "internalType": "address",
          "name": "contractAddress",
          "type": "address"
        },
        {
          "internalType": "enum VotingFactory.ElectionType",
          "name": "electionType",
          "type": "uint8"
        },
        {
          "internalType": "string",
          "name": "name",
          "type": "string"
        },
        {
          "internalType": "address",
          "name": "creator",
          "type": "address"
        }
      ],
      "stateMutability": "view",
      "type": "function"
    },
    {
      "inputs": [],
      "name": "getActiveElections",
      "outputs": [
        {
          "components": [
            {
              "components": [
                {
                  "internalType": "uint256",
                  "name": "id",
                  "type": "uint256"
                },
                {
                  "internalType": "string",
                  "name": "name",
                  "type": "string"
                },
                {
                  "internalType": "uint256",
                  "name": "startTime",
                  "type": "uint256"
                },
                {
                  "internalType": "uint256",
                  "name": "endTime",
                  "type": "uint256"
                },
                {
                  "internalType": "address",
                  "name": "creator",
                  "type": "address"
                },
                {
                  "internalType": "bool",
                  "name": "isActive",
                  "type": "bool"
                },
                {
                  "internalType": "bool",
                  "name": "startedManually",
                  "type": "bool"
                },
                {
                  "internalType": "bool",
                  "name": "endedManually",
                  "type": "bool"
                },
                {
                  "internalType": "uint256",
                  "name": "candidateCount",
                  "type": "uint256"
                },
                {
                  "internalType": "uint256",
                  "name": "voterLimit",
                  "type": "uint256"
                },
                {
                  "components": [
                    {
                      "internalType": "uint256",
                      "name": "id",
                      "type": "uint256"
                    },
                    {
                      "internalType": "string",
                      "name": "name",
                      "type": "string"
                    },
                    {
                      "internalType": "uint256",
                      "name": "voteCount",
                      "type": "uint256"
                    }
                  ],
                  "internalType": "struct ElectionMetadata.CandidateView[]",
                  "name": "candidates",
                  "type": "tuple[]"
                }
              ],
              "internalType": "struct ElectionMetadata.ElectionWithCandidates",
              "name": "coreData",
              "type": "tuple"
            },
            {
              "internalType": "enum VotingFactory.ElectionType",
              "name": "electionType",
              "type": "uint8"
            },
            {
              "internalType": "address",
              "name": "contractAddress",
              "type": "address"
            }
          ],
          "internalType": "struct VotingFactory.FullElectionInfo[]",
          "name": "",
          "type": "tuple[]"
        }
      ],
      "stateMutability": "view",
      "type": "function"
    },
    {
      "inputs": [],
      "name": "getAllElections",
      "outputs": [
        {
          "components": [
            {
              "components": [
                {
                  "internalType": "uint256",
                  "name": "id",
                  "type": "uint256"
                },
                {
                  "internalType": "string",
                  "name": "name",
                  "type": "string"
                },
                {
                  "internalType": "uint256",
                  "name": "startTime",
                  "type": "uint256"
                },
                {
                  "internalType": "uint256",
                  "name": "endTime",
                  "type": "uint256"
                },
                {
                  "internalType": "address",
                  "name": "creator",
                  "type": "address"
                },
                {
                  "internalType": "bool",
                  "name": "isActive",
                  "type": "bool"
                },
                {
                  "internalType": "bool",
                  "name": "startedManually",
                  "type": "bool"
                },
                {
                  "internalType": "bool",
                  "name": "endedManually",
                  "type": "bool"
                },
                {
                  "internalType": "uint256",
                  "name": "candidateCount",
                  "type": "uint256"
                },
                {
                  "internalType": "uint256",
                  "name": "voterLimit",
                  "type": "uint256"
                },
                {
                  "components": [
                    {
                      "internalType": "uint256",
                      "name": "id",
                      "type": "uint256"
                    },
                    {
                      "internalType": "string",
                      "name": "name",
                      "type": "string"
                    },
                    {
                      "internalType": "uint256",
                      "name": "voteCount",
                      "type": "uint256"
                    }
                  ],
                  "internalType": "struct ElectionMetadata.CandidateView[]",
                  "name": "candidates",
                  "type": "tuple[]"
                }
              ],
              "internalType": "struct ElectionMetadata.ElectionWithCandidates",
              "name": "coreData",
              "type": "tuple"
            },
            {
              "internalType": "enum VotingFactory.ElectionType",
              "name": "electionType",
              "type": "uint8"
            },
            {
              "internalType": "address",
              "name": "contractAddress",
              "type": "address"
            }
          ],
          "internalType": "struct VotingFactory.FullElectionInfo[]",
          "name": "",
          "type": "tuple[]"
        }
      ],
      "stateMutability": "view",
      "type": "function"
    },
    {
      "inputs": [
        {
          "internalType": "uint256",
          "name": "id",
          "type": "uint256"
        }
      ],
      "name": "getElection",
      "outputs": [
        {
          "components": [
            {
              "internalType": "address",
              "name": "contractAddress",
              "type": "address"
            },
            {
              "internalType": "enum VotingFactory.ElectionType",
              "name": "electionType",
              "type": "uint8"
            },
            {
              "internalType": "string",
              "name": "name",
              "type": "string"
            },
            {
              "internalType": "address",
              "name": "creator",
              "type": "address"
            }
          ],
          "internalType": "struct VotingFactory.ElectionInfo",
          "name": "",
          "type": "tuple"
        }
      ],
      "stateMutability": "view",
      "type": "function"
    },
    {
      "inputs": [
        {
          "internalType": "uint256[]",
          "name": "ids",
          "type": "uint256[]"
        }
      ],
      "name": "getElectionsByIds",
      "outputs": [
        {
          "components": [
            {
              "components": [
                {
                  "internalType": "uint256",
                  "name": "id",
                  "type": "uint256"
                },
                {
                  "internalType": "string",
                  "name": "name",
                  "type": "string"
                },
                {
                  "internalType": "uint256",
                  "name": "startTime",
                  "type": "uint256"
                },
                {
                  "internalType": "uint256",
                  "name": "endTime",
                  "type": "uint256"
                },
                {
                  "internalType": "address",
                  "name": "creator",
                  "type": "address"
                },
                {
                  "internalType": "bool",
                  "name": "isActive",
                  "type": "bool"
                },
                {
                  "internalType": "bool",
                  "name": "startedManually",
                  "type": "bool"
                },
                {
                  "internalType": "bool",
                  "name": "endedManually",
                  "type": "bool"
                },
                {
                  "internalType": "uint256",
                  "name": "candidateCount",
                  "type": "uint256"
                },
                {
                  "internalType": "uint256",
                  "name": "voterLimit",
                  "type": "uint256"
                },
                {
                  "components": [
                    {
                      "internalType": "uint256",
                      "name": "id",
                      "type": "uint256"
                    },
                    {
                      "internalType": "string",
                      "name": "name",
                      "type": "string"
                    },
                    {
                      "internalType": "uint256",
                      "name": "voteCount",
                      "type": "uint256"
                    }
                  ],
                  "internalType": "struct ElectionMetadata.CandidateView[]",
                  "name": "candidates",
                  "type": "tuple[]"
                }
              ],
              "internalType": "struct ElectionMetadata.ElectionWithCandidates",
              "name": "coreData",
              "type": "tuple"
            },
            {
              "internalType": "enum VotingFactory.ElectionType",
              "name": "electionType",
              "type": "uint8"
            },
            {
              "internalType": "address",
              "name": "contractAddress",
              "type": "address"
            }
          ],
          "internalType": "struct VotingFactory.FullElectionInfo[]",
          "name": "",
          "type": "tuple[]"
        }
      ],
      "stateMutability": "view",
      "type": "function"
    },
    {
      "inputs": [],
      "name": "getMyElections",
      "outputs": [
        {
          "components": [
            {
              "components": [
                {
                  "internalType": "uint256",
                  "name": "id",
                  "type": "uint256"
                },
                {
                  "internalType": "string",
                  "name": "name",
                  "type": "string"
                },
                {
                  "internalType": "uint256",
                  "name": "startTime",
                  "type": "uint256"
                },
                {
                  "internalType": "uint256",
                  "name": "endTime",
                  "type": "uint256"
                },
                {
                  "internalType": "address",
                  "name": "creator",
                  "type": "address"
                },
                {
                  "internalType": "bool",
                  "name": "isActive",
                  "type": "bool"
                },
                {
                  "internalType": "bool",
                  "name": "startedManually",
                  "type": "bool"
                },
                {
                  "internalType": "bool",
                  "name": "endedManually",
                  "type": "bool"
                },
                {
                  "internalType": "uint256",
                  "name": "candidateCount",
                  "type": "uint256"
                },
                {
                  "internalType": "uint256",
                  "name": "voterLimit",
                  "type": "uint256"
                },
                {
                  "components": [
                    {
                      "internalType": "uint256",
                      "name": "id",
                      "type": "uint256"
                    },
                    {
                      "internalType": "string",
                      "name": "name",
                      "type": "string"
                    },
                    {
                      "internalType": "uint256",
                      "name": "voteCount",
                      "type": "uint256"
                    }
                  ],
                  "internalType": "struct ElectionMetadata.CandidateView[]",
                  "name": "candidates",
                  "type": "tuple[]"
                }
              ],
              "internalType": "struct ElectionMetadata.ElectionWithCandidates",
              "name": "coreData",
              "type": "tuple"
            },
            {
              "internalType": "enum VotingFactory.ElectionType",
              "name": "electionType",
              "type": "uint8"
            },
            {
              "internalType": "address",
              "name": "contractAddress",
              "type": "address"
            }
          ],
          "internalType": "struct VotingFactory.FullElectionInfo[]",
          "name": "",
          "type": "tuple[]"
        }
      ],
      "stateMutability": "view",
      "type": "function"
    },
    {
      "inputs": [],
      "name": "privateElectionImpl",
      "outputs": [
        {
          "internalType": "address",
          "name": "",
          "type": "address"
        }
      ],
      "stateMutability": "view",
      "type": "function"
    },
    {
      "inputs": [],
      "name": "publicElectionImpl",
      "outputs": [
        {
          "internalType": "address",
          "name": "",
          "type": "address"
        }
      ],
      "stateMutability": "view",
      "type": "function"
    }
  ],
  "bytecode": "0x61016060405234801561001157600080fd5b50604051612668380380612668833981016040819052610030916101ef565b604080518082018252600d81526c566f74696e67466163746f727960981b602080830191909152825180840190935260018352603160f81b9083015290610078826000610159565b61012052610087816001610159565b61014052815160208084019190912060e052815190820120610100524660a05261011460e05161010051604080517f8b73c3c69bb8fe3d512ecc4cf759cc79239f7b179b0ffacaa9a75d522b39400f60208201529081019290925260608201524660808201523060a082015260009060c00160405160208183030381529060405280519060200120905090565b60805250503060c052600280546001600160a01b03199081163317909155600380546001600160a01b03948516908316179055600480549290931691161790556103f1565b60006020835110156101755761016e8361018c565b9050610186565b8161018084826102c1565b5060ff90505b92915050565b600080829050601f815111156101c0578260405163305a27a960e01b81526004016101b7919061037f565b60405180910390fd5b80516101cb826103cd565b179392505050565b80516001600160a01b03811681146101ea57600080fd5b919050565b6000806040838503121561020257600080fd5b61020b836101d3565b9150610219602084016101d3565b90509250929050565b634e487b7160e01b600052604160045260246000fd5b600181811c9082168061024c57607f821691505b60208210810361026c57634e487b7160e01b600052602260045260246000fd5b50919050565b601f8211156102bc57806000526020600020601f840160051c810160208510156102995750805b601f840160051c820191505b818110156102b957600081556001016102a5565b50505b505050565b81516001600160401b038111156102da576102da610222565b6102ee816102e88454610238565b84610272565b6020601f821160018114610322576000831561030a5750848201515b600019600385901b1c1916600184901b1784556102b9565b600084815260208120601f198516915b828110156103525787850151825560209485019460019092019101610332565b50848210156103705786840151600019600387901b60f8161c191681555b50505050600190811b01905550565b602081526000825180602084015260005b818110156103ad5760208186018101516040868401015201610390565b506000604082850101526040601f19601f83011684010191505092915050565b8051602080830151919081101561026c5760001960209190910360031b1b16919050565b60805160a05160c05160e05161010051610120516101405161221d61044b6000396000610f7401526000610f420152600061118901526000611161015260006110bc015260006110e601526000611110015261221d6000f3fe608060405234801561001057600080fd5b50600436106100eb5760003560e01c806384b0196e1161009257806384b0196e146101b65780638a3b63b0146101d15780639d710777146101d9578063c17682ed146101f9578063c4315c0f1461020c578063cd13088f14610139578063e6c7d0851461021f578063f851a44014610232578063fc4912cb1461024557600080fd5b806301786e7f146100f0578063079a0d871461010e57806318df3a8514610139578063282931011461015c5780635e6fef011461016f578063600bb84c1461019257806361e37417146101a55780637fd5f268146101ae575b600080fd5b6100f8610258565b6040516101059190611623565b60405180910390f35b61012161011c36600461194c565b6103c9565b6040516001600160a01b039091168152602001610105565b61014e6000805160206121c883398151915281565b604051908152602001610105565b600454610121906001600160a01b031681565b61018261017d3660046119cf565b6103e3565b60405161010594939291906119e8565b6100f86101a0366004611a30565b6104ad565b61014e60055481565b6100f8610623565b6101be6106be565b6040516101059796959493929190611ac5565b6100f8610704565b6101ec6101e73660046119cf565b6108da565b6040516101059190611b5d565b600354610121906001600160a01b031681565b61012161021a366004611bd4565b610a5d565b61012161022d366004611bd4565b610b0f565b600254610121906001600160a01b031681565b61012161025336600461194c565b610bb3565b606060006005546001600160401b038111156102765761027661176f565b6040519080825280602002602001820160405280156102af57816020015b61029c6114a6565b8152602001906001900390816102945790505b5090506000805b60055481101561032057600081815260066020526040902060020154336001600160a01b0390911603610318576102ec81610bc4565b8383815181106102fe576102fe611ca7565b6020026020010181905250818061031490611cbd565b9250505b6001016102b6565b506000816001600160401b0381111561033b5761033b61176f565b60405190808252806020026020018201604052801561037457816020015b6103616114a6565b8152602001906001900390816103595790505b50905060005b828110156103c15783818151811061039457610394611ca7565b60200260200101518282815181106103ae576103ae611ca7565b602090810291909101015260010161037a565b509392505050565b60006103da85858585336001610ca6565b95945050505050565b600660205260009081526040902080546001820180546001600160a01b03831693600160a01b90930460ff1692919061041b90611ce4565b80601f016020809104026020016040519081016040528092919081815260200182805461044790611ce4565b80156104945780601f1061046957610100808354040283529160200191610494565b820191906000526020600020905b81548152906001019060200180831161047757829003601f168201915b505050600290930154919250506001600160a01b031684565b6060600082516001600160401b038111156104ca576104ca61176f565b60405190808252806020026020018201604052801561050357816020015b6104f06114a6565b8152602001906001900390816104e85790505b5090506000805b845181101561057957600085828151811061052757610527611ca7565b602002602001015190506005548110156105705761054481610bc4565b84848151811061055657610556611ca7565b6020026020010181905250828061056c90611cbd565b9350505b5060010161050a565b506000816001600160401b038111156105945761059461176f565b6040519080825280602002602001820160405280156105cd57816020015b6105ba6114a6565b8152602001906001900390816105b25790505b50905060005b8281101561061a578381815181106105ed576105ed611ca7565b602002602001015182828151811061060757610607611ca7565b60209081029190910101526001016105d3565b50949350505050565b606060006005546001600160401b038111156106415761064161176f565b60405190808252806020026020018201604052801561067a57816020015b6106676114a6565b81526020019060019003908161065f5790505b50905060005b6005548110156106b85761069381610bc4565b8282815181106106a5576106a5611ca7565b6020908102919091010152600101610680565b50919050565b6000606080600080600060606106d2610f3b565b6106da610f6d565b60408051600080825260208201909252600f60f81b9b939a50919850469750309650945092509050565b60606000805b6005548110156107ab57600081815260066020526040808220548151633c17662160e21b815291516001600160a01b039091169263f05d988492600480820193918290030181865afa158015610764573d6000803e3d6000fd5b505050506040513d6000823e601f3d908101601f1916820160405261078c9190810190611e53565b60a00151156107a3578161079f81611cbd565b9250505b60010161070a565b506000816001600160401b038111156107c6576107c661176f565b6040519080825280602002602001820160405280156107ff57816020015b6107ec6114a6565b8152602001906001900390816107e45790505b5090506000805b6005548110156108d157600081815260066020526040808220548151633c17662160e21b815291516001600160a01b0390911692839263f05d988492600480830193928290030181865afa158015610862573d6000803e3d6000fd5b505050506040513d6000823e601f3d908101601f1916820160405261088a9190810190611e53565b60a00151156108c85761089c82610bc4565b8484815181106108ae576108ae611ca7565b602002602001018190525082806108c490611cbd565b9350505b50600101610806565b50909392505050565b610906604080516080810190915260008082526020820190815260606020820152600060409091015290565b60055482106109525760405162461bcd60e51b8152602060048201526013602482015272125b9d985b1a5908195b1958dd1a5bdb881251606a1b60448201526064015b60405180910390fd5b60008281526006602090815260409182902082516080810190935280546001600160a01b03811684529091830190600160a01b900460ff16600181111561099b5761099b6115eb565b60018111156109ac576109ac6115eb565b81526020016001820180546109c090611ce4565b80601f01602080910402602001604051908101604052809291908181526020018280546109ec90611ce4565b8015610a395780601f10610a0e57610100808354040283529160200191610a39565b820191906000526020600020905b815481529060010190602001808311610a1c57829003601f168201915b5050509183525050600291909101546001600160a01b031660209091015292915050565b6000806000805160206121c88339815191528880519060200120888888604051602001610a8e959493929190611f68565b6040516020818303038152906040528051906020012090506000610ab182610f9a565b90506000610abf8286610fcd565b9050866001600160a01b0316816001600160a01b031614610af25760405162461bcd60e51b815260040161094990611f94565b610b018a878a8c8b6000610ca6565b9a9950505050505050505050565b6000806000805160206121c88339815191528880519060200120888888604051602001610b40959493929190611f68565b6040516020818303038152906040528051906020012090506000610b6382610f9a565b90506000610b718286610fcd565b9050866001600160a01b0316816001600160a01b031614610ba45760405162461bcd60e51b815260040161094990611f94565b610b018a878a8c8b6001610ca6565b60006103da85858585336000610ca6565b610bcc6114a6565b600082815260066020526040808220548151633c17662160e21b815291516001600160a01b039091169291839163f05d98849160048082019286929091908290030181865afa158015610c23573d6000803e3d6000fd5b505050506040513d6000823e601f3d908101601f19168201604052610c4b9190810190611e53565b60408051606081018252828152600087815260066020908152929020549293509190820190600160a01b900460ff166001811115610c8b57610c8b6115eb565b8152602001836001600160a01b031681525092505050919050565b6000808080846001811115610cbd57610cbd6115eb565b03610d5557600354610cd7906001600160a01b0316610ff7565b600254600554604051637d474ea960e01b81529294506001600160a01b0380861693637d474ea993610d1a938f938f938d9390911691908f908f90600401611fbf565b600060405180830381600087803b158015610d3457600080fd5b505af1158015610d48573d6000803e3d6000fd5b5050505060009050610dfd565b6001846001811115610d6957610d696115eb565b03610dfd57600454610d83906001600160a01b0316610ff7565b600254600554604051637d474ea960e01b81529294506001600160a01b0380861693637d474ea993610dc6938f938f938d9390911691908f908f90600401611fbf565b600060405180830381600087803b158015610de057600080fd5b505af1158015610df4573d6000803e3d6000fd5b50505050600190505b6040518060800160405280836001600160a01b03168152602001826001811115610e2957610e296115eb565b815260208082018c90526001600160a01b03808916604093840152600554600090815260068352929092208351815493166001600160a01b0319841681178255918401519092909183916001600160a81b03191617600160a01b836001811115610e9557610e956115eb565b021790555060408201516001820190610eae90826120c8565b5060609190910151600290910180546001600160a01b0319166001600160a01b039092169190911790556005546040517f71d2a462ef2d8f45fe68435493f11b32507e6468b8aa28c3589fc7a57299f6d990610f119084908d9087908b90612186565b60405180910390a260058054906000610f2983611cbd565b90915550919998505050505050505050565b6060610f687f00000000000000000000000000000000000000000000000000000000000000006000611004565b905090565b6060610f687f00000000000000000000000000000000000000000000000000000000000000006001611004565b6000610fc7610fa76110af565b8360405161190160f01b8152600281019290925260228201526042902090565b92915050565b600080600080610fdd86866111da565b925092509250610fed8282611227565b5090949350505050565b6000610fc78260006112e4565b606060ff831461101e576110178361137a565b9050610fc7565b81805461102a90611ce4565b80601f016020809104026020016040519081016040528092919081815260200182805461105690611ce4565b80156110a35780601f10611078576101008083540402835291602001916110a3565b820191906000526020600020905b81548152906001019060200180831161108657829003601f168201915b50505050509050610fc7565b6000306001600160a01b037f00000000000000000000000000000000000000000000000000000000000000001614801561110857507f000000000000000000000000000000000000000000000000000000000000000046145b1561113257507f000000000000000000000000000000000000000000000000000000000000000090565b610f68604080517f8b73c3c69bb8fe3d512ecc4cf759cc79239f7b179b0ffacaa9a75d522b39400f60208201527f0000000000000000000000000000000000000000000000000000000000000000918101919091527f000000000000000000000000000000000000000000000000000000000000000060608201524660808201523060a082015260009060c00160405160208183030381529060405280519060200120905090565b600080600083516041036112145760208401516040850151606086015160001a611206888285856113b9565b955095509550505050611220565b50508151600091506002905b9250925092565b600082600381111561123b5761123b6115eb565b03611244575050565b6001826003811115611258576112586115eb565b036112765760405163f645eedf60e01b815260040160405180910390fd5b600282600381111561128a5761128a6115eb565b036112ab5760405163fce698f760e01b815260048101829052602401610949565b60038260038111156112bf576112bf6115eb565b036112e0576040516335e2f38360e21b815260048101829052602401610949565b5050565b6000814710156113105760405163cf47918160e01b815247600482015260248101839052604401610949565b763d602d80600a3d3981f3363d3d373d3d3d363d730000008360601b60e81c176000526e5af43d82803e903d91602b57fd5bf38360781b176020526037600983f090506001600160a01b038116610fc75760405163b06ebf3d60e01b815260040160405180910390fd5b606060006113878361147e565b604080516020808252818301909252919250600091906020820181803683375050509182525060208101929092525090565b600080806fa2a8918ca85bafe22016d0b997e4df60600160ff1b038411156113ea5750600091506003905082611474565b604080516000808252602082018084528a905260ff891692820192909252606081018790526080810186905260019060a0016020604051602081039080840390855afa15801561143e573d6000803e3d6000fd5b5050604051601f1901519150506001600160a01b03811661146a57506000925060019150829050611474565b9250600091508190505b9450945094915050565b600060ff8216601f811115610fc757604051632cd44ac360e21b815260040160405180910390fd5b604080516101c08101909152600060608083018281526080840182905260a0840183905260c0840183905260e0840183905261010084018390526101208401839052610140840183905261016084018390526101808401929092526101a08301528190815260200160008152600060209091015290565b60005b83811015611538578181015183820152602001611520565b50506000910152565b6000815180845261155981602086016020860161151d565b601f01601f19169290920160200192915050565b600082825180855260208501945060208160051b8301016020850160005b838110156115df57601f198584030188528151805184526020810151606060208601526115bb6060860182611541565b6040928301519590920194909452602098890198909350919091019060010161158b565b50909695505050505050565b634e487b7160e01b600052602160045260246000fd5b6002811061161f57634e487b7160e01b600052602160045260246000fd5b9052565b6000602082016020835280845180835260408501915060408160051b86010192506020860160005b8281101561176357603f19878603018452815180516060875280516060880152602081015161016060808901526116866101c0890182611541565b9050604082015160a0890152606082015160c089015260808201516116b660e08a01826001600160a01b03169052565b5060a08201518015156101008a01525060c08201518015156101208a01525060e08201518015156101408a01525061010082015161016089015261012082015161018089015261014090910151878203605f19016101a08901529061171b818361156d565b91505060208201516117306020890182611601565b506040820151915061174d60408801836001600160a01b03169052565b955050602093840193919091019060010161164b565b50929695505050505050565b634e487b7160e01b600052604160045260246000fd5b604051606081016001600160401b03811182821017156117a7576117a761176f565b60405290565b60405161016081016001600160401b03811182821017156117a7576117a761176f565b604051601f8201601f191681016001600160401b03811182821017156117f8576117f861176f565b604052919050565b60006001600160401b038211156118195761181961176f565b50601f01601f191660200190565b600061183a61183584611800565b6117d0565b905082815283838301111561184e57600080fd5b828260208301376000602084830101529392505050565b600082601f83011261187657600080fd5b61188583833560208501611827565b9392505050565b60006001600160401b038211156118a5576118a561176f565b5060051b60200190565b600082601f8301126118c057600080fd5b81356118ce6118358261188c565b8082825260208201915060208360051b8601019250858311156118f057600080fd5b602085015b838110156119315780356001600160401b0381111561191357600080fd5b611922886020838a0101611865565b845250602092830192016118f5565b5095945050505050565b801515811461194957600080fd5b50565b6000806000806080858703121561196257600080fd5b84356001600160401b0381111561197857600080fd5b61198487828801611865565b94505060208501356001600160401b038111156119a057600080fd5b6119ac878288016118af565b9350506040850135915060608501356119c48161193b565b939692955090935050565b6000602082840312156119e157600080fd5b5035919050565b6001600160a01b0385168152611a016020820185611601565b608060408201526000611a176080830185611541565b905060018060a01b038316606083015295945050505050565b600060208284031215611a4257600080fd5b81356001600160401b03811115611a5857600080fd5b8201601f81018413611a6957600080fd5b8035611a776118358261188c565b8082825260208201915060208360051b850101925086831115611a9957600080fd5b6020840193505b82841015611abb578335825260209384019390910190611aa0565b9695505050505050565b60ff60f81b8816815260e060208201526000611ae460e0830189611541565b8281036040840152611af68189611541565b606084018890526001600160a01b038716608085015260a0840186905283810360c08501528451808252602080870193509091019060005b81811015611b4c578351835260209384019390920191600101611b2e565b50909b9a5050505050505050505050565b602080825282516001600160a01b031682820152820151600090611b846040840182611601565b50604083015160806060840152611b9e60a0840182611541565b606094909401516001600160a01b0316608093909301929092525090919050565b6001600160a01b038116811461194957600080fd5b60008060008060008060c08789031215611bed57600080fd5b86356001600160401b03811115611c0357600080fd5b611c0f89828a01611865565b9650506020870135611c208161193b565b9450604087013593506060870135611c3781611bbf565b925060808701356001600160401b03811115611c5257600080fd5b611c5e89828a016118af565b92505060a08701356001600160401b03811115611c7a57600080fd5b8701601f81018913611c8b57600080fd5b611c9a89823560208401611827565b9150509295509295509295565b634e487b7160e01b600052603260045260246000fd5b600060018201611cdd57634e487b7160e01b600052601160045260246000fd5b5060010190565b600181811c90821680611cf857607f821691505b6020821081036106b857634e487b7160e01b600052602260045260246000fd5b600082601f830112611d2957600080fd5b8151611d3761183582611800565b818152846020838601011115611d4c57600080fd5b611d5d82602083016020870161151d565b949350505050565b8051611d7081611bbf565b919050565b8051611d708161193b565b600082601f830112611d9157600080fd5b8151611d9f6118358261188c565b8082825260208201915060208360051b860101925085831115611dc157600080fd5b602085015b838110156119315780516001600160401b03811115611de457600080fd5b86016060818903601f19011215611dfa57600080fd5b611e02611785565b6020820151815260408201516001600160401b03811115611e2257600080fd5b611e318a602083860101611d18565b6020838101919091526060939093015160408301525084529283019201611dc6565b600060208284031215611e6557600080fd5b81516001600160401b03811115611e7b57600080fd5b82016101608185031215611e8e57600080fd5b611e966117ad565b8151815260208201516001600160401b03811115611eb357600080fd5b611ebf86828501611d18565b6020830152506040828101519082015260608083015190820152611ee560808301611d65565b6080820152611ef660a08301611d75565b60a0820152611f0760c08301611d75565b60c0820152611f1860e08301611d75565b60e0820152610100828101519082015261012080830151908201526101408201516001600160401b03811115611f4d57600080fd5b611f5986828501611d80565b61014083015250949350505050565b9485526020850193909352901515604084015260608301526001600160a01b0316608082015260a00190565b602080825260119082015270496e76616c6964207369676e617475726560781b604082015260600190565b60e081526000611fd260e083018a611541565b828103602084015280895180835260208301915060208160051b84010160208c0160005b8381101561202857601f19868403018552612012838351611541565b6020958601959093509190910190600101611ff6565b50506001600160a01b038b166040870152935061204492505050565b6001600160a01b03861660608301528460808301528360a083015261206d60c083018415159052565b98975050505050505050565b601f8211156120c357806000526020600020601f840160051c810160208510156120a05750805b601f840160051c820191505b818110156120c057600081556001016120ac565b50505b505050565b81516001600160401b038111156120e1576120e161176f565b6120f5816120ef8454611ce4565b84612079565b6020601f82116001811461212957600083156121115750848201515b600019600385901b1c1916600184901b1784556120c0565b600084815260208120601f198516915b828110156121595787850151825560209485019460019092019101612139565b50848210156121775786840151600019600387901b60f8161c191681555b50505050600190811b01905550565b6121908186611601565b6080602082015260006121a66080830186611541565b6001600160a01b03948516604084015292909316606090910152939250505056fec01c9b1d6a80d8bb2e7cf5ca4b339fda2ea6d9ea14e961bc26ad4e24b8215784a26469706673582212206a4669ca2b80ce79584e747d96bb3acb905a3b67dd1de1c679ef42f79da8924e64736f6c634300081c0033",
  "linkReferences": {},
  "deployedLinkReferences": {}
}