{
  "_format": "hh-sol-artifact-1",
  "contractName": "VotingSystem",
  "sourceName": "contracts/VotingSystem.sol",
  "abi": [
    {
      "inputs": [],
      "stateMutability": "nonpayable",
      "type": "constructor"
    },
    {
      "inputs": [],
      "name": "ECDSAInvalidSignature",
      "type": "error"
    },
    {
      "inputs": [
        {
          "internalType": "uint256",
          "name": "length",
          "type": "uint256"
        }
      ],
      "name": "ECDSAInvalidSignatureLength",
      "type": "error"
    },
    {
      "inputs": [
        {
          "internalType": "bytes32",
          "name": "s",
          "type": "bytes32"
        }
      ],
      "name": "ECDSAInvalidSignatureS",
      "type": "error"
    },
    {
      "inputs": [],
      "name": "InvalidShortString",
      "type": "error"
    },
    {
      "inputs": [
        {
          "internalType": "string",
          "name": "str",
          "type": "string"
        }
      ],
      "name": "StringTooLong",
      "type": "error"
    },
    {
      "anonymous": false,
      "inputs": [],
      "name": "EIP712DomainChanged",
      "type": "event"
    },
    {
      "anonymous": false,
      "inputs": [
        {
          "indexed": true,
          "internalType": "uint256",
          "name": "electionId",
          "type": "uint256"
        },
        {
          "indexed": false,
          "internalType": "string",
          "name": "name",
          "type": "string"
        }
      ],
      "name": "ElectionCreated",
      "type": "event"
    },
    {
      "anonymous": false,
      "inputs": [
        {
          "indexed": true,
          "internalType": "uint256",
          "name": "electionId",
          "type": "uint256"
        }
      ],
      "name": "ElectionEnded",
      "type": "event"
    },
    {
      "anonymous": false,
      "inputs": [
        {
          "indexed": true,
          "internalType": "uint256",
          "name": "electionId",
          "type": "uint256"
        }
      ],
      "name": "ElectionStarted",
      "type": "event"
    },
    {
      "anonymous": false,
      "inputs": [
        {
          "indexed": true,
          "internalType": "uint256",
          "name": "electionId",
          "type": "uint256"
        },
        {
          "indexed": false,
          "internalType": "uint256",
          "name": "candidateId",
          "type": "uint256"
        },
        {
          "indexed": false,
          "internalType": "address",
          "name": "voter",
          "type": "address"
        }
      ],
      "name": "VoteCast",
      "type": "event"
    },
    {
      "inputs": [],
      "name": "ELECTION_TYPEHASH",
      "outputs": [
        {
          "internalType": "bytes32",
          "name": "",
          "type": "bytes32"
        }
      ],
      "stateMutability": "view",
      "type": "function"
    },
    {
      "inputs": [],
      "name": "MAX_CANDIDATES",
      "outputs": [
        {
          "internalType": "uint256",
          "name": "",
          "type": "uint256"
        }
      ],
      "stateMutability": "view",
      "type": "function"
    },
    {
      "inputs": [
        {
          "internalType": "uint256",
          "name": "_electionId",
          "type": "uint256"
        },
        {
          "internalType": "string[]",
          "name": "_names",
          "type": "string[]"
        }
      ],
      "name": "addCandidates",
      "outputs": [],
      "stateMutability": "nonpayable",
      "type": "function"
    },
    {
      "inputs": [],
      "name": "admin",
      "outputs": [
        {
          "internalType": "address",
          "name": "",
          "type": "address"
        }
      ],
      "stateMutability": "view",
      "type": "function"
    },
    {
      "inputs": [
        {
          "internalType": "string",
          "name": "_name",
          "type": "string"
        },
        {
          "internalType": "bool",
          "name": "_startImmediately",
          "type": "bool"
        },
        {
          "internalType": "uint256",
          "name": "_voterLimit",
          "type": "uint256"
        },
        {
          "internalType": "string[]",
          "name": "_candidateNames",
          "type": "string[]"
        }
      ],
      "name": "createElection",
      "outputs": [],
      "stateMutability": "nonpayable",
      "type": "function"
    },
    {
      "inputs": [
        {
          "internalType": "string",
          "name": "_name",
          "type": "string"
        },
        {
          "internalType": "bool",
          "name": "_startImmediately",
          "type": "bool"
        },
        {
          "internalType": "uint256",
          "name": "_voterLimit",
          "type": "uint256"
        },
        {
          "internalType": "address",
          "name": "_creator",
          "type": "address"
        },
        {
          "internalType": "string[]",
          "name": "_candidateNames",
          "type": "string[]"
        },
        {
          "internalType": "bytes",
          "name": "signature",
          "type": "bytes"
        }
      ],
      "name": "createElectionWithSignature",
      "outputs": [],
      "stateMutability": "nonpayable",
      "type": "function"
    },
    {
      "inputs": [],
      "name": "eip712Domain",
      "outputs": [
        {
          "internalType": "bytes1",
          "name": "fields",
          "type": "bytes1"
        },
        {
          "internalType": "string",
          "name": "name",
          "type": "string"
        },
        {
          "internalType": "string",
          "name": "version",
          "type": "string"
        },
        {
          "internalType": "uint256",
          "name": "chainId",
          "type": "uint256"
        },
        {
          "internalType": "address",
          "name": "verifyingContract",
          "type": "address"
        },
        {
          "internalType": "bytes32",
          "name": "salt",
          "type": "bytes32"
        },
        {
          "internalType": "uint256[]",
          "name": "extensions",
          "type": "uint256[]"
        }
      ],
      "stateMutability": "view",
      "type": "function"
    },
    {
      "inputs": [
        {
          "internalType": "uint256",
          "name": "",
          "type": "uint256"
        },
        {
          "internalType": "uint256",
          "name": "",
          "type": "uint256"
        }
      ],
      "name": "electionCandidates",
      "outputs": [
        {
          "internalType": "uint256",
          "name": "id",
          "type": "uint256"
        },
        {
          "internalType": "string",
          "name": "name",
          "type": "string"
        },
        {
          "internalType": "uint256",
          "name": "voteCount",
          "type": "uint256"
        }
      ],
      "stateMutability": "view",
      "type": "function"
    },
    {
      "inputs": [],
      "name": "electionCounter",
      "outputs": [
        {
          "internalType": "uint256",
          "name": "",
          "type": "uint256"
        }
      ],
      "stateMutability": "view",
      "type": "function"
    },
    {
      "inputs": [
        {
          "internalType": "uint256",
          "name": "",
          "type": "uint256"
        }
      ],
      "name": "elections",
      "outputs": [
        {
          "internalType": "uint256",
          "name": "id",
          "type": "uint256"
        },
        {
          "internalType": "address",
          "name": "creator",
          "type": "address"
        },
        {
          "internalType": "string",
          "name": "name",
          "type": "string"
        },
        {
          "internalType": "uint256",
          "name": "startTime",
          "type": "uint256"
        },
        {
          "internalType": "uint256",
          "name": "endTime",
          "type": "uint256"
        },
        {
          "internalType": "uint256",
          "name": "voterLimit",
          "type": "uint256"
        },
        {
          "internalType": "bool",
          "name": "startedManually",
          "type": "bool"
        },
        {
          "internalType": "bool",
          "name": "endedManually",
          "type": "bool"
        },
        {
          "internalType": "bool",
          "name": "isActive",
          "type": "bool"
        },
        {
          "internalType": "uint256",
          "name": "candidateCount",
          "type": "uint256"
        },
        {
          "internalType": "uint256",
          "name": "voterCount",
          "type": "uint256"
        }
      ],
      "stateMutability": "view",
      "type": "function"
    },
    {
      "inputs": [
        {
          "internalType": "uint256",
          "name": "_electionId",
          "type": "uint256"
        }
      ],
      "name": "endElection",
      "outputs": [],
      "stateMutability": "nonpayable",
      "type": "function"
    },
    {
      "inputs": [],
      "name": "getActiveElections",
      "outputs": [
        {
          "components": [
            {
              "internalType": "uint256",
              "name": "id",
              "type": "uint256"
            },
            {
              "internalType": "string",
              "name": "name",
              "type": "string"
            },
            {
              "internalType": "uint256",
              "name": "startTime",
              "type": "uint256"
            },
            {
              "internalType": "uint256",
              "name": "endTime",
              "type": "uint256"
            },
            {
              "internalType": "bool",
              "name": "isActive",
              "type": "bool"
            },
            {
              "internalType": "bool",
              "name": "startedManually",
              "type": "bool"
            },
            {
              "internalType": "bool",
              "name": "endedManually",
              "type": "bool"
            },
            {
              "internalType": "uint256",
              "name": "candidateCount",
              "type": "uint256"
            },
            {
              "internalType": "uint256",
              "name": "voterLimit",
              "type": "uint256"
            },
            {
              "components": [
                {
                  "internalType": "uint256",
                  "name": "id",
                  "type": "uint256"
                },
                {
                  "internalType": "string",
                  "name": "name",
                  "type": "string"
                },
                {
                  "internalType": "uint256",
                  "name": "voteCount",
                  "type": "uint256"
                }
              ],
              "internalType": "struct VotingSystem.CandidateView[]",
              "name": "candidates",
              "type": "tuple[]"
            }
          ],
          "internalType": "struct VotingSystem.ElectionWithCandidates[]",
          "name": "",
          "type": "tuple[]"
        }
      ],
      "stateMutability": "view",
      "type": "function"
    },
    {
      "inputs": [],
      "name": "getAllElections",
      "outputs": [
        {
          "components": [
            {
              "internalType": "uint256",
              "name": "id",
              "type": "uint256"
            },
            {
              "internalType": "string",
              "name": "name",
              "type": "string"
            },
            {
              "internalType": "uint256",
              "name": "startTime",
              "type": "uint256"
            },
            {
              "internalType": "uint256",
              "name": "endTime",
              "type": "uint256"
            },
            {
              "internalType": "bool",
              "name": "isActive",
              "type": "bool"
            },
            {
              "internalType": "bool",
              "name": "startedManually",
              "type": "bool"
            },
            {
              "internalType": "bool",
              "name": "endedManually",
              "type": "bool"
            },
            {
              "internalType": "uint256",
              "name": "candidateCount",
              "type": "uint256"
            },
            {
              "internalType": "uint256",
              "name": "voterLimit",
              "type": "uint256"
            },
            {
              "components": [
                {
                  "internalType": "uint256",
                  "name": "id",
                  "type": "uint256"
                },
                {
                  "internalType": "string",
                  "name": "name",
                  "type": "string"
                },
                {
                  "internalType": "uint256",
                  "name": "voteCount",
                  "type": "uint256"
                }
              ],
              "internalType": "struct VotingSystem.CandidateView[]",
              "name": "candidates",
              "type": "tuple[]"
            }
          ],
          "internalType": "struct VotingSystem.ElectionWithCandidates[]",
          "name": "",
          "type": "tuple[]"
        }
      ],
      "stateMutability": "view",
      "type": "function"
    },
    {
      "inputs": [
        {
          "internalType": "uint256",
          "name": "_electionId",
          "type": "uint256"
        }
      ],
      "name": "getCandidates",
      "outputs": [
        {
          "components": [
            {
              "internalType": "uint256",
              "name": "id",
              "type": "uint256"
            },
            {
              "internalType": "string",
              "name": "name",
              "type": "string"
            },
            {
              "internalType": "uint256",
              "name": "voteCount",
              "type": "uint256"
            }
          ],
          "internalType": "struct VotingSystem.CandidateView[]",
          "name": "",
          "type": "tuple[]"
        }
      ],
      "stateMutability": "view",
      "type": "function"
    },
    {
      "inputs": [
        {
          "internalType": "uint256[]",
          "name": "ids",
          "type": "uint256[]"
        }
      ],
      "name": "getElectionsByIds",
      "outputs": [
        {
          "components": [
            {
              "internalType": "uint256",
              "name": "id",
              "type": "uint256"
            },
            {
              "internalType": "string",
              "name": "name",
              "type": "string"
            },
            {
              "internalType": "uint256",
              "name": "startTime",
              "type": "uint256"
            },
            {
              "internalType": "uint256",
              "name": "endTime",
              "type": "uint256"
            },
            {
              "internalType": "bool",
              "name": "isActive",
              "type": "bool"
            },
            {
              "internalType": "bool",
              "name": "startedManually",
              "type": "bool"
            },
            {
              "internalType": "bool",
              "name": "endedManually",
              "type": "bool"
            },
            {
              "internalType": "uint256",
              "name": "candidateCount",
              "type": "uint256"
            },
            {
              "internalType": "uint256",
              "name": "voterLimit",
              "type": "uint256"
            },
            {
              "components": [
                {
                  "internalType": "uint256",
                  "name": "id",
                  "type": "uint256"
                },
                {
                  "internalType": "string",
                  "name": "name",
                  "type": "string"
                },
                {
                  "internalType": "uint256",
                  "name": "voteCount",
                  "type": "uint256"
                }
              ],
              "internalType": "struct VotingSystem.CandidateView[]",
              "name": "candidates",
              "type": "tuple[]"
            }
          ],
          "internalType": "struct VotingSystem.ElectionWithCandidates[]",
          "name": "",
          "type": "tuple[]"
        }
      ],
      "stateMutability": "view",
      "type": "function"
    },
    {
      "inputs": [],
      "name": "getMyElections",
      "outputs": [
        {
          "components": [
            {
              "internalType": "uint256",
              "name": "id",
              "type": "uint256"
            },
            {
              "internalType": "string",
              "name": "name",
              "type": "string"
            },
            {
              "internalType": "uint256",
              "name": "startTime",
              "type": "uint256"
            },
            {
              "internalType": "uint256",
              "name": "endTime",
              "type": "uint256"
            },
            {
              "internalType": "bool",
              "name": "isActive",
              "type": "bool"
            },
            {
              "internalType": "bool",
              "name": "startedManually",
              "type": "bool"
            },
            {
              "internalType": "bool",
              "name": "endedManually",
              "type": "bool"
            },
            {
              "internalType": "uint256",
              "name": "candidateCount",
              "type": "uint256"
            },
            {
              "internalType": "uint256",
              "name": "voterLimit",
              "type": "uint256"
            },
            {
              "components": [
                {
                  "internalType": "uint256",
                  "name": "id",
                  "type": "uint256"
                },
                {
                  "internalType": "string",
                  "name": "name",
                  "type": "string"
                },
                {
                  "internalType": "uint256",
                  "name": "voteCount",
                  "type": "uint256"
                }
              ],
              "internalType": "struct VotingSystem.CandidateView[]",
              "name": "candidates",
              "type": "tuple[]"
            }
          ],
          "internalType": "struct VotingSystem.ElectionWithCandidates[]",
          "name": "",
          "type": "tuple[]"
        }
      ],
      "stateMutability": "view",
      "type": "function"
    },
    {
      "inputs": [
        {
          "internalType": "uint256",
          "name": "_electionId",
          "type": "uint256"
        }
      ],
      "name": "getMyVote",
      "outputs": [
        {
          "internalType": "bool",
          "name": "hasVoted",
          "type": "bool"
        },
        {
          "internalType": "uint256",
          "name": "candidateId",
          "type": "uint256"
        },
        {
          "internalType": "string",
          "name": "candidateName",
          "type": "string"
        }
      ],
      "stateMutability": "view",
      "type": "function"
    },
    {
      "inputs": [
        {
          "internalType": "uint256",
          "name": "_electionId",
          "type": "uint256"
        }
      ],
      "name": "getResults",
      "outputs": [
        {
          "components": [
            {
              "internalType": "uint256",
              "name": "id",
              "type": "uint256"
            },
            {
              "internalType": "string",
              "name": "name",
              "type": "string"
            },
            {
              "internalType": "uint256",
              "name": "voteCount",
              "type": "uint256"
            }
          ],
          "internalType": "struct VotingSystem.Candidate[]",
          "name": "",
          "type": "tuple[]"
        }
      ],
      "stateMutability": "view",
      "type": "function"
    },
    {
      "inputs": [
        {
          "internalType": "address",
          "name": "user",
          "type": "address"
        }
      ],
      "name": "getUserElections",
      "outputs": [
        {
          "components": [
            {
              "internalType": "uint256",
              "name": "id",
              "type": "uint256"
            },
            {
              "internalType": "string",
              "name": "name",
              "type": "string"
            },
            {
              "internalType": "uint256",
              "name": "startTime",
              "type": "uint256"
            },
            {
              "internalType": "uint256",
              "name": "endTime",
              "type": "uint256"
            },
            {
              "internalType": "bool",
              "name": "isActive",
              "type": "bool"
            },
            {
              "internalType": "bool",
              "name": "startedManually",
              "type": "bool"
            },
            {
              "internalType": "bool",
              "name": "endedManually",
              "type": "bool"
            },
            {
              "internalType": "uint256",
              "name": "candidateCount",
              "type": "uint256"
            },
            {
              "internalType": "uint256",
              "name": "voterLimit",
              "type": "uint256"
            },
            {
              "components": [
                {
                  "internalType": "uint256",
                  "name": "id",
                  "type": "uint256"
                },
                {
                  "internalType": "string",
                  "name": "name",
                  "type": "string"
                },
                {
                  "internalType": "uint256",
                  "name": "voteCount",
                  "type": "uint256"
                }
              ],
              "internalType": "struct VotingSystem.CandidateView[]",
              "name": "candidates",
              "type": "tuple[]"
            }
          ],
          "internalType": "struct VotingSystem.ElectionWithCandidates[]",
          "name": "",
          "type": "tuple[]"
        }
      ],
      "stateMutability": "view",
      "type": "function"
    },
    {
      "inputs": [
        {
          "internalType": "uint256",
          "name": "_electionId",
          "type": "uint256"
        }
      ],
      "name": "startElection",
      "outputs": [],
      "stateMutability": "nonpayable",
      "type": "function"
    },
    {
      "inputs": [
        {
          "internalType": "uint256",
          "name": "_electionId",
          "type": "uint256"
        },
        {
          "internalType": "uint256",
          "name": "_candidateId",
          "type": "uint256"
        }
      ],
      "name": "vote",
      "outputs": [],
      "stateMutability": "nonpayable",
      "type": "function"
    },
    {
      "inputs": [
        {
          "internalType": "uint256",
          "name": "_electionId",
          "type": "uint256"
        },
        {
          "internalType": "uint256",
          "name": "_candidateId",
          "type": "uint256"
        },
        {
          "internalType": "address",
          "name": "_voter",
          "type": "address"
        },
        {
          "internalType": "bytes",
          "name": "voterSignature",
          "type": "bytes"
        },
        {
          "internalType": "bytes",
          "name": "authSignature",
          "type": "bytes"
        }
      ],
      "name": "voteWithSignature",
      "outputs": [],
      "stateMutability": "nonpayable",
      "type": "function"
    }
  ],
  "bytecode": "0x61016060405234801561001157600080fd5b506040518060400160405280600c81526020017f566f74696e6753797374656d00000000000000000000000000000000000000008152506040518060400160405280600181526020017f310000000000000000000000000000000000000000000000000000000000000081525061009260008361016e60201b90919060201c565b61012081815250506100ae60018261016e60201b90919060201c565b6101408181525050818051906020012060e08181525050808051906020012061010081815250504660a081815250506100eb6101be60201b60201c565b608081815250503073ffffffffffffffffffffffffffffffffffffffff1660c08173ffffffffffffffffffffffffffffffffffffffff1681525050505033600260006101000a81548173ffffffffffffffffffffffffffffffffffffffff021916908373ffffffffffffffffffffffffffffffffffffffff1602179055506107a7565b6000602083511015610190576101898361021960201b60201c565b90506101b8565b826101a08361028160201b60201c565b60000190816101af91906104db565b5060ff60001b90505b92915050565b60007f8b73c3c69bb8fe3d512ecc4cf759cc79239f7b179b0ffacaa9a75d522b39400f60e0516101005146306040516020016101fe959493929190610616565b60405160208183030381529060405280519060200120905090565b600080829050601f8151111561026657826040517f305a27a900000000000000000000000000000000000000000000000000000000815260040161025d91906106ee565b60405180910390fd5b80518161027290610740565b60001c1760001b915050919050565b6000819050919050565b600081519050919050565b7f4e487b7100000000000000000000000000000000000000000000000000000000600052604160045260246000fd5b7f4e487b7100000000000000000000000000000000000000000000000000000000600052602260045260246000fd5b6000600282049050600182168061030c57607f821691505b60208210810361031f5761031e6102c5565b5b50919050565b60008190508160005260206000209050919050565b60006020601f8301049050919050565b600082821b905092915050565b6000600883026103877fffffffffffffffffffffffffffffffffffffffffffffffffffffffffffffffff8261034a565b610391868361034a565b95508019841693508086168417925050509392505050565b6000819050919050565b6000819050919050565b60006103d86103d36103ce846103a9565b6103b3565b6103a9565b9050919050565b6000819050919050565b6103f2836103bd565b6104066103fe826103df565b848454610357565b825550505050565b600090565b61041b61040e565b6104268184846103e9565b505050565b5b8181101561044a5761043f600082610413565b60018101905061042c565b5050565b601f82111561048f5761046081610325565b6104698461033a565b81016020851015610478578190505b61048c6104848561033a565b83018261042b565b50505b505050565b600082821c905092915050565b60006104b260001984600802610494565b1980831691505092915050565b60006104cb83836104a1565b9150826002028217905092915050565b6104e48261028b565b67ffffffffffffffff8111156104fd576104fc610296565b5b61050782546102f4565b61051282828561044e565b600060209050601f8311600181146105455760008415610533578287015190505b61053d85826104bf565b8655506105a5565b601f19841661055386610325565b60005b8281101561057b57848901518255600182019150602085019450602081019050610556565b868310156105985784890151610594601f8916826104a1565b8355505b6001600288020188555050505b505050505050565b6000819050919050565b6105c0816105ad565b82525050565b6105cf816103a9565b82525050565b600073ffffffffffffffffffffffffffffffffffffffff82169050919050565b6000610600826105d5565b9050919050565b610610816105f5565b82525050565b600060a08201905061062b60008301886105b7565b61063860208301876105b7565b61064560408301866105b7565b61065260608301856105c6565b61065f6080830184610607565b9695505050505050565b600082825260208201905092915050565b60005b8381101561069857808201518184015260208101905061067d565b60008484015250505050565b6000601f19601f8301169050919050565b60006106c08261028b565b6106ca8185610669565b93506106da81856020860161067a565b6106e3816106a4565b840191505092915050565b6000602082019050818103600083015261070881846106b5565b905092915050565b600081519050919050565b6000819050602082019050919050565b600061073782516105ad565b80915050919050565b600061074b82610710565b826107558461071b565b90506107608161072b565b925060208210156107a05761079b7fffffffffffffffffffffffffffffffffffffffffffffffffffffffffffffffff8360200360080261034a565b831692505b5050919050565b60805160a05160c05160e0516101005161012051610140516153a86108016000396000612cb001526000612c750152600061346e0152600061344d015260006130c40152600061311a0152600061314301526153a86000f3fe608060405234801561001057600080fd5b50600436106101425760003560e01c806381a60c0d116100b8578063a42c56f71161007c578063a42c56f714610387578063b384abef146103b9578063ba2e0cc2146103d5578063f0786096146103f1578063f76b40491461040f578063f851a4401461044157610142565b806381a60c0d146102dd57806384b0196e1461030d5780638a3b63b01461033157806399c76b6a1461034f5780639c98bcbb1461036b57610142565b80633e39a7a51161010a5780633e39a7a5146101eb5780635e6fef011461021b578063600bb84c1461025557806361e37417146102855780636d32dc4b146102a35780637fd5f268146102bf57610142565b806301786e7f14610147578063146697661461016557806328e58f371461019557806332d8e75f146101b15780633caea26c146101cd575b600080fd5b61014f61045f565b60405161015c9190613a8a565b60405180910390f35b61017f600480360381019061017a9190613b1e565b61046f565b60405161018c9190613a8a565b60405180910390f35b6101af60048036038101906101aa9190613d92565b610481565b005b6101cb60048036038101906101c69190613ebb565b6105f1565b005b6101d56108a6565b6040516101e29190613fb5565b60405180910390f35b61020560048036038101906102009190613fd0565b6108ca565b6040516102129190614083565b60405180910390f35b61023560048036038101906102309190613fd0565b610a93565b60405161024c9b9a9998979695949392919061411c565b60405180910390f35b61026f600480360381019061026a9190614229565b610bbc565b60405161027c9190613a8a565b60405180910390f35b61028d610fdd565b60405161029a9190614276565b60405180910390f35b6102bd60048036038101906102b89190613fd0565b610fe3565b005b6102c761125c565b6040516102d49190613a8a565b60405180910390f35b6102f760048036038101906102f29190613fd0565b611590565b60405161030491906143a3565b60405180910390f35b610315611692565b60405161032897969594939291906144af565b60405180910390f35b61033961173c565b6040516103469190613a8a565b60405180910390f35b61036960048036038101906103649190614533565b611b25565b005b61038560048036038101906103809190613fd0565b611cf2565b005b6103a1600480360381019061039c91906145d2565b611f18565b6040516103b093929190614612565b60405180910390f35b6103d360048036038101906103ce91906145d2565b611fe7565b005b6103ef60048036038101906103ea9190614650565b61203c565b005b6103f96122c4565b6040516104069190614276565b60405180910390f35b61042960048036038101906104249190613fd0565b6122c9565b60405161043893929190614703565b60405180910390f35b6104496124ac565b6040516104569190614741565b60405180910390f35b606061046a336124d2565b905090565b606061047a826124d2565b9050919050565b8160006004600083815260200190815260200160002090508060010160009054906101000a900473ffffffffffffffffffffffffffffffffffffffff1673ffffffffffffffffffffffffffffffffffffffff163373ffffffffffffffffffffffffffffffffffffffff1614806105445750600260009054906101000a900473ffffffffffffffffffffffffffffffffffffffff1673ffffffffffffffffffffffffffffffffffffffff163373ffffffffffffffffffffffffffffffffffffffff16145b610583576040517f08c379a000000000000000000000000000000000000000000000000000000000815260040161057a906147a8565b60405180910390fd5b8360035481106105c8576040517f08c379a00000000000000000000000000000000000000000000000000000000081526004016105bf90614814565b60405180910390fd5b60006004600087815260200190815260200160002090506105e981866128be565b505050505050565b60007fc01c9b1d6a80d8bb2e7cf5ca4b339fda2ea6d9ea14e961bc26ad4e24b82157848780519060200120878787604051602001610633959493929190614834565b604051602081830303815290604052805190602001209050600061065682612aa6565b905060006106648285612ac0565b90508573ffffffffffffffffffffffffffffffffffffffff168173ffffffffffffffffffffffffffffffffffffffff16146106d4576040517f08c379a00000000000000000000000000000000000000000000000000000000081526004016106cb906148d3565b60405180910390fd5b600060046000600354815260200190815260200160002090506003548160000181905550868160010160006101000a81548173ffffffffffffffffffffffffffffffffffffffff021916908373ffffffffffffffffffffffffffffffffffffffff1602179055508981600201908161074c9190614aff565b5087816005018190555088156107a45742816003018190555060018160060160026101000a81548160ff02191690831515021790555060018160060160006101000a81548160ff0219169083151502179055506107cc565b6000816003018190555060008160060160026101000a81548160ff0219169083151502179055505b600081600401819055506107e081876128be565b600760008873ffffffffffffffffffffffffffffffffffffffff1673ffffffffffffffffffffffffffffffffffffffff16815260200190815260200160002060035490806001815401808255809150506001900390600052602060002001600090919091909150556003547f52be7c4e77b4de76b7607d621492061fe13b58597e72dfb5e51ab8f6187ed1418b60405161087a9190614bd1565b60405180910390a26003600081548092919061089590614c22565b919050555050505050505050505050565b7fc01c9b1d6a80d8bb2e7cf5ca4b339fda2ea6d9ea14e961bc26ad4e24b821578481565b6060816003548110610911576040517f08c379a000000000000000000000000000000000000000000000000000000000815260040161090890614814565b60405180910390fd5b60006004600085815260200190815260200160002090506000816007015467ffffffffffffffff81111561094857610947613b7c565b5b60405190808252806020026020018201604052801561098157816020015b61096e613676565b8152602001906001900390816109665790505b50905060005b8260070154811015610a8757600083600901600083815260200190815260200160002090506040518060600160405280826000015481526020018260010180546109d090614922565b80601f01602080910402602001604051908101604052809291908181526020018280546109fc90614922565b8015610a495780601f10610a1e57610100808354040283529160200191610a49565b820191906000526020600020905b815481529060010190602001808311610a2c57829003601f168201915b505050505081526020018260020154815250838381518110610a6e57610a6d614c6a565b5b6020026020010181905250508080600101915050610987565b50809350505050919050565b60046020528060005260406000206000915090508060000154908060010160009054906101000a900473ffffffffffffffffffffffffffffffffffffffff1690806002018054610ae290614922565b80601f0160208091040260200160405190810160405280929190818152602001828054610b0e90614922565b8015610b5b5780601f10610b3057610100808354040283529160200191610b5b565b820191906000526020600020905b815481529060010190602001808311610b3e57829003601f168201915b5050505050908060030154908060040154908060050154908060060160009054906101000a900460ff16908060060160019054906101000a900460ff16908060060160029054906101000a900460ff1690806007015490806008015490508b565b606060008383905067ffffffffffffffff811115610bdd57610bdc613b7c565b5b604051908082528060200260200182016040528015610c1657816020015b610c03613697565b815260200190600190039081610bfb5790505b5090506000805b85859050811015610f26576000868683818110610c3d57610c3c614c6a565b5b9050602002013590506003548110610c555750610f19565b60006004600083815260200190815260200160002090506000816007015467ffffffffffffffff811115610c8c57610c8b613b7c565b5b604051908082528060200260200182016040528015610cc557816020015b610cb2613676565b815260200190600190039081610caa5790505b50905060005b8260070154811015610dcb5760008360090160008381526020019081526020016000209050604051806060016040528082600001548152602001826001018054610d1490614922565b80601f0160208091040260200160405190810160405280929190818152602001828054610d4090614922565b8015610d8d5780601f10610d6257610100808354040283529160200191610d8d565b820191906000526020600020905b815481529060010190602001808311610d7057829003601f168201915b505050505081526020018260020154815250838381518110610db257610db1614c6a565b5b6020026020010181905250508080600101915050610ccb565b5060405180610140016040528083600001548152602001836002018054610df190614922565b80601f0160208091040260200160405190810160405280929190818152602001828054610e1d90614922565b8015610e6a5780601f10610e3f57610100808354040283529160200191610e6a565b820191906000526020600020905b815481529060010190602001808311610e4d57829003601f168201915b5050505050815260200183600301548152602001836004015481526020018360060160029054906101000a900460ff16151581526020018360060160009054906101000a900460ff16151581526020018360060160019054906101000a900460ff1615158152602001836007015481526020018360050154815260200182815250868680610ef790614c22565b975081518110610f0a57610f09614c6a565b5b60200260200101819052505050505b8080600101915050610c1d565b5060008167ffffffffffffffff811115610f4357610f42613b7c565b5b604051908082528060200260200182016040528015610f7c57816020015b610f69613697565b815260200190600190039081610f615790505b50905060005b82811015610fd057838181518110610f9d57610f9c614c6a565b5b6020026020010151828281518110610fb857610fb7614c6a565b5b60200260200101819052508080600101915050610f82565b5080935050505092915050565b60035481565b806003548110611028576040517f08c379a000000000000000000000000000000000000000000000000000000000815260040161101f90614814565b60405180910390fd5b8160006004600083815260200190815260200160002090508060010160009054906101000a900473ffffffffffffffffffffffffffffffffffffffff1673ffffffffffffffffffffffffffffffffffffffff163373ffffffffffffffffffffffffffffffffffffffff1614806110eb5750600260009054906101000a900473ffffffffffffffffffffffffffffffffffffffff1673ffffffffffffffffffffffffffffffffffffffff163373ffffffffffffffffffffffffffffffffffffffff16145b61112a576040517f08c379a0000000000000000000000000000000000000000000000000000000008152600401611121906147a8565b60405180910390fd5b60006004600086815260200190815260200160002090508060060160029054906101000a900460ff1615611193576040517f08c379a000000000000000000000000000000000000000000000000000000000815260040161118a90614ce5565b60405180910390fd5b8060060160019054906101000a900460ff16156111e5576040517f08c379a00000000000000000000000000000000000000000000000000000000081526004016111dc90614d77565b60405180910390fd5b60018160060160026101000a81548160ff02191690831515021790555060018160060160006101000a81548160ff021916908315150217905550428160030181905550847f159eee87222a0489c529f2153c26ad65d718f2cc33ebaa8d399d1dd5b39facaa60405160405180910390a25050505050565b6060600060035467ffffffffffffffff81111561127c5761127b613b7c565b5b6040519080825280602002602001820160405280156112b557816020015b6112a2613697565b81526020019060019003908161129a5790505b50905060005b6003548110156115885760006004600083815260200190815260200160002090506000816007015467ffffffffffffffff8111156112fc576112fb613b7c565b5b60405190808252806020026020018201604052801561133557816020015b611322613676565b81526020019060019003908161131a5790505b50905060005b826007015481101561143b576000836009016000838152602001908152602001600020905060405180606001604052808260000154815260200182600101805461138490614922565b80601f01602080910402602001604051908101604052809291908181526020018280546113b090614922565b80156113fd5780601f106113d2576101008083540402835291602001916113fd565b820191906000526020600020905b8154815290600101906020018083116113e057829003601f168201915b50505050508152602001826002015481525083838151811061142257611421614c6a565b5b602002602001018190525050808060010191505061133b565b506040518061014001604052808360000154815260200183600201805461146190614922565b80601f016020809104026020016040519081016040528092919081815260200182805461148d90614922565b80156114da5780601f106114af576101008083540402835291602001916114da565b820191906000526020600020905b8154815290600101906020018083116114bd57829003601f168201915b5050505050815260200183600301548152602001836004015481526020018360060160029054906101000a900460ff16151581526020018360060160009054906101000a900460ff16151581526020018360060160019054906101000a900460ff161515815260200183600701548152602001836005015481526020018281525084848151811061156e5761156d614c6a565b5b6020026020010181905250505080806001019150506112bb565b508091505090565b60608160035481106115d7576040517f08c379a00000000000000000000000000000000000000000000000000000000081526004016115ce90614814565b60405180910390fd5b60006004600085815260200190815260200160002090508060060160019054906101000a900460ff168061161e57506000816004015411801561161d5750806004015442115b5b8061164157506000816005015411801561164057508060050154816008015410155b5b611680576040517f08c379a000000000000000000000000000000000000000000000000000000000815260040161167790614de3565b60405180910390fd5b61168984612aec565b92505050919050565b6000606080600080600060606116a6612c6c565b6116ae612ca7565b46306000801b600067ffffffffffffffff8111156116cf576116ce613b7c565b5b6040519080825280602002602001820160405280156116fd5781602001602082028036833780820191505090505b507f0f00000000000000000000000000000000000000000000000000000000000000959493929190965096509650965096509650965090919293949596565b60606000805b6003548110156117b25760006004600083815260200190815260200160002090508060060160029054906101000a900460ff16801561179057508060060160019054906101000a900460ff16155b156117a45782806117a090614c22565b9350505b508080600101915050611742565b5060008167ffffffffffffffff8111156117cf576117ce613b7c565b5b60405190808252806020026020018201604052801561180857816020015b6117f5613697565b8152602001906001900390816117ed5790505b5090506000805b600354811015611b1b5760006004600083815260200190815260200160002090508060060160029054906101000a900460ff16801561185d57508060060160019054906101000a900460ff16155b15611b0d576000816007015467ffffffffffffffff81111561188257611881613b7c565b5b6040519080825280602002602001820160405280156118bb57816020015b6118a8613676565b8152602001906001900390816118a05790505b50905060005b82600701548110156119c1576000836009016000838152602001908152602001600020905060405180606001604052808260000154815260200182600101805461190a90614922565b80601f016020809104026020016040519081016040528092919081815260200182805461193690614922565b80156119835780601f1061195857610100808354040283529160200191611983565b820191906000526020600020905b81548152906001019060200180831161196657829003601f168201915b5050505050815260200182600201548152508383815181106119a8576119a7614c6a565b5b60200260200101819052505080806001019150506118c1565b50604051806101400160405280836000015481526020018360020180546119e790614922565b80601f0160208091040260200160405190810160405280929190818152602001828054611a1390614922565b8015611a605780601f10611a3557610100808354040283529160200191611a60565b820191906000526020600020905b815481529060010190602001808311611a4357829003601f168201915b5050505050815260200183600301548152602001836004015481526020018360060160029054906101000a900460ff16151581526020018360060160009054906101000a900460ff16151581526020018360060160019054906101000a900460ff1615158152602001836007015481526020018360050154815260200182815250858580611aed90614c22565b965081518110611b0057611aff614c6a565b5b6020026020010181905250505b50808060010191505061180f565b5081935050505090565b600060046000600354815260200190815260200160002090506003548160000181905550338160010160006101000a81548173ffffffffffffffffffffffffffffffffffffffff021916908373ffffffffffffffffffffffffffffffffffffffff16021790555084816002019081611b9d9190614aff565b508281600501819055508315611bf55742816003018190555060018160060160026101000a81548160ff02191690831515021790555060018160060160006101000a81548160ff021916908315150217905550611c1d565b6000816003018190555060008160060160026101000a81548160ff0219169083151502179055505b60008160040181905550611c3181836128be565b600760003373ffffffffffffffffffffffffffffffffffffffff1673ffffffffffffffffffffffffffffffffffffffff16815260200190815260200160002060035490806001815401808255809150506001900390600052602060002001600090919091909150556003547f52be7c4e77b4de76b7607d621492061fe13b58597e72dfb5e51ab8f6187ed14186604051611ccb9190614bd1565b60405180910390a260036000815480929190611ce690614c22565b91905055505050505050565b806003548110611d37576040517f08c379a0000000000000000000000000000000000000000000000000000000008152600401611d2e90614814565b60405180910390fd5b8160006004600083815260200190815260200160002090508060010160009054906101000a900473ffffffffffffffffffffffffffffffffffffffff1673ffffffffffffffffffffffffffffffffffffffff163373ffffffffffffffffffffffffffffffffffffffff161480611dfa5750600260009054906101000a900473ffffffffffffffffffffffffffffffffffffffff1673ffffffffffffffffffffffffffffffffffffffff163373ffffffffffffffffffffffffffffffffffffffff16145b611e39576040517f08c379a0000000000000000000000000000000000000000000000000000000008152600401611e30906147a8565b60405180910390fd5b60006004600086815260200190815260200160002090508060060160029054906101000a900460ff16611ea1576040517f08c379a0000000000000000000000000000000000000000000000000000000008152600401611e9890614e4f565b60405180910390fd5b60008160060160026101000a81548160ff02191690831515021790555060018160060160016101000a81548160ff021916908315150217905550428160040181905550847f562cd572b2ba3b666cd989fc4ca98419ec81e75f04528df9d9d76fdb7807ee7160405160405180910390a25050505050565b60066020528160005260406000208181548110611f3457600080fd5b906000526020600020906003020160009150915050806000015490806001018054611f5e90614922565b80601f0160208091040260200160405190810160405280929190818152602001828054611f8a90614922565b8015611fd75780601f10611fac57610100808354040283529160200191611fd7565b820191906000526020600020905b815481529060010190602001808311611fba57829003601f168201915b5050505050908060020154905083565b81600354811061202c576040517f08c379a000000000000000000000000000000000000000000000000000000000815260040161202390614814565b60405180910390fd5b612037838333612ce2565b505050565b846003548110612081576040517f08c379a000000000000000000000000000000000000000000000000000000000815260040161207890614814565b60405180910390fd5b600060405180606001604052808881526020018781526020018673ffffffffffffffffffffffffffffffffffffffff16815250905060007f9e93967796b3e5daa51cda7800d50a238114477651ceb669fca594439aef16058260000151836020015184604001516040516020016120fb9493929190614e6f565b604051602081830303815290604052805190602001209050600061211e82612aa6565b9050600061212c8288612ac0565b90508773ffffffffffffffffffffffffffffffffffffffff168173ffffffffffffffffffffffffffffffffffffffff161461219c576040517f08c379a0000000000000000000000000000000000000000000000000000000008152600401612193906148d3565b60405180910390fd5b60007fe1d8afb786acf71584f5e66cd58b29de3484a45b7e022cf10399c5749de558168b8a6040516020016121d393929190614eb4565b60405160208183030381529060405280519060200120905060006121f682612aa6565b90506000612204828a612ac0565b9050600460008e815260200190815260200160002060010160009054906101000a900473ffffffffffffffffffffffffffffffffffffffff1673ffffffffffffffffffffffffffffffffffffffff168173ffffffffffffffffffffffffffffffffffffffff16146122aa576040517f08c379a00000000000000000000000000000000000000000000000000000000081526004016122a190614f37565b60405180910390fd5b6122b58d8d8d612ce2565b50505050505050505050505050565b606481565b6000806060836003548110612313576040517f08c379a000000000000000000000000000000000000000000000000000000000815260040161230a90614814565b60405180910390fd5b600060046000878152602001908152602001600020905080600b0160003373ffffffffffffffffffffffffffffffffffffffff1673ffffffffffffffffffffffffffffffffffffffff16815260200190815260200160002060009054906101000a900460ff169450841561246d5780600c0160003373ffffffffffffffffffffffffffffffffffffffff1673ffffffffffffffffffffffffffffffffffffffff16815260200190815260200160002054935080600901600085815260200190815260200160002060010180546123e890614922565b80601f016020809104026020016040519081016040528092919081815260200182805461241490614922565b80156124615780601f1061243657610100808354040283529160200191612461565b820191906000526020600020905b81548152906001019060200180831161244457829003601f168201915b505050505092506124a3565b7fffffffffffffffffffffffffffffffffffffffffffffffffffffffffffffffff93506040518060200160405280600081525092505b50509193909250565b600260009054906101000a900473ffffffffffffffffffffffffffffffffffffffff1681565b60606000600760008473ffffffffffffffffffffffffffffffffffffffff1673ffffffffffffffffffffffffffffffffffffffff16815260200190815260200160002080548060200260200160405190810160405280929190818152602001828054801561255f57602002820191906000526020600020905b81548152602001906001019080831161254b575b5050505050905060008151905060008167ffffffffffffffff81111561258857612587613b7c565b5b6040519080825280602002602001820160405280156125c157816020015b6125ae613697565b8152602001906001900390816125a65790505b50905060005b828110156128b25760008482815181106125e4576125e3614c6a565b5b6020026020010151905060006004600083815260200190815260200160002090506000816007015467ffffffffffffffff81111561262557612624613b7c565b5b60405190808252806020026020018201604052801561265e57816020015b61264b613676565b8152602001906001900390816126435790505b50905060005b826007015481101561276457600083600901600083815260200190815260200160002090506040518060600160405280826000015481526020018260010180546126ad90614922565b80601f01602080910402602001604051908101604052809291908181526020018280546126d990614922565b80156127265780601f106126fb57610100808354040283529160200191612726565b820191906000526020600020905b81548152906001019060200180831161270957829003601f168201915b50505050508152602001826002015481525083838151811061274b5761274a614c6a565b5b6020026020010181905250508080600101915050612664565b506040518061014001604052808360000154815260200183600201805461278a90614922565b80601f01602080910402602001604051908101604052809291908181526020018280546127b690614922565b80156128035780601f106127d857610100808354040283529160200191612803565b820191906000526020600020905b8154815290600101906020018083116127e657829003601f168201915b5050505050815260200183600301548152602001836004015481526020018360060160029054906101000a900460ff16151581526020018360060160009054906101000a900460ff16151581526020018360060160019054906101000a900460ff161515815260200183600701548152602001836005015481526020018281525085858151811061289757612896614c6a565b5b602002602001018190525050505080806001019150506125c7565b50809350505050919050565b60008151905060648184600701546128d69190614f57565b1115612917576040517f08c379a000000000000000000000000000000000000000000000000000000000815260040161290e90614fd7565b60405180910390fd5b60005b81811015612aa057600083828151811061293757612936614c6a565b5b602002602001015160405160200161294f9190615033565b60405160208183030381529060405280519060200120905084600a01600082815260200190815260200160002060009054906101000a900460ff16156129ca576040517f08c379a00000000000000000000000000000000000000000000000000000000081526004016129c190615096565b60405180910390fd5b6040518060600160405280866007015481526020018584815181106129f2576129f1614c6a565b5b60200260200101518152602001600081525085600901600087600701548152602001908152602001600020600082015181600001556020820151816001019081612a3c9190614aff565b5060408201518160020155905050600185600a01600083815260200190815260200160002060006101000a81548160ff021916908315150217905550846007016000815480929190612a8d90614c22565b919050555050808060010191505061291a565b50505050565b6000612ab9612ab36130c0565b83613177565b9050919050565b600080600080612ad086866131b8565b925092509250612ae08282613214565b82935050505092915050565b606060006004600084815260200190815260200160002090506000816007015467ffffffffffffffff811115612b2557612b24613b7c565b5b604051908082528060200260200182016040528015612b5e57816020015b612b4b6136f0565b815260200190600190039081612b435790505b50905060005b8260070154811015612c615782600901600082815260200190815260200160002060405180606001604052908160008201548152602001600182018054612baa90614922565b80601f0160208091040260200160405190810160405280929190818152602001828054612bd690614922565b8015612c235780601f10612bf857610100808354040283529160200191612c23565b820191906000526020600020905b815481529060010190602001808311612c0657829003601f168201915b50505050508152602001600282015481525050828281518110612c4957612c48614c6a565b5b60200260200101819052508080600101915050612b64565b508092505050919050565b6060612ca260007f000000000000000000000000000000000000000000000000000000000000000061337890919063ffffffff16565b905090565b6060612cdd60017f000000000000000000000000000000000000000000000000000000000000000061337890919063ffffffff16565b905090565b60006004600085815260200190815260200160002090508060060160029054906101000a900460ff168015612d2657508060060160019054906101000a900460ff16155b612d65576040517f08c379a0000000000000000000000000000000000000000000000000000000008152600401612d5c90615102565b60405180910390fd5b80600b0160008373ffffffffffffffffffffffffffffffffffffffff1673ffffffffffffffffffffffffffffffffffffffff16815260200190815260200160002060009054906101000a900460ff1615612df4576040517f08c379a0000000000000000000000000000000000000000000000000000000008152600401612deb9061516e565b60405180910390fd5b80600701548310612e3a576040517f08c379a0000000000000000000000000000000000000000000000000000000008152600401612e31906151da565b60405180910390fd5b600081600501541115612e92578060050154816008015410612e91576040517f08c379a0000000000000000000000000000000000000000000000000000000008152600401612e8890615246565b60405180910390fd5b5b8060090160008481526020019081526020016000206002016000815480929190612ebb90614c22565b9190505550600181600b0160008473ffffffffffffffffffffffffffffffffffffffff1673ffffffffffffffffffffffffffffffffffffffff16815260200190815260200160002060006101000a81548160ff0219169083151502179055508281600c0160008473ffffffffffffffffffffffffffffffffffffffff1673ffffffffffffffffffffffffffffffffffffffff16815260200190815260200160002081905550806008016000815480929190612f7590614c22565b919050555060056000858152602001908152602001600020829080600181540180825580915050600190039060005260206000200160009091909190916101000a81548173ffffffffffffffffffffffffffffffffffffffff021916908373ffffffffffffffffffffffffffffffffffffffff1602179055506000816005015411801561300a57508060050154816008015410155b156130805760008160060160026101000a81548160ff02191690831515021790555060018160060160016101000a81548160ff021916908315150217905550428160040181905550837f562cd572b2ba3b666cd989fc4ca98419ec81e75f04528df9d9d76fdb7807ee7160405160405180910390a25b837f7fe1d4e6b34e228b5dc059fcdc037c71b216fb2417f47c171e505144a5e4f5fc84846040516130b2929190615266565b60405180910390a250505050565b60007f000000000000000000000000000000000000000000000000000000000000000073ffffffffffffffffffffffffffffffffffffffff163073ffffffffffffffffffffffffffffffffffffffff1614801561313c57507f000000000000000000000000000000000000000000000000000000000000000046145b15613169577f00000000000000000000000000000000000000000000000000000000000000009050613174565b613171613428565b90505b90565b60006040517f190100000000000000000000000000000000000000000000000000000000000081528360028201528260228201526042812091505092915050565b600080600060418451036131fd5760008060006020870151925060408701519150606087015160001a90506131ef888285856134be565b95509550955050505061320d565b60006002855160001b9250925092505b9250925092565b600060038111156132285761322761528f565b5b82600381111561323b5761323a61528f565b5b031561337457600160038111156132555761325461528f565b5b8260038111156132685761326761528f565b5b0361329f576040517ff645eedf00000000000000000000000000000000000000000000000000000000815260040160405180910390fd5b600260038111156132b3576132b261528f565b5b8260038111156132c6576132c561528f565b5b0361330b578060001c6040517ffce698f70000000000000000000000000000000000000000000000000000000081526004016133029190614276565b60405180910390fd5b60038081111561331e5761331d61528f565b5b8260038111156133315761333061528f565b5b0361337357806040517fd78bce0c00000000000000000000000000000000000000000000000000000000815260040161336a9190613fb5565b60405180910390fd5b5b5050565b606060ff60001b83146133955761338e836135b2565b9050613422565b8180546133a190614922565b80601f01602080910402602001604051908101604052809291908181526020018280546133cd90614922565b801561341a5780601f106133ef5761010080835404028352916020019161341a565b820191906000526020600020905b8154815290600101906020018083116133fd57829003601f168201915b505050505090505b92915050565b60007f8b73c3c69bb8fe3d512ecc4cf759cc79239f7b179b0ffacaa9a75d522b39400f7f00000000000000000000000000000000000000000000000000000000000000007f000000000000000000000000000000000000000000000000000000000000000046306040516020016134a39594939291906152be565b60405160208183030381529060405280519060200120905090565b60008060007f7fffffffffffffffffffffffffffffff5d576e7357a4501ddfe92f46681b20a08460001c11156134fe5760006003859250925092506135a8565b600060018888888860405160008152602001604052604051613523949392919061532d565b6020604051602081039080840390855afa158015613545573d6000803e3d6000fd5b505050602060405103519050600073ffffffffffffffffffffffffffffffffffffffff168173ffffffffffffffffffffffffffffffffffffffff160361359957600060016000801b935093509350506135a8565b8060008060001b935093509350505b9450945094915050565b606060006135bf83613626565b90506000602067ffffffffffffffff8111156135de576135dd613b7c565b5b6040519080825280601f01601f1916602001820160405280156136105781602001600182028036833780820191505090505b5090508181528360208201528092505050919050565b60008060ff8360001c169050601f81111561366d576040517fb3512b0c00000000000000000000000000000000000000000000000000000000815260040160405180910390fd5b80915050919050565b60405180606001604052806000815260200160608152602001600081525090565b604051806101400160405280600081526020016060815260200160008152602001600081526020016000151581526020016000151581526020016000151581526020016000815260200160008152602001606081525090565b60405180606001604052806000815260200160608152602001600081525090565b600081519050919050565b600082825260208201905092915050565b6000819050602082019050919050565b6000819050919050565b6137508161373d565b82525050565b600081519050919050565b600082825260208201905092915050565b60005b83811015613790578082015181840152602081019050613775565b60008484015250505050565b6000601f19601f8301169050919050565b60006137b882613756565b6137c28185613761565b93506137d2818560208601613772565b6137db8161379c565b840191505092915050565b60008115159050919050565b6137fb816137e6565b82525050565b600081519050919050565b600082825260208201905092915050565b6000819050602082019050919050565b60006060830160008301516138456000860182613747565b506020830151848203602086015261385d82826137ad565b91505060408301516138726040860182613747565b508091505092915050565b6000613889838361382d565b905092915050565b6000602082019050919050565b60006138a982613801565b6138b3818561380c565b9350836020820285016138c58561381d565b8060005b8581101561390157848403895281516138e2858261387d565b94506138ed83613891565b925060208a019950506001810190506138c9565b50829750879550505050505092915050565b60006101408301600083015161392c6000860182613747565b506020830151848203602086015261394482826137ad565b91505060408301516139596040860182613747565b50606083015161396c6060860182613747565b50608083015161397f60808601826137f2565b5060a083015161399260a08601826137f2565b5060c08301516139a560c08601826137f2565b5060e08301516139b860e0860182613747565b506101008301516139cd610100860182613747565b506101208301518482036101208601526139e7828261389e565b9150508091505092915050565b6000613a008383613913565b905092915050565b6000602082019050919050565b6000613a2082613711565b613a2a818561371c565b935083602082028501613a3c8561372d565b8060005b85811015613a785784840389528151613a5985826139f4565b9450613a6483613a08565b925060208a01995050600181019050613a40565b50829750879550505050505092915050565b60006020820190508181036000830152613aa48184613a15565b905092915050565b6000604051905090565b600080fd5b600080fd5b600073ffffffffffffffffffffffffffffffffffffffff82169050919050565b6000613aeb82613ac0565b9050919050565b613afb81613ae0565b8114613b0657600080fd5b50565b600081359050613b1881613af2565b92915050565b600060208284031215613b3457613b33613ab6565b5b6000613b4284828501613b09565b91505092915050565b613b548161373d565b8114613b5f57600080fd5b50565b600081359050613b7181613b4b565b92915050565b600080fd5b7f4e487b7100000000000000000000000000000000000000000000000000000000600052604160045260246000fd5b613bb48261379c565b810181811067ffffffffffffffff82111715613bd357613bd2613b7c565b5b80604052505050565b6000613be6613aac565b9050613bf28282613bab565b919050565b600067ffffffffffffffff821115613c1257613c11613b7c565b5b602082029050602081019050919050565b600080fd5b600080fd5b600067ffffffffffffffff821115613c4857613c47613b7c565b5b613c518261379c565b9050602081019050919050565b82818337600083830152505050565b6000613c80613c7b84613c2d565b613bdc565b905082815260208101848484011115613c9c57613c9b613c28565b5b613ca7848285613c5e565b509392505050565b600082601f830112613cc457613cc3613b77565b5b8135613cd4848260208601613c6d565b91505092915050565b6000613cf0613ceb84613bf7565b613bdc565b90508083825260208201905060208402830185811115613d1357613d12613c23565b5b835b81811015613d5a57803567ffffffffffffffff811115613d3857613d37613b77565b5b808601613d458982613caf565b85526020850194505050602081019050613d15565b5050509392505050565b600082601f830112613d7957613d78613b77565b5b8135613d89848260208601613cdd565b91505092915050565b60008060408385031215613da957613da8613ab6565b5b6000613db785828601613b62565b925050602083013567ffffffffffffffff811115613dd857613dd7613abb565b5b613de485828601613d64565b9150509250929050565b613df7816137e6565b8114613e0257600080fd5b50565b600081359050613e1481613dee565b92915050565b600067ffffffffffffffff821115613e3557613e34613b7c565b5b613e3e8261379c565b9050602081019050919050565b6000613e5e613e5984613e1a565b613bdc565b905082815260208101848484011115613e7a57613e79613c28565b5b613e85848285613c5e565b509392505050565b600082601f830112613ea257613ea1613b77565b5b8135613eb2848260208601613e4b565b91505092915050565b60008060008060008060c08789031215613ed857613ed7613ab6565b5b600087013567ffffffffffffffff811115613ef657613ef5613abb565b5b613f0289828a01613caf565b9650506020613f1389828a01613e05565b9550506040613f2489828a01613b62565b9450506060613f3589828a01613b09565b935050608087013567ffffffffffffffff811115613f5657613f55613abb565b5b613f6289828a01613d64565b92505060a087013567ffffffffffffffff811115613f8357613f82613abb565b5b613f8f89828a01613e8d565b9150509295509295509295565b6000819050919050565b613faf81613f9c565b82525050565b6000602082019050613fca6000830184613fa6565b92915050565b600060208284031215613fe657613fe5613ab6565b5b6000613ff484828501613b62565b91505092915050565b600082825260208201905092915050565b600061401982613801565b6140238185613ffd565b9350836020820285016140358561381d565b8060005b858110156140715784840389528151614052858261387d565b945061405d83613891565b925060208a01995050600181019050614039565b50829750879550505050505092915050565b6000602082019050818103600083015261409d818461400e565b905092915050565b6140ae8161373d565b82525050565b6140bd81613ae0565b82525050565b600082825260208201905092915050565b60006140df82613756565b6140e981856140c3565b93506140f9818560208601613772565b6141028161379c565b840191505092915050565b614116816137e6565b82525050565b600061016082019050614132600083018e6140a5565b61413f602083018d6140b4565b8181036040830152614151818c6140d4565b9050614160606083018b6140a5565b61416d608083018a6140a5565b61417a60a08301896140a5565b61418760c083018861410d565b61419460e083018761410d565b6141a261010083018661410d565b6141b06101208301856140a5565b6141be6101408301846140a5565b9c9b505050505050505050505050565b600080fd5b60008083601f8401126141e9576141e8613b77565b5b8235905067ffffffffffffffff811115614206576142056141ce565b5b60208301915083602082028301111561422257614221613c23565b5b9250929050565b600080602083850312156142405761423f613ab6565b5b600083013567ffffffffffffffff81111561425e5761425d613abb565b5b61426a858286016141d3565b92509250509250929050565b600060208201905061428b60008301846140a5565b92915050565b600081519050919050565b600082825260208201905092915050565b6000819050602082019050919050565b60006060830160008301516142d56000860182613747565b50602083015184820360208601526142ed82826137ad565b91505060408301516143026040860182613747565b508091505092915050565b600061431983836142bd565b905092915050565b6000602082019050919050565b600061433982614291565b614343818561429c565b935083602082028501614355856142ad565b8060005b858110156143915784840389528151614372858261430d565b945061437d83614321565b925060208a01995050600181019050614359565b50829750879550505050505092915050565b600060208201905081810360008301526143bd818461432e565b905092915050565b60007fff0000000000000000000000000000000000000000000000000000000000000082169050919050565b6143fa816143c5565b82525050565b600081519050919050565b600082825260208201905092915050565b6000819050602082019050919050565b60006144388383613747565b60208301905092915050565b6000602082019050919050565b600061445c82614400565b614466818561440b565b93506144718361441c565b8060005b838110156144a2578151614489888261442c565b975061449483614444565b925050600181019050614475565b5085935050505092915050565b600060e0820190506144c4600083018a6143f1565b81810360208301526144d681896140d4565b905081810360408301526144ea81886140d4565b90506144f960608301876140a5565b61450660808301866140b4565b61451360a0830185613fa6565b81810360c08301526145258184614451565b905098975050505050505050565b6000806000806080858703121561454d5761454c613ab6565b5b600085013567ffffffffffffffff81111561456b5761456a613abb565b5b61457787828801613caf565b945050602061458887828801613e05565b935050604061459987828801613b62565b925050606085013567ffffffffffffffff8111156145ba576145b9613abb565b5b6145c687828801613d64565b91505092959194509250565b600080604083850312156145e9576145e8613ab6565b5b60006145f785828601613b62565b925050602061460885828601613b62565b9150509250929050565b600060608201905061462760008301866140a5565b818103602083015261463981856140d4565b905061464860408301846140a5565b949350505050565b600080600080600060a0868803121561466c5761466b613ab6565b5b600061467a88828901613b62565b955050602061468b88828901613b62565b945050604061469c88828901613b09565b935050606086013567ffffffffffffffff8111156146bd576146bc613abb565b5b6146c988828901613e8d565b925050608086013567ffffffffffffffff8111156146ea576146e9613abb565b5b6146f688828901613e8d565b9150509295509295909350565b6000606082019050614718600083018661410d565b61472560208301856140a5565b818103604083015261473781846140d4565b9050949350505050565b600060208201905061475660008301846140b4565b92915050565b7f4e6f742063726561746f72206f722061646d696e000000000000000000000000600082015250565b60006147926014836140c3565b915061479d8261475c565b602082019050919050565b600060208201905081810360008301526147c181614785565b9050919050565b7f496e76616c696420656c656374696f6e00000000000000000000000000000000600082015250565b60006147fe6010836140c3565b9150614809826147c8565b602082019050919050565b6000602082019050818103600083015261482d816147f1565b9050919050565b600060a0820190506148496000830188613fa6565b6148566020830187613fa6565b614863604083018661410d565b61487060608301856140a5565b61487d60808301846140b4565b9695505050505050565b7f496e76616c6964207369676e6174757265000000000000000000000000000000600082015250565b60006148bd6011836140c3565b91506148c882614887565b602082019050919050565b600060208201905081810360008301526148ec816148b0565b9050919050565b7f4e487b7100000000000000000000000000000000000000000000000000000000600052602260045260246000fd5b6000600282049050600182168061493a57607f821691505b60208210810361494d5761494c6148f3565b5b50919050565b60008190508160005260206000209050919050565b60006020601f8301049050919050565b600082821b905092915050565b6000600883026149b57fffffffffffffffffffffffffffffffffffffffffffffffffffffffffffffffff82614978565b6149bf8683614978565b95508019841693508086168417925050509392505050565b6000819050919050565b60006149fc6149f76149f28461373d565b6149d7565b61373d565b9050919050565b6000819050919050565b614a16836149e1565b614a2a614a2282614a03565b848454614985565b825550505050565b600090565b614a3f614a32565b614a4a818484614a0d565b505050565b5b81811015614a6e57614a63600082614a37565b600181019050614a50565b5050565b601f821115614ab357614a8481614953565b614a8d84614968565b81016020851015614a9c578190505b614ab0614aa885614968565b830182614a4f565b50505b505050565b600082821c905092915050565b6000614ad660001984600802614ab8565b1980831691505092915050565b6000614aef8383614ac5565b9150826002028217905092915050565b614b0882613756565b67ffffffffffffffff811115614b2157614b20613b7c565b5b614b2b8254614922565b614b36828285614a72565b600060209050601f831160018114614b695760008415614b57578287015190505b614b618582614ae3565b865550614bc9565b601f198416614b7786614953565b60005b82811015614b9f57848901518255600182019150602085019450602081019050614b7a565b86831015614bbc5784890151614bb8601f891682614ac5565b8355505b6001600288020188555050505b505050505050565b60006020820190508181036000830152614beb81846140d4565b905092915050565b7f4e487b7100000000000000000000000000000000000000000000000000000000600052601160045260246000fd5b6000614c2d8261373d565b91507fffffffffffffffffffffffffffffffffffffffffffffffffffffffffffffffff8203614c5f57614c5e614bf3565b5b600182019050919050565b7f4e487b7100000000000000000000000000000000000000000000000000000000600052603260045260246000fd5b7f416c726561647920697320616374697665000000000000000000000000000000600082015250565b6000614ccf6011836140c3565b9150614cda82614c99565b602082019050919050565b60006020820190508181036000830152614cfe81614cc2565b9050919050565b7f456c656374696f6e20686173206265656e20616c7265616479206d616e75616c60008201527f6c7920656e646564000000000000000000000000000000000000000000000000602082015250565b6000614d616028836140c3565b9150614d6c82614d05565b604082019050919050565b60006020820190508181036000830152614d9081614d54565b9050919050565b7f456c656374696f6e206e6f7420656e6465640000000000000000000000000000600082015250565b6000614dcd6012836140c3565b9150614dd882614d97565b602082019050919050565b60006020820190508181036000830152614dfc81614dc0565b9050919050565b7f456c656374696f6e206973206e6f742061637469766500000000000000000000600082015250565b6000614e396016836140c3565b9150614e4482614e03565b602082019050919050565b60006020820190508181036000830152614e6881614e2c565b9050919050565b6000608082019050614e846000830187613fa6565b614e9160208301866140a5565b614e9e60408301856140a5565b614eab60608301846140b4565b95945050505050565b6000606082019050614ec96000830186613fa6565b614ed660208301856140a5565b614ee360408301846140b4565b949350505050565b7f4e6f7420617574686f72697a6564206279206f776e6572000000000000000000600082015250565b6000614f216017836140c3565b9150614f2c82614eeb565b602082019050919050565b60006020820190508181036000830152614f5081614f14565b9050919050565b6000614f628261373d565b9150614f6d8361373d565b9250828201905080821115614f8557614f84614bf3565b5b92915050565b7f45786365656473206d61782063616e6469646174657300000000000000000000600082015250565b6000614fc16016836140c3565b9150614fcc82614f8b565b602082019050919050565b60006020820190508181036000830152614ff081614fb4565b9050919050565b600081905092915050565b600061500d82613756565b6150178185614ff7565b9350615027818560208601613772565b80840191505092915050565b600061503f8284615002565b915081905092915050565b7f4475706c69636174652063616e646964617465206e616d650000000000000000600082015250565b60006150806018836140c3565b915061508b8261504a565b602082019050919050565b600060208201905081810360008301526150af81615073565b9050919050565b7f456c656374696f6e206e6f742061637469766500000000000000000000000000600082015250565b60006150ec6013836140c3565b91506150f7826150b6565b602082019050919050565b6000602082019050818103600083015261511b816150df565b9050919050565b7f416c726561647920766f74656400000000000000000000000000000000000000600082015250565b6000615158600d836140c3565b915061516382615122565b602082019050919050565b600060208201905081810360008301526151878161514b565b9050919050565b7f496e76616c69642063616e646964617465000000000000000000000000000000600082015250565b60006151c46011836140c3565b91506151cf8261518e565b602082019050919050565b600060208201905081810360008301526151f3816151b7565b9050919050565b7f566f746572206c696d6974207265616368656400000000000000000000000000600082015250565b60006152306013836140c3565b915061523b826151fa565b602082019050919050565b6000602082019050818103600083015261525f81615223565b9050919050565b600060408201905061527b60008301856140a5565b61528860208301846140b4565b9392505050565b7f4e487b7100000000000000000000000000000000000000000000000000000000600052602160045260246000fd5b600060a0820190506152d36000830188613fa6565b6152e06020830187613fa6565b6152ed6040830186613fa6565b6152fa60608301856140a5565b61530760808301846140b4565b9695505050505050565b600060ff82169050919050565b61532781615311565b82525050565b60006080820190506153426000830187613fa6565b61534f602083018661531e565b61535c6040830185613fa6565b6153696060830184613fa6565b9594505050505056fea264697066735822122082f127dede072ef9116a475e086bf467f434d7ba494b53356f6c7718f313d16564736f6c634300081c0033",
  "linkReferences": {},
  "deployedLinkReferences": {}
}