{
  "_format": "hh-sol-artifact-1",
  "contractName": "VotingSystem",
  "sourceName": "contracts/VotingSystem.sol",
  "abi": [
    {
      "inputs": [],
      "stateMutability": "nonpayable",
      "type": "constructor"
    },
    {
      "inputs": [],
      "name": "ECDSAInvalidSignature",
      "type": "error"
    },
    {
      "inputs": [
        {
          "internalType": "uint256",
          "name": "length",
          "type": "uint256"
        }
      ],
      "name": "ECDSAInvalidSignatureLength",
      "type": "error"
    },
    {
      "inputs": [
        {
          "internalType": "bytes32",
          "name": "s",
          "type": "bytes32"
        }
      ],
      "name": "ECDSAInvalidSignatureS",
      "type": "error"
    },
    {
      "inputs": [],
      "name": "InvalidShortString",
      "type": "error"
    },
    {
      "inputs": [
        {
          "internalType": "string",
          "name": "str",
          "type": "string"
        }
      ],
      "name": "StringTooLong",
      "type": "error"
    },
    {
      "anonymous": false,
      "inputs": [],
      "name": "EIP712DomainChanged",
      "type": "event"
    },
    {
      "anonymous": false,
      "inputs": [
        {
          "indexed": true,
          "internalType": "uint256",
          "name": "electionId",
          "type": "uint256"
        },
        {
          "indexed": false,
          "internalType": "string",
          "name": "name",
          "type": "string"
        }
      ],
      "name": "ElectionCreated",
      "type": "event"
    },
    {
      "anonymous": false,
      "inputs": [
        {
          "indexed": true,
          "internalType": "uint256",
          "name": "electionId",
          "type": "uint256"
        }
      ],
      "name": "ElectionEnded",
      "type": "event"
    },
    {
      "anonymous": false,
      "inputs": [
        {
          "indexed": true,
          "internalType": "uint256",
          "name": "electionId",
          "type": "uint256"
        }
      ],
      "name": "ElectionStarted",
      "type": "event"
    },
    {
      "anonymous": false,
      "inputs": [
        {
          "indexed": true,
          "internalType": "uint256",
          "name": "electionId",
          "type": "uint256"
        },
        {
          "indexed": false,
          "internalType": "uint256",
          "name": "candidateId",
          "type": "uint256"
        },
        {
          "indexed": false,
          "internalType": "address",
          "name": "voter",
          "type": "address"
        }
      ],
      "name": "VoteCast",
      "type": "event"
    },
    {
      "inputs": [],
      "name": "ELECTION_TYPEHASH",
      "outputs": [
        {
          "internalType": "bytes32",
          "name": "",
          "type": "bytes32"
        }
      ],
      "stateMutability": "view",
      "type": "function"
    },
    {
      "inputs": [],
      "name": "MAX_CANDIDATES",
      "outputs": [
        {
          "internalType": "uint256",
          "name": "",
          "type": "uint256"
        }
      ],
      "stateMutability": "view",
      "type": "function"
    },
    {
      "inputs": [
        {
          "internalType": "uint256",
          "name": "_electionId",
          "type": "uint256"
        },
        {
          "internalType": "string[]",
          "name": "_names",
          "type": "string[]"
        }
      ],
      "name": "addCandidates",
      "outputs": [],
      "stateMutability": "nonpayable",
      "type": "function"
    },
    {
      "inputs": [],
      "name": "admin",
      "outputs": [
        {
          "internalType": "address",
          "name": "",
          "type": "address"
        }
      ],
      "stateMutability": "view",
      "type": "function"
    },
    {
      "inputs": [
        {
          "internalType": "string",
          "name": "_name",
          "type": "string"
        },
        {
          "internalType": "bool",
          "name": "_startImmediately",
          "type": "bool"
        },
        {
          "internalType": "uint256",
          "name": "_voterLimit",
          "type": "uint256"
        },
        {
          "internalType": "string[]",
          "name": "_candidateNames",
          "type": "string[]"
        }
      ],
      "name": "createElection",
      "outputs": [],
      "stateMutability": "nonpayable",
      "type": "function"
    },
    {
      "inputs": [
        {
          "internalType": "string",
          "name": "_name",
          "type": "string"
        },
        {
          "internalType": "bool",
          "name": "_startImmediately",
          "type": "bool"
        },
        {
          "internalType": "uint256",
          "name": "_voterLimit",
          "type": "uint256"
        },
        {
          "internalType": "address",
          "name": "_creator",
          "type": "address"
        },
        {
          "internalType": "string[]",
          "name": "_candidateNames",
          "type": "string[]"
        },
        {
          "internalType": "bytes",
          "name": "signature",
          "type": "bytes"
        }
      ],
      "name": "createElectionWithSignature",
      "outputs": [],
      "stateMutability": "nonpayable",
      "type": "function"
    },
    {
      "inputs": [],
      "name": "eip712Domain",
      "outputs": [
        {
          "internalType": "bytes1",
          "name": "fields",
          "type": "bytes1"
        },
        {
          "internalType": "string",
          "name": "name",
          "type": "string"
        },
        {
          "internalType": "string",
          "name": "version",
          "type": "string"
        },
        {
          "internalType": "uint256",
          "name": "chainId",
          "type": "uint256"
        },
        {
          "internalType": "address",
          "name": "verifyingContract",
          "type": "address"
        },
        {
          "internalType": "bytes32",
          "name": "salt",
          "type": "bytes32"
        },
        {
          "internalType": "uint256[]",
          "name": "extensions",
          "type": "uint256[]"
        }
      ],
      "stateMutability": "view",
      "type": "function"
    },
    {
      "inputs": [
        {
          "internalType": "uint256",
          "name": "",
          "type": "uint256"
        },
        {
          "internalType": "uint256",
          "name": "",
          "type": "uint256"
        }
      ],
      "name": "electionCandidates",
      "outputs": [
        {
          "internalType": "uint256",
          "name": "id",
          "type": "uint256"
        },
        {
          "internalType": "string",
          "name": "name",
          "type": "string"
        },
        {
          "internalType": "uint256",
          "name": "voteCount",
          "type": "uint256"
        }
      ],
      "stateMutability": "view",
      "type": "function"
    },
    {
      "inputs": [],
      "name": "electionCounter",
      "outputs": [
        {
          "internalType": "uint256",
          "name": "",
          "type": "uint256"
        }
      ],
      "stateMutability": "view",
      "type": "function"
    },
    {
      "inputs": [
        {
          "internalType": "uint256",
          "name": "",
          "type": "uint256"
        }
      ],
      "name": "elections",
      "outputs": [
        {
          "internalType": "uint256",
          "name": "id",
          "type": "uint256"
        },
        {
          "internalType": "address",
          "name": "creator",
          "type": "address"
        },
        {
          "internalType": "string",
          "name": "name",
          "type": "string"
        },
        {
          "internalType": "uint256",
          "name": "startTime",
          "type": "uint256"
        },
        {
          "internalType": "uint256",
          "name": "endTime",
          "type": "uint256"
        },
        {
          "internalType": "uint256",
          "name": "voterLimit",
          "type": "uint256"
        },
        {
          "internalType": "bool",
          "name": "startedManually",
          "type": "bool"
        },
        {
          "internalType": "bool",
          "name": "endedManually",
          "type": "bool"
        },
        {
          "internalType": "bool",
          "name": "isActive",
          "type": "bool"
        },
        {
          "internalType": "uint256",
          "name": "candidateCount",
          "type": "uint256"
        },
        {
          "internalType": "uint256",
          "name": "voterCount",
          "type": "uint256"
        }
      ],
      "stateMutability": "view",
      "type": "function"
    },
    {
      "inputs": [
        {
          "internalType": "uint256",
          "name": "_electionId",
          "type": "uint256"
        }
      ],
      "name": "endElection",
      "outputs": [],
      "stateMutability": "nonpayable",
      "type": "function"
    },
    {
      "inputs": [],
      "name": "getActiveElections",
      "outputs": [
        {
          "components": [
            {
              "internalType": "uint256",
              "name": "id",
              "type": "uint256"
            },
            {
              "internalType": "string",
              "name": "name",
              "type": "string"
            },
            {
              "internalType": "uint256",
              "name": "startTime",
              "type": "uint256"
            },
            {
              "internalType": "uint256",
              "name": "endTime",
              "type": "uint256"
            },
            {
              "internalType": "bool",
              "name": "isActive",
              "type": "bool"
            },
            {
              "internalType": "bool",
              "name": "startedManually",
              "type": "bool"
            },
            {
              "internalType": "bool",
              "name": "endedManually",
              "type": "bool"
            },
            {
              "internalType": "uint256",
              "name": "candidateCount",
              "type": "uint256"
            },
            {
              "internalType": "uint256",
              "name": "voterLimit",
              "type": "uint256"
            },
            {
              "components": [
                {
                  "internalType": "uint256",
                  "name": "id",
                  "type": "uint256"
                },
                {
                  "internalType": "string",
                  "name": "name",
                  "type": "string"
                },
                {
                  "internalType": "uint256",
                  "name": "voteCount",
                  "type": "uint256"
                }
              ],
              "internalType": "struct VotingSystem.CandidateView[]",
              "name": "candidates",
              "type": "tuple[]"
            }
          ],
          "internalType": "struct VotingSystem.ElectionWithCandidates[]",
          "name": "",
          "type": "tuple[]"
        }
      ],
      "stateMutability": "view",
      "type": "function"
    },
    {
      "inputs": [],
      "name": "getAllElections",
      "outputs": [
        {
          "components": [
            {
              "internalType": "uint256",
              "name": "id",
              "type": "uint256"
            },
            {
              "internalType": "string",
              "name": "name",
              "type": "string"
            },
            {
              "internalType": "uint256",
              "name": "startTime",
              "type": "uint256"
            },
            {
              "internalType": "uint256",
              "name": "endTime",
              "type": "uint256"
            },
            {
              "internalType": "bool",
              "name": "isActive",
              "type": "bool"
            },
            {
              "internalType": "bool",
              "name": "startedManually",
              "type": "bool"
            },
            {
              "internalType": "bool",
              "name": "endedManually",
              "type": "bool"
            },
            {
              "internalType": "uint256",
              "name": "candidateCount",
              "type": "uint256"
            },
            {
              "internalType": "uint256",
              "name": "voterLimit",
              "type": "uint256"
            },
            {
              "components": [
                {
                  "internalType": "uint256",
                  "name": "id",
                  "type": "uint256"
                },
                {
                  "internalType": "string",
                  "name": "name",
                  "type": "string"
                },
                {
                  "internalType": "uint256",
                  "name": "voteCount",
                  "type": "uint256"
                }
              ],
              "internalType": "struct VotingSystem.CandidateView[]",
              "name": "candidates",
              "type": "tuple[]"
            }
          ],
          "internalType": "struct VotingSystem.ElectionWithCandidates[]",
          "name": "",
          "type": "tuple[]"
        }
      ],
      "stateMutability": "view",
      "type": "function"
    },
    {
      "inputs": [
        {
          "internalType": "uint256",
          "name": "_electionId",
          "type": "uint256"
        }
      ],
      "name": "getCandidates",
      "outputs": [
        {
          "components": [
            {
              "internalType": "uint256",
              "name": "id",
              "type": "uint256"
            },
            {
              "internalType": "string",
              "name": "name",
              "type": "string"
            },
            {
              "internalType": "uint256",
              "name": "voteCount",
              "type": "uint256"
            }
          ],
          "internalType": "struct VotingSystem.CandidateView[]",
          "name": "",
          "type": "tuple[]"
        }
      ],
      "stateMutability": "view",
      "type": "function"
    },
    {
      "inputs": [
        {
          "internalType": "uint256[]",
          "name": "ids",
          "type": "uint256[]"
        }
      ],
      "name": "getElectionsByIds",
      "outputs": [
        {
          "components": [
            {
              "internalType": "uint256",
              "name": "id",
              "type": "uint256"
            },
            {
              "internalType": "string",
              "name": "name",
              "type": "string"
            },
            {
              "internalType": "uint256",
              "name": "startTime",
              "type": "uint256"
            },
            {
              "internalType": "uint256",
              "name": "endTime",
              "type": "uint256"
            },
            {
              "internalType": "bool",
              "name": "isActive",
              "type": "bool"
            },
            {
              "internalType": "bool",
              "name": "startedManually",
              "type": "bool"
            },
            {
              "internalType": "bool",
              "name": "endedManually",
              "type": "bool"
            },
            {
              "internalType": "uint256",
              "name": "candidateCount",
              "type": "uint256"
            },
            {
              "internalType": "uint256",
              "name": "voterLimit",
              "type": "uint256"
            },
            {
              "components": [
                {
                  "internalType": "uint256",
                  "name": "id",
                  "type": "uint256"
                },
                {
                  "internalType": "string",
                  "name": "name",
                  "type": "string"
                },
                {
                  "internalType": "uint256",
                  "name": "voteCount",
                  "type": "uint256"
                }
              ],
              "internalType": "struct VotingSystem.CandidateView[]",
              "name": "candidates",
              "type": "tuple[]"
            }
          ],
          "internalType": "struct VotingSystem.ElectionWithCandidates[]",
          "name": "",
          "type": "tuple[]"
        }
      ],
      "stateMutability": "view",
      "type": "function"
    },
    {
      "inputs": [
        {
          "internalType": "uint256",
          "name": "_electionId",
          "type": "uint256"
        }
      ],
      "name": "getMyVote",
      "outputs": [
        {
          "internalType": "bool",
          "name": "hasVoted",
          "type": "bool"
        },
        {
          "internalType": "uint256",
          "name": "candidateId",
          "type": "uint256"
        },
        {
          "internalType": "string",
          "name": "candidateName",
          "type": "string"
        }
      ],
      "stateMutability": "view",
      "type": "function"
    },
    {
      "inputs": [
        {
          "internalType": "uint256",
          "name": "_electionId",
          "type": "uint256"
        }
      ],
      "name": "getResults",
      "outputs": [
        {
          "components": [
            {
              "internalType": "uint256",
              "name": "id",
              "type": "uint256"
            },
            {
              "internalType": "string",
              "name": "name",
              "type": "string"
            },
            {
              "internalType": "uint256",
              "name": "voteCount",
              "type": "uint256"
            }
          ],
          "internalType": "struct VotingSystem.Candidate[]",
          "name": "",
          "type": "tuple[]"
        }
      ],
      "stateMutability": "view",
      "type": "function"
    },
    {
      "inputs": [
        {
          "internalType": "uint256",
          "name": "_electionId",
          "type": "uint256"
        }
      ],
      "name": "startElection",
      "outputs": [],
      "stateMutability": "nonpayable",
      "type": "function"
    },
    {
      "inputs": [
        {
          "internalType": "uint256",
          "name": "_electionId",
          "type": "uint256"
        },
        {
          "internalType": "uint256",
          "name": "_candidateId",
          "type": "uint256"
        }
      ],
      "name": "vote",
      "outputs": [],
      "stateMutability": "nonpayable",
      "type": "function"
    },
    {
      "inputs": [
        {
          "internalType": "uint256",
          "name": "_electionId",
          "type": "uint256"
        },
        {
          "internalType": "uint256",
          "name": "_candidateId",
          "type": "uint256"
        },
        {
          "internalType": "address",
          "name": "_voter",
          "type": "address"
        },
        {
          "internalType": "bytes",
          "name": "voterSignature",
          "type": "bytes"
        },
        {
          "internalType": "bytes",
          "name": "authSignature",
          "type": "bytes"
        }
      ],
      "name": "voteWithSignature",
      "outputs": [],
      "stateMutability": "nonpayable",
      "type": "function"
    }
  ],
  "bytecode": "0x61016060405234801561001157600080fd5b506040518060400160405280600c81526020017f566f74696e6753797374656d00000000000000000000000000000000000000008152506040518060400160405280600181526020017f310000000000000000000000000000000000000000000000000000000000000081525061009260008361016e60201b90919060201c565b61012081815250506100ae60018261016e60201b90919060201c565b6101408181525050818051906020012060e08181525050808051906020012061010081815250504660a081815250506100eb6101be60201b60201c565b608081815250503073ffffffffffffffffffffffffffffffffffffffff1660c08173ffffffffffffffffffffffffffffffffffffffff1681525050505033600260006101000a81548173ffffffffffffffffffffffffffffffffffffffff021916908373ffffffffffffffffffffffffffffffffffffffff1602179055506107a7565b6000602083511015610190576101898361021960201b60201c565b90506101b8565b826101a08361028160201b60201c565b60000190816101af91906104db565b5060ff60001b90505b92915050565b60007f8b73c3c69bb8fe3d512ecc4cf759cc79239f7b179b0ffacaa9a75d522b39400f60e0516101005146306040516020016101fe959493929190610616565b60405160208183030381529060405280519060200120905090565b600080829050601f8151111561026657826040517f305a27a900000000000000000000000000000000000000000000000000000000815260040161025d91906106ee565b60405180910390fd5b80518161027290610740565b60001c1760001b915050919050565b6000819050919050565b600081519050919050565b7f4e487b7100000000000000000000000000000000000000000000000000000000600052604160045260246000fd5b7f4e487b7100000000000000000000000000000000000000000000000000000000600052602260045260246000fd5b6000600282049050600182168061030c57607f821691505b60208210810361031f5761031e6102c5565b5b50919050565b60008190508160005260206000209050919050565b60006020601f8301049050919050565b600082821b905092915050565b6000600883026103877fffffffffffffffffffffffffffffffffffffffffffffffffffffffffffffffff8261034a565b610391868361034a565b95508019841693508086168417925050509392505050565b6000819050919050565b6000819050919050565b60006103d86103d36103ce846103a9565b6103b3565b6103a9565b9050919050565b6000819050919050565b6103f2836103bd565b6104066103fe826103df565b848454610357565b825550505050565b600090565b61041b61040e565b6104268184846103e9565b505050565b5b8181101561044a5761043f600082610413565b60018101905061042c565b5050565b601f82111561048f5761046081610325565b6104698461033a565b81016020851015610478578190505b61048c6104848561033a565b83018261042b565b50505b505050565b600082821c905092915050565b60006104b260001984600802610494565b1980831691505092915050565b60006104cb83836104a1565b9150826002028217905092915050565b6104e48261028b565b67ffffffffffffffff8111156104fd576104fc610296565b5b61050782546102f4565b61051282828561044e565b600060209050601f8311600181146105455760008415610533578287015190505b61053d85826104bf565b8655506105a5565b601f19841661055386610325565b60005b8281101561057b57848901518255600182019150602085019450602081019050610556565b868310156105985784890151610594601f8916826104a1565b8355505b6001600288020188555050505b505050505050565b6000819050919050565b6105c0816105ad565b82525050565b6105cf816103a9565b82525050565b600073ffffffffffffffffffffffffffffffffffffffff82169050919050565b6000610600826105d5565b9050919050565b610610816105f5565b82525050565b600060a08201905061062b60008301886105b7565b61063860208301876105b7565b61064560408301866105b7565b61065260608301856105c6565b61065f6080830184610607565b9695505050505050565b600082825260208201905092915050565b60005b8381101561069857808201518184015260208101905061067d565b60008484015250505050565b6000601f19601f8301169050919050565b60006106c08261028b565b6106ca8185610669565b93506106da81856020860161067a565b6106e3816106a4565b840191505092915050565b6000602082019050818103600083015261070881846106b5565b905092915050565b600081519050919050565b6000819050602082019050919050565b600061073782516105ad565b80915050919050565b600061074b82610710565b826107558461071b565b90506107608161072b565b925060208210156107a05761079b7fffffffffffffffffffffffffffffffffffffffffffffffffffffffffffffffff8360200360080261034a565b831692505b5050919050565b60805160a05160c05160e051610100516101205161014051614e39610801600039600061276e0152600061273301526000612f2c01526000612f0b01526000612b8201526000612bd801526000612c010152614e396000f3fe608060405234801561001057600080fd5b506004361061012c5760003560e01c806384b0196e116100ad578063b384abef11610071578063b384abef14610355578063ba2e0cc214610371578063f07860961461038d578063f76b4049146103ab578063f851a440146103dd5761012c565b806384b0196e146102a95780638a3b63b0146102cd57806399c76b6a146102eb5780639c98bcbb14610307578063a42c56f7146103235761012c565b8063600bb84c116100f4578063600bb84c146101f157806361e37417146102215780636d32dc4b1461023f5780637fd5f2681461025b57806381a60c0d146102795761012c565b806328e58f371461013157806332d8e75f1461014d5780633caea26c146101695780633e39a7a5146101875780635e6fef01146101b7575b600080fd5b61014b60048036038101906101469190613445565b6103fb565b005b610167600480360381019061016291906135d8565b61056b565b005b6101716107b8565b60405161017e91906136d2565b60405180910390f35b6101a1600480360381019061019c91906136ed565b6107dc565b6040516101ae91906138ba565b60405180910390f35b6101d160048036038101906101cc91906136ed565b6109a5565b6040516101e89b9a99989796959493929190613953565b60405180910390f35b61020b60048036038101906102069190613a60565b610ace565b6040516102189190613ce5565b60405180910390f35b610229610eef565b6040516102369190613d07565b60405180910390f35b610259600480360381019061025491906136ed565b610ef5565b005b61026361116e565b6040516102709190613ce5565b60405180910390f35b610293600480360381019061028e91906136ed565b6114a2565b6040516102a09190613e34565b60405180910390f35b6102b16115a4565b6040516102c49796959493929190613f40565b60405180910390f35b6102d561164e565b6040516102e29190613ce5565b60405180910390f35b61030560048036038101906103009190613fc4565b611a37565b005b610321600480360381019061031c91906136ed565b611b9c565b005b61033d60048036038101906103389190614063565b611dc2565b60405161034c939291906140a3565b60405180910390f35b61036f600480360381019061036a9190614063565b611e91565b005b61038b600480360381019061038691906140e1565b611ee6565b005b61039561216e565b6040516103a29190613d07565b60405180910390f35b6103c560048036038101906103c091906136ed565b612173565b6040516103d493929190614194565b60405180910390f35b6103e5612356565b6040516103f291906141d2565b60405180910390f35b8160006004600083815260200190815260200160002090508060010160009054906101000a900473ffffffffffffffffffffffffffffffffffffffff1673ffffffffffffffffffffffffffffffffffffffff163373ffffffffffffffffffffffffffffffffffffffff1614806104be5750600260009054906101000a900473ffffffffffffffffffffffffffffffffffffffff1673ffffffffffffffffffffffffffffffffffffffff163373ffffffffffffffffffffffffffffffffffffffff16145b6104fd576040517f08c379a00000000000000000000000000000000000000000000000000000000081526004016104f490614239565b60405180910390fd5b836003548110610542576040517f08c379a0000000000000000000000000000000000000000000000000000000008152600401610539906142a5565b60405180910390fd5b6000600460008781526020019081526020016000209050610563818661237c565b505050505050565b60007fc01c9b1d6a80d8bb2e7cf5ca4b339fda2ea6d9ea14e961bc26ad4e24b821578487805190602001208787876040516020016105ad9594939291906142c5565b60405160208183030381529060405280519060200120905060006105d082612564565b905060006105de828561257e565b90508573ffffffffffffffffffffffffffffffffffffffff168173ffffffffffffffffffffffffffffffffffffffff161461064e576040517f08c379a000000000000000000000000000000000000000000000000000000000815260040161064590614364565b60405180910390fd5b600060046000600354815260200190815260200160002090506003548160000181905550868160010160006101000a81548173ffffffffffffffffffffffffffffffffffffffff021916908373ffffffffffffffffffffffffffffffffffffffff160217905550898160020190816106c69190614590565b50878160050181905550881561071e5742816003018190555060018160060160026101000a81548160ff02191690831515021790555060018160060160006101000a81548160ff021916908315150217905550610746565b6000816003018190555060008160060160026101000a81548160ff0219169083151502179055505b6000816004018190555061075a818761237c565b6003547f52be7c4e77b4de76b7607d621492061fe13b58597e72dfb5e51ab8f6187ed1418b60405161078c9190614662565b60405180910390a2600360008154809291906107a7906146b3565b919050555050505050505050505050565b7fc01c9b1d6a80d8bb2e7cf5ca4b339fda2ea6d9ea14e961bc26ad4e24b821578481565b6060816003548110610823576040517f08c379a000000000000000000000000000000000000000000000000000000000815260040161081a906142a5565b60405180910390fd5b60006004600085815260200190815260200160002090506000816007015467ffffffffffffffff81111561085a5761085961322f565b5b60405190808252806020026020018201604052801561089357816020015b610880613134565b8152602001906001900390816108785790505b50905060005b826007015481101561099957600083600901600083815260200190815260200160002090506040518060600160405280826000015481526020018260010180546108e2906143b3565b80601f016020809104026020016040519081016040528092919081815260200182805461090e906143b3565b801561095b5780601f106109305761010080835404028352916020019161095b565b820191906000526020600020905b81548152906001019060200180831161093e57829003601f168201915b5050505050815260200182600201548152508383815181106109805761097f6146fb565b5b6020026020010181905250508080600101915050610899565b50809350505050919050565b60046020528060005260406000206000915090508060000154908060010160009054906101000a900473ffffffffffffffffffffffffffffffffffffffff16908060020180546109f4906143b3565b80601f0160208091040260200160405190810160405280929190818152602001828054610a20906143b3565b8015610a6d5780601f10610a4257610100808354040283529160200191610a6d565b820191906000526020600020905b815481529060010190602001808311610a5057829003601f168201915b5050505050908060030154908060040154908060050154908060060160009054906101000a900460ff16908060060160019054906101000a900460ff16908060060160029054906101000a900460ff1690806007015490806008015490508b565b606060008383905067ffffffffffffffff811115610aef57610aee61322f565b5b604051908082528060200260200182016040528015610b2857816020015b610b15613155565b815260200190600190039081610b0d5790505b5090506000805b85859050811015610e38576000868683818110610b4f57610b4e6146fb565b5b9050602002013590506003548110610b675750610e2b565b60006004600083815260200190815260200160002090506000816007015467ffffffffffffffff811115610b9e57610b9d61322f565b5b604051908082528060200260200182016040528015610bd757816020015b610bc4613134565b815260200190600190039081610bbc5790505b50905060005b8260070154811015610cdd5760008360090160008381526020019081526020016000209050604051806060016040528082600001548152602001826001018054610c26906143b3565b80601f0160208091040260200160405190810160405280929190818152602001828054610c52906143b3565b8015610c9f5780601f10610c7457610100808354040283529160200191610c9f565b820191906000526020600020905b815481529060010190602001808311610c8257829003601f168201915b505050505081526020018260020154815250838381518110610cc457610cc36146fb565b5b6020026020010181905250508080600101915050610bdd565b5060405180610140016040528083600001548152602001836002018054610d03906143b3565b80601f0160208091040260200160405190810160405280929190818152602001828054610d2f906143b3565b8015610d7c5780601f10610d5157610100808354040283529160200191610d7c565b820191906000526020600020905b815481529060010190602001808311610d5f57829003601f168201915b5050505050815260200183600301548152602001836004015481526020018360060160029054906101000a900460ff16151581526020018360060160009054906101000a900460ff16151581526020018360060160019054906101000a900460ff1615158152602001836007015481526020018360050154815260200182815250868680610e09906146b3565b975081518110610e1c57610e1b6146fb565b5b60200260200101819052505050505b8080600101915050610b2f565b5060008167ffffffffffffffff811115610e5557610e5461322f565b5b604051908082528060200260200182016040528015610e8e57816020015b610e7b613155565b815260200190600190039081610e735790505b50905060005b82811015610ee257838181518110610eaf57610eae6146fb565b5b6020026020010151828281518110610eca57610ec96146fb565b5b60200260200101819052508080600101915050610e94565b5080935050505092915050565b60035481565b806003548110610f3a576040517f08c379a0000000000000000000000000000000000000000000000000000000008152600401610f31906142a5565b60405180910390fd5b8160006004600083815260200190815260200160002090508060010160009054906101000a900473ffffffffffffffffffffffffffffffffffffffff1673ffffffffffffffffffffffffffffffffffffffff163373ffffffffffffffffffffffffffffffffffffffff161480610ffd5750600260009054906101000a900473ffffffffffffffffffffffffffffffffffffffff1673ffffffffffffffffffffffffffffffffffffffff163373ffffffffffffffffffffffffffffffffffffffff16145b61103c576040517f08c379a000000000000000000000000000000000000000000000000000000000815260040161103390614239565b60405180910390fd5b60006004600086815260200190815260200160002090508060060160029054906101000a900460ff16156110a5576040517f08c379a000000000000000000000000000000000000000000000000000000000815260040161109c90614776565b60405180910390fd5b8060060160019054906101000a900460ff16156110f7576040517f08c379a00000000000000000000000000000000000000000000000000000000081526004016110ee90614808565b60405180910390fd5b60018160060160026101000a81548160ff02191690831515021790555060018160060160006101000a81548160ff021916908315150217905550428160030181905550847f159eee87222a0489c529f2153c26ad65d718f2cc33ebaa8d399d1dd5b39facaa60405160405180910390a25050505050565b6060600060035467ffffffffffffffff81111561118e5761118d61322f565b5b6040519080825280602002602001820160405280156111c757816020015b6111b4613155565b8152602001906001900390816111ac5790505b50905060005b60035481101561149a5760006004600083815260200190815260200160002090506000816007015467ffffffffffffffff81111561120e5761120d61322f565b5b60405190808252806020026020018201604052801561124757816020015b611234613134565b81526020019060019003908161122c5790505b50905060005b826007015481101561134d5760008360090160008381526020019081526020016000209050604051806060016040528082600001548152602001826001018054611296906143b3565b80601f01602080910402602001604051908101604052809291908181526020018280546112c2906143b3565b801561130f5780601f106112e45761010080835404028352916020019161130f565b820191906000526020600020905b8154815290600101906020018083116112f257829003601f168201915b505050505081526020018260020154815250838381518110611334576113336146fb565b5b602002602001018190525050808060010191505061124d565b5060405180610140016040528083600001548152602001836002018054611373906143b3565b80601f016020809104026020016040519081016040528092919081815260200182805461139f906143b3565b80156113ec5780601f106113c1576101008083540402835291602001916113ec565b820191906000526020600020905b8154815290600101906020018083116113cf57829003601f168201915b5050505050815260200183600301548152602001836004015481526020018360060160029054906101000a900460ff16151581526020018360060160009054906101000a900460ff16151581526020018360060160019054906101000a900460ff16151581526020018360070154815260200183600501548152602001828152508484815181106114805761147f6146fb565b5b6020026020010181905250505080806001019150506111cd565b508091505090565b60608160035481106114e9576040517f08c379a00000000000000000000000000000000000000000000000000000000081526004016114e0906142a5565b60405180910390fd5b60006004600085815260200190815260200160002090508060060160019054906101000a900460ff168061153057506000816004015411801561152f5750806004015442115b5b8061155357506000816005015411801561155257508060050154816008015410155b5b611592576040517f08c379a000000000000000000000000000000000000000000000000000000000815260040161158990614874565b60405180910390fd5b61159b846125aa565b92505050919050565b6000606080600080600060606115b861272a565b6115c0612765565b46306000801b600067ffffffffffffffff8111156115e1576115e061322f565b5b60405190808252806020026020018201604052801561160f5781602001602082028036833780820191505090505b507f0f00000000000000000000000000000000000000000000000000000000000000959493929190965096509650965096509650965090919293949596565b60606000805b6003548110156116c45760006004600083815260200190815260200160002090508060060160029054906101000a900460ff1680156116a257508060060160019054906101000a900460ff16155b156116b65782806116b2906146b3565b9350505b508080600101915050611654565b5060008167ffffffffffffffff8111156116e1576116e061322f565b5b60405190808252806020026020018201604052801561171a57816020015b611707613155565b8152602001906001900390816116ff5790505b5090506000805b600354811015611a2d5760006004600083815260200190815260200160002090508060060160029054906101000a900460ff16801561176f57508060060160019054906101000a900460ff16155b15611a1f576000816007015467ffffffffffffffff8111156117945761179361322f565b5b6040519080825280602002602001820160405280156117cd57816020015b6117ba613134565b8152602001906001900390816117b25790505b50905060005b82600701548110156118d3576000836009016000838152602001908152602001600020905060405180606001604052808260000154815260200182600101805461181c906143b3565b80601f0160208091040260200160405190810160405280929190818152602001828054611848906143b3565b80156118955780601f1061186a57610100808354040283529160200191611895565b820191906000526020600020905b81548152906001019060200180831161187857829003601f168201915b5050505050815260200182600201548152508383815181106118ba576118b96146fb565b5b60200260200101819052505080806001019150506117d3565b50604051806101400160405280836000015481526020018360020180546118f9906143b3565b80601f0160208091040260200160405190810160405280929190818152602001828054611925906143b3565b80156119725780601f1061194757610100808354040283529160200191611972565b820191906000526020600020905b81548152906001019060200180831161195557829003601f168201915b5050505050815260200183600301548152602001836004015481526020018360060160029054906101000a900460ff16151581526020018360060160009054906101000a900460ff16151581526020018360060160019054906101000a900460ff16151581526020018360070154815260200183600501548152602001828152508585806119ff906146b3565b965081518110611a1257611a116146fb565b5b6020026020010181905250505b508080600101915050611721565b5081935050505090565b600060046000600354815260200190815260200160002090506003548160000181905550338160010160006101000a81548173ffffffffffffffffffffffffffffffffffffffff021916908373ffffffffffffffffffffffffffffffffffffffff16021790555084816002019081611aaf9190614590565b508281600501819055508315611b075742816003018190555060018160060160026101000a81548160ff02191690831515021790555060018160060160006101000a81548160ff021916908315150217905550611b2f565b6000816003018190555060008160060160026101000a81548160ff0219169083151502179055505b60008160040181905550611b43818361237c565b6003547f52be7c4e77b4de76b7607d621492061fe13b58597e72dfb5e51ab8f6187ed14186604051611b759190614662565b60405180910390a260036000815480929190611b90906146b3565b91905055505050505050565b806003548110611be1576040517f08c379a0000000000000000000000000000000000000000000000000000000008152600401611bd8906142a5565b60405180910390fd5b8160006004600083815260200190815260200160002090508060010160009054906101000a900473ffffffffffffffffffffffffffffffffffffffff1673ffffffffffffffffffffffffffffffffffffffff163373ffffffffffffffffffffffffffffffffffffffff161480611ca45750600260009054906101000a900473ffffffffffffffffffffffffffffffffffffffff1673ffffffffffffffffffffffffffffffffffffffff163373ffffffffffffffffffffffffffffffffffffffff16145b611ce3576040517f08c379a0000000000000000000000000000000000000000000000000000000008152600401611cda90614239565b60405180910390fd5b60006004600086815260200190815260200160002090508060060160029054906101000a900460ff16611d4b576040517f08c379a0000000000000000000000000000000000000000000000000000000008152600401611d42906148e0565b60405180910390fd5b60008160060160026101000a81548160ff02191690831515021790555060018160060160016101000a81548160ff021916908315150217905550428160040181905550847f562cd572b2ba3b666cd989fc4ca98419ec81e75f04528df9d9d76fdb7807ee7160405160405180910390a25050505050565b60066020528160005260406000208181548110611dde57600080fd5b906000526020600020906003020160009150915050806000015490806001018054611e08906143b3565b80601f0160208091040260200160405190810160405280929190818152602001828054611e34906143b3565b8015611e815780601f10611e5657610100808354040283529160200191611e81565b820191906000526020600020905b815481529060010190602001808311611e6457829003601f168201915b5050505050908060020154905083565b816003548110611ed6576040517f08c379a0000000000000000000000000000000000000000000000000000000008152600401611ecd906142a5565b60405180910390fd5b611ee18383336127a0565b505050565b846003548110611f2b576040517f08c379a0000000000000000000000000000000000000000000000000000000008152600401611f22906142a5565b60405180910390fd5b600060405180606001604052808881526020018781526020018673ffffffffffffffffffffffffffffffffffffffff16815250905060007f9e93967796b3e5daa51cda7800d50a238114477651ceb669fca594439aef1605826000015183602001518460400151604051602001611fa59493929190614900565b6040516020818303038152906040528051906020012090506000611fc882612564565b90506000611fd6828861257e565b90508773ffffffffffffffffffffffffffffffffffffffff168173ffffffffffffffffffffffffffffffffffffffff1614612046576040517f08c379a000000000000000000000000000000000000000000000000000000000815260040161203d90614364565b60405180910390fd5b60007fe1d8afb786acf71584f5e66cd58b29de3484a45b7e022cf10399c5749de558168b8a60405160200161207d93929190614945565b60405160208183030381529060405280519060200120905060006120a082612564565b905060006120ae828a61257e565b9050600460008e815260200190815260200160002060010160009054906101000a900473ffffffffffffffffffffffffffffffffffffffff1673ffffffffffffffffffffffffffffffffffffffff168173ffffffffffffffffffffffffffffffffffffffff1614612154576040517f08c379a000000000000000000000000000000000000000000000000000000000815260040161214b906149c8565b60405180910390fd5b61215f8d8d8d6127a0565b50505050505050505050505050565b606481565b60008060608360035481106121bd576040517f08c379a00000000000000000000000000000000000000000000000000000000081526004016121b4906142a5565b60405180910390fd5b600060046000878152602001908152602001600020905080600b0160003373ffffffffffffffffffffffffffffffffffffffff1673ffffffffffffffffffffffffffffffffffffffff16815260200190815260200160002060009054906101000a900460ff16945084156123175780600c0160003373ffffffffffffffffffffffffffffffffffffffff1673ffffffffffffffffffffffffffffffffffffffff1681526020019081526020016000205493508060090160008581526020019081526020016000206001018054612292906143b3565b80601f01602080910402602001604051908101604052809291908181526020018280546122be906143b3565b801561230b5780601f106122e05761010080835404028352916020019161230b565b820191906000526020600020905b8154815290600101906020018083116122ee57829003601f168201915b5050505050925061234d565b7fffffffffffffffffffffffffffffffffffffffffffffffffffffffffffffffff93506040518060200160405280600081525092505b50509193909250565b600260009054906101000a900473ffffffffffffffffffffffffffffffffffffffff1681565b600081519050606481846007015461239491906149e8565b11156123d5576040517f08c379a00000000000000000000000000000000000000000000000000000000081526004016123cc90614a68565b60405180910390fd5b60005b8181101561255e5760008382815181106123f5576123f46146fb565b5b602002602001015160405160200161240d9190614ac4565b60405160208183030381529060405280519060200120905084600a01600082815260200190815260200160002060009054906101000a900460ff1615612488576040517f08c379a000000000000000000000000000000000000000000000000000000000815260040161247f90614b27565b60405180910390fd5b6040518060600160405280866007015481526020018584815181106124b0576124af6146fb565b5b602002602001015181526020016000815250856009016000876007015481526020019081526020016000206000820151816000015560208201518160010190816124fa9190614590565b5060408201518160020155905050600185600a01600083815260200190815260200160002060006101000a81548160ff02191690831515021790555084600701600081548092919061254b906146b3565b91905055505080806001019150506123d8565b50505050565b6000612577612571612b7e565b83612c35565b9050919050565b60008060008061258e8686612c76565b92509250925061259e8282612cd2565b82935050505092915050565b606060006004600084815260200190815260200160002090506000816007015467ffffffffffffffff8111156125e3576125e261322f565b5b60405190808252806020026020018201604052801561261c57816020015b6126096131ae565b8152602001906001900390816126015790505b50905060005b826007015481101561271f5782600901600082815260200190815260200160002060405180606001604052908160008201548152602001600182018054612668906143b3565b80601f0160208091040260200160405190810160405280929190818152602001828054612694906143b3565b80156126e15780601f106126b6576101008083540402835291602001916126e1565b820191906000526020600020905b8154815290600101906020018083116126c457829003601f168201915b50505050508152602001600282015481525050828281518110612707576127066146fb565b5b60200260200101819052508080600101915050612622565b508092505050919050565b606061276060007f0000000000000000000000000000000000000000000000000000000000000000612e3690919063ffffffff16565b905090565b606061279b60017f0000000000000000000000000000000000000000000000000000000000000000612e3690919063ffffffff16565b905090565b60006004600085815260200190815260200160002090508060060160029054906101000a900460ff1680156127e457508060060160019054906101000a900460ff16155b612823576040517f08c379a000000000000000000000000000000000000000000000000000000000815260040161281a90614b93565b60405180910390fd5b80600b0160008373ffffffffffffffffffffffffffffffffffffffff1673ffffffffffffffffffffffffffffffffffffffff16815260200190815260200160002060009054906101000a900460ff16156128b2576040517f08c379a00000000000000000000000000000000000000000000000000000000081526004016128a990614bff565b60405180910390fd5b806007015483106128f8576040517f08c379a00000000000000000000000000000000000000000000000000000000081526004016128ef90614c6b565b60405180910390fd5b60008160050154111561295057806005015481600801541061294f576040517f08c379a000000000000000000000000000000000000000000000000000000000815260040161294690614cd7565b60405180910390fd5b5b8060090160008481526020019081526020016000206002016000815480929190612979906146b3565b9190505550600181600b0160008473ffffffffffffffffffffffffffffffffffffffff1673ffffffffffffffffffffffffffffffffffffffff16815260200190815260200160002060006101000a81548160ff0219169083151502179055508281600c0160008473ffffffffffffffffffffffffffffffffffffffff1673ffffffffffffffffffffffffffffffffffffffff16815260200190815260200160002081905550806008016000815480929190612a33906146b3565b919050555060056000858152602001908152602001600020829080600181540180825580915050600190039060005260206000200160009091909190916101000a81548173ffffffffffffffffffffffffffffffffffffffff021916908373ffffffffffffffffffffffffffffffffffffffff16021790555060008160050154118015612ac857508060050154816008015410155b15612b3e5760008160060160026101000a81548160ff02191690831515021790555060018160060160016101000a81548160ff021916908315150217905550428160040181905550837f562cd572b2ba3b666cd989fc4ca98419ec81e75f04528df9d9d76fdb7807ee7160405160405180910390a25b837f7fe1d4e6b34e228b5dc059fcdc037c71b216fb2417f47c171e505144a5e4f5fc8484604051612b70929190614cf7565b60405180910390a250505050565b60007f000000000000000000000000000000000000000000000000000000000000000073ffffffffffffffffffffffffffffffffffffffff163073ffffffffffffffffffffffffffffffffffffffff16148015612bfa57507f000000000000000000000000000000000000000000000000000000000000000046145b15612c27577f00000000000000000000000000000000000000000000000000000000000000009050612c32565b612c2f612ee6565b90505b90565b60006040517f190100000000000000000000000000000000000000000000000000000000000081528360028201528260228201526042812091505092915050565b60008060006041845103612cbb5760008060006020870151925060408701519150606087015160001a9050612cad88828585612f7c565b955095509550505050612ccb565b60006002855160001b9250925092505b9250925092565b60006003811115612ce657612ce5614d20565b5b826003811115612cf957612cf8614d20565b5b0315612e325760016003811115612d1357612d12614d20565b5b826003811115612d2657612d25614d20565b5b03612d5d576040517ff645eedf00000000000000000000000000000000000000000000000000000000815260040160405180910390fd5b60026003811115612d7157612d70614d20565b5b826003811115612d8457612d83614d20565b5b03612dc9578060001c6040517ffce698f7000000000000000000000000000000000000000000000000000000008152600401612dc09190613d07565b60405180910390fd5b600380811115612ddc57612ddb614d20565b5b826003811115612def57612dee614d20565b5b03612e3157806040517fd78bce0c000000000000000000000000000000000000000000000000000000008152600401612e2891906136d2565b60405180910390fd5b5b5050565b606060ff60001b8314612e5357612e4c83613070565b9050612ee0565b818054612e5f906143b3565b80601f0160208091040260200160405190810160405280929190818152602001828054612e8b906143b3565b8015612ed85780601f10612ead57610100808354040283529160200191612ed8565b820191906000526020600020905b815481529060010190602001808311612ebb57829003601f168201915b505050505090505b92915050565b60007f8b73c3c69bb8fe3d512ecc4cf759cc79239f7b179b0ffacaa9a75d522b39400f7f00000000000000000000000000000000000000000000000000000000000000007f00000000000000000000000000000000000000000000000000000000000000004630604051602001612f61959493929190614d4f565b60405160208183030381529060405280519060200120905090565b60008060007f7fffffffffffffffffffffffffffffff5d576e7357a4501ddfe92f46681b20a08460001c1115612fbc576000600385925092509250613066565b600060018888888860405160008152602001604052604051612fe19493929190614dbe565b6020604051602081039080840390855afa158015613003573d6000803e3d6000fd5b505050602060405103519050600073ffffffffffffffffffffffffffffffffffffffff168173ffffffffffffffffffffffffffffffffffffffff160361305757600060016000801b93509350935050613066565b8060008060001b935093509350505b9450945094915050565b6060600061307d836130e4565b90506000602067ffffffffffffffff81111561309c5761309b61322f565b5b6040519080825280601f01601f1916602001820160405280156130ce5781602001600182028036833780820191505090505b5090508181528360208201528092505050919050565b60008060ff8360001c169050601f81111561312b576040517fb3512b0c00000000000000000000000000000000000000000000000000000000815260040160405180910390fd5b80915050919050565b60405180606001604052806000815260200160608152602001600081525090565b604051806101400160405280600081526020016060815260200160008152602001600081526020016000151581526020016000151581526020016000151581526020016000815260200160008152602001606081525090565b60405180606001604052806000815260200160608152602001600081525090565b6000604051905090565b600080fd5b600080fd5b6000819050919050565b6131f6816131e3565b811461320157600080fd5b50565b600081359050613213816131ed565b92915050565b600080fd5b6000601f19601f8301169050919050565b7f4e487b7100000000000000000000000000000000000000000000000000000000600052604160045260246000fd5b6132678261321e565b810181811067ffffffffffffffff821117156132865761328561322f565b5b80604052505050565b60006132996131cf565b90506132a5828261325e565b919050565b600067ffffffffffffffff8211156132c5576132c461322f565b5b602082029050602081019050919050565b600080fd5b600080fd5b600067ffffffffffffffff8211156132fb576132fa61322f565b5b6133048261321e565b9050602081019050919050565b82818337600083830152505050565b600061333361332e846132e0565b61328f565b90508281526020810184848401111561334f5761334e6132db565b5b61335a848285613311565b509392505050565b600082601f83011261337757613376613219565b5b8135613387848260208601613320565b91505092915050565b60006133a361339e846132aa565b61328f565b905080838252602082019050602084028301858111156133c6576133c56132d6565b5b835b8181101561340d57803567ffffffffffffffff8111156133eb576133ea613219565b5b8086016133f88982613362565b855260208501945050506020810190506133c8565b5050509392505050565b600082601f83011261342c5761342b613219565b5b813561343c848260208601613390565b91505092915050565b6000806040838503121561345c5761345b6131d9565b5b600061346a85828601613204565b925050602083013567ffffffffffffffff81111561348b5761348a6131de565b5b61349785828601613417565b9150509250929050565b60008115159050919050565b6134b6816134a1565b81146134c157600080fd5b50565b6000813590506134d3816134ad565b92915050565b600073ffffffffffffffffffffffffffffffffffffffff82169050919050565b6000613504826134d9565b9050919050565b613514816134f9565b811461351f57600080fd5b50565b6000813590506135318161350b565b92915050565b600067ffffffffffffffff8211156135525761355161322f565b5b61355b8261321e565b9050602081019050919050565b600061357b61357684613537565b61328f565b905082815260208101848484011115613597576135966132db565b5b6135a2848285613311565b509392505050565b600082601f8301126135bf576135be613219565b5b81356135cf848260208601613568565b91505092915050565b60008060008060008060c087890312156135f5576135f46131d9565b5b600087013567ffffffffffffffff811115613613576136126131de565b5b61361f89828a01613362565b965050602061363089828a016134c4565b955050604061364189828a01613204565b945050606061365289828a01613522565b935050608087013567ffffffffffffffff811115613673576136726131de565b5b61367f89828a01613417565b92505060a087013567ffffffffffffffff8111156136a05761369f6131de565b5b6136ac89828a016135aa565b9150509295509295509295565b6000819050919050565b6136cc816136b9565b82525050565b60006020820190506136e760008301846136c3565b92915050565b600060208284031215613703576137026131d9565b5b600061371184828501613204565b91505092915050565b600081519050919050565b600082825260208201905092915050565b6000819050602082019050919050565b61374f816131e3565b82525050565b600081519050919050565b600082825260208201905092915050565b60005b8381101561378f578082015181840152602081019050613774565b60008484015250505050565b60006137a682613755565b6137b08185613760565b93506137c0818560208601613771565b6137c98161321e565b840191505092915050565b60006060830160008301516137ec6000860182613746565b5060208301518482036020860152613804828261379b565b91505060408301516138196040860182613746565b508091505092915050565b600061383083836137d4565b905092915050565b6000602082019050919050565b60006138508261371a565b61385a8185613725565b93508360208202850161386c85613736565b8060005b858110156138a857848403895281516138898582613824565b945061389483613838565b925060208a01995050600181019050613870565b50829750879550505050505092915050565b600060208201905081810360008301526138d48184613845565b905092915050565b6138e5816131e3565b82525050565b6138f4816134f9565b82525050565b600082825260208201905092915050565b600061391682613755565b61392081856138fa565b9350613930818560208601613771565b6139398161321e565b840191505092915050565b61394d816134a1565b82525050565b600061016082019050613969600083018e6138dc565b613976602083018d6138eb565b8181036040830152613988818c61390b565b9050613997606083018b6138dc565b6139a4608083018a6138dc565b6139b160a08301896138dc565b6139be60c0830188613944565b6139cb60e0830187613944565b6139d9610100830186613944565b6139e76101208301856138dc565b6139f56101408301846138dc565b9c9b505050505050505050505050565b600080fd5b60008083601f840112613a2057613a1f613219565b5b8235905067ffffffffffffffff811115613a3d57613a3c613a05565b5b602083019150836020820283011115613a5957613a586132d6565b5b9250929050565b60008060208385031215613a7757613a766131d9565b5b600083013567ffffffffffffffff811115613a9557613a946131de565b5b613aa185828601613a0a565b92509250509250929050565b600081519050919050565b600082825260208201905092915050565b6000819050602082019050919050565b613ae2816134a1565b82525050565b600082825260208201905092915050565b6000613b048261371a565b613b0e8185613ae8565b935083602082028501613b2085613736565b8060005b85811015613b5c5784840389528151613b3d8582613824565b9450613b4883613838565b925060208a01995050600181019050613b24565b50829750879550505050505092915050565b600061014083016000830151613b876000860182613746565b5060208301518482036020860152613b9f828261379b565b9150506040830151613bb46040860182613746565b506060830151613bc76060860182613746565b506080830151613bda6080860182613ad9565b5060a0830151613bed60a0860182613ad9565b5060c0830151613c0060c0860182613ad9565b5060e0830151613c1360e0860182613746565b50610100830151613c28610100860182613746565b50610120830151848203610120860152613c428282613af9565b9150508091505092915050565b6000613c5b8383613b6e565b905092915050565b6000602082019050919050565b6000613c7b82613aad565b613c858185613ab8565b935083602082028501613c9785613ac9565b8060005b85811015613cd35784840389528151613cb48582613c4f565b9450613cbf83613c63565b925060208a01995050600181019050613c9b565b50829750879550505050505092915050565b60006020820190508181036000830152613cff8184613c70565b905092915050565b6000602082019050613d1c60008301846138dc565b92915050565b600081519050919050565b600082825260208201905092915050565b6000819050602082019050919050565b6000606083016000830151613d666000860182613746565b5060208301518482036020860152613d7e828261379b565b9150506040830151613d936040860182613746565b508091505092915050565b6000613daa8383613d4e565b905092915050565b6000602082019050919050565b6000613dca82613d22565b613dd48185613d2d565b935083602082028501613de685613d3e565b8060005b85811015613e225784840389528151613e038582613d9e565b9450613e0e83613db2565b925060208a01995050600181019050613dea565b50829750879550505050505092915050565b60006020820190508181036000830152613e4e8184613dbf565b905092915050565b60007fff0000000000000000000000000000000000000000000000000000000000000082169050919050565b613e8b81613e56565b82525050565b600081519050919050565b600082825260208201905092915050565b6000819050602082019050919050565b6000613ec98383613746565b60208301905092915050565b6000602082019050919050565b6000613eed82613e91565b613ef78185613e9c565b9350613f0283613ead565b8060005b83811015613f33578151613f1a8882613ebd565b9750613f2583613ed5565b925050600181019050613f06565b5085935050505092915050565b600060e082019050613f55600083018a613e82565b8181036020830152613f67818961390b565b90508181036040830152613f7b818861390b565b9050613f8a60608301876138dc565b613f9760808301866138eb565b613fa460a08301856136c3565b81810360c0830152613fb68184613ee2565b905098975050505050505050565b60008060008060808587031215613fde57613fdd6131d9565b5b600085013567ffffffffffffffff811115613ffc57613ffb6131de565b5b61400887828801613362565b9450506020614019878288016134c4565b935050604061402a87828801613204565b925050606085013567ffffffffffffffff81111561404b5761404a6131de565b5b61405787828801613417565b91505092959194509250565b6000806040838503121561407a576140796131d9565b5b600061408885828601613204565b925050602061409985828601613204565b9150509250929050565b60006060820190506140b860008301866138dc565b81810360208301526140ca818561390b565b90506140d960408301846138dc565b949350505050565b600080600080600060a086880312156140fd576140fc6131d9565b5b600061410b88828901613204565b955050602061411c88828901613204565b945050604061412d88828901613522565b935050606086013567ffffffffffffffff81111561414e5761414d6131de565b5b61415a888289016135aa565b925050608086013567ffffffffffffffff81111561417b5761417a6131de565b5b614187888289016135aa565b9150509295509295909350565b60006060820190506141a96000830186613944565b6141b660208301856138dc565b81810360408301526141c8818461390b565b9050949350505050565b60006020820190506141e760008301846138eb565b92915050565b7f4e6f742063726561746f72206f722061646d696e000000000000000000000000600082015250565b60006142236014836138fa565b915061422e826141ed565b602082019050919050565b6000602082019050818103600083015261425281614216565b9050919050565b7f496e76616c696420656c656374696f6e00000000000000000000000000000000600082015250565b600061428f6010836138fa565b915061429a82614259565b602082019050919050565b600060208201905081810360008301526142be81614282565b9050919050565b600060a0820190506142da60008301886136c3565b6142e760208301876136c3565b6142f46040830186613944565b61430160608301856138dc565b61430e60808301846138eb565b9695505050505050565b7f496e76616c6964207369676e6174757265000000000000000000000000000000600082015250565b600061434e6011836138fa565b915061435982614318565b602082019050919050565b6000602082019050818103600083015261437d81614341565b9050919050565b7f4e487b7100000000000000000000000000000000000000000000000000000000600052602260045260246000fd5b600060028204905060018216806143cb57607f821691505b6020821081036143de576143dd614384565b5b50919050565b60008190508160005260206000209050919050565b60006020601f8301049050919050565b600082821b905092915050565b6000600883026144467fffffffffffffffffffffffffffffffffffffffffffffffffffffffffffffffff82614409565b6144508683614409565b95508019841693508086168417925050509392505050565b6000819050919050565b600061448d614488614483846131e3565b614468565b6131e3565b9050919050565b6000819050919050565b6144a783614472565b6144bb6144b382614494565b848454614416565b825550505050565b600090565b6144d06144c3565b6144db81848461449e565b505050565b5b818110156144ff576144f46000826144c8565b6001810190506144e1565b5050565b601f82111561454457614515816143e4565b61451e846143f9565b8101602085101561452d578190505b614541614539856143f9565b8301826144e0565b50505b505050565b600082821c905092915050565b600061456760001984600802614549565b1980831691505092915050565b60006145808383614556565b9150826002028217905092915050565b61459982613755565b67ffffffffffffffff8111156145b2576145b161322f565b5b6145bc82546143b3565b6145c7828285614503565b600060209050601f8311600181146145fa57600084156145e8578287015190505b6145f28582614574565b86555061465a565b601f198416614608866143e4565b60005b828110156146305784890151825560018201915060208501945060208101905061460b565b8683101561464d5784890151614649601f891682614556565b8355505b6001600288020188555050505b505050505050565b6000602082019050818103600083015261467c818461390b565b905092915050565b7f4e487b7100000000000000000000000000000000000000000000000000000000600052601160045260246000fd5b60006146be826131e3565b91507fffffffffffffffffffffffffffffffffffffffffffffffffffffffffffffffff82036146f0576146ef614684565b5b600182019050919050565b7f4e487b7100000000000000000000000000000000000000000000000000000000600052603260045260246000fd5b7f416c726561647920697320616374697665000000000000000000000000000000600082015250565b60006147606011836138fa565b915061476b8261472a565b602082019050919050565b6000602082019050818103600083015261478f81614753565b9050919050565b7f456c656374696f6e20686173206265656e20616c7265616479206d616e75616c60008201527f6c7920656e646564000000000000000000000000000000000000000000000000602082015250565b60006147f26028836138fa565b91506147fd82614796565b604082019050919050565b60006020820190508181036000830152614821816147e5565b9050919050565b7f456c656374696f6e206e6f7420656e6465640000000000000000000000000000600082015250565b600061485e6012836138fa565b915061486982614828565b602082019050919050565b6000602082019050818103600083015261488d81614851565b9050919050565b7f456c656374696f6e206973206e6f742061637469766500000000000000000000600082015250565b60006148ca6016836138fa565b91506148d582614894565b602082019050919050565b600060208201905081810360008301526148f9816148bd565b9050919050565b600060808201905061491560008301876136c3565b61492260208301866138dc565b61492f60408301856138dc565b61493c60608301846138eb565b95945050505050565b600060608201905061495a60008301866136c3565b61496760208301856138dc565b61497460408301846138eb565b949350505050565b7f4e6f7420617574686f72697a6564206279206f776e6572000000000000000000600082015250565b60006149b26017836138fa565b91506149bd8261497c565b602082019050919050565b600060208201905081810360008301526149e1816149a5565b9050919050565b60006149f3826131e3565b91506149fe836131e3565b9250828201905080821115614a1657614a15614684565b5b92915050565b7f45786365656473206d61782063616e6469646174657300000000000000000000600082015250565b6000614a526016836138fa565b9150614a5d82614a1c565b602082019050919050565b60006020820190508181036000830152614a8181614a45565b9050919050565b600081905092915050565b6000614a9e82613755565b614aa88185614a88565b9350614ab8818560208601613771565b80840191505092915050565b6000614ad08284614a93565b915081905092915050565b7f4475706c69636174652063616e646964617465206e616d650000000000000000600082015250565b6000614b116018836138fa565b9150614b1c82614adb565b602082019050919050565b60006020820190508181036000830152614b4081614b04565b9050919050565b7f456c656374696f6e206e6f742061637469766500000000000000000000000000600082015250565b6000614b7d6013836138fa565b9150614b8882614b47565b602082019050919050565b60006020820190508181036000830152614bac81614b70565b9050919050565b7f416c726561647920766f74656400000000000000000000000000000000000000600082015250565b6000614be9600d836138fa565b9150614bf482614bb3565b602082019050919050565b60006020820190508181036000830152614c1881614bdc565b9050919050565b7f496e76616c69642063616e646964617465000000000000000000000000000000600082015250565b6000614c556011836138fa565b9150614c6082614c1f565b602082019050919050565b60006020820190508181036000830152614c8481614c48565b9050919050565b7f566f746572206c696d6974207265616368656400000000000000000000000000600082015250565b6000614cc16013836138fa565b9150614ccc82614c8b565b602082019050919050565b60006020820190508181036000830152614cf081614cb4565b9050919050565b6000604082019050614d0c60008301856138dc565b614d1960208301846138eb565b9392505050565b7f4e487b7100000000000000000000000000000000000000000000000000000000600052602160045260246000fd5b600060a082019050614d6460008301886136c3565b614d7160208301876136c3565b614d7e60408301866136c3565b614d8b60608301856138dc565b614d9860808301846138eb565b9695505050505050565b600060ff82169050919050565b614db881614da2565b82525050565b6000608082019050614dd360008301876136c3565b614de06020830186614daf565b614ded60408301856136c3565b614dfa60608301846136c3565b9594505050505056fea2646970667358221220c25ed85e5f3d5391ed3c3ec82ee97b5fcd37aeb80e050b80b6228bbf146bd5aa64736f6c634300081c0033",
  "linkReferences": {},
  "deployedLinkReferences": {}
}